{
	"contracts/PrivateBank.sol": {
		"PrivateBank": {
			"abi": [
				{
					"inputs": [
						{
							"internalType": "uint256",
							"name": "_ownerPin",
							"type": "uint256"
						}
					],
					"stateMutability": "nonpayable",
					"type": "constructor"
				},
				{
					"anonymous": false,
					"inputs": [
						{
							"indexed": true,
							"internalType": "address",
							"name": "user",
							"type": "address"
						},
						{
							"indexed": false,
							"internalType": "uint256",
							"name": "amount",
							"type": "uint256"
						},
						{
							"indexed": false,
							"internalType": "uint256",
							"name": "timestamp",
							"type": "uint256"
						}
					],
					"name": "Deposit",
					"type": "event"
				},
				{
					"anonymous": false,
					"inputs": [
						{
							"indexed": true,
							"internalType": "address",
							"name": "from",
							"type": "address"
						},
						{
							"indexed": true,
							"internalType": "address",
							"name": "to",
							"type": "address"
						},
						{
							"indexed": false,
							"internalType": "uint256",
							"name": "amount",
							"type": "uint256"
						},
						{
							"indexed": false,
							"internalType": "uint256",
							"name": "timestamp",
							"type": "uint256"
						}
					],
					"name": "Transfer",
					"type": "event"
				},
				{
					"anonymous": false,
					"inputs": [
						{
							"indexed": true,
							"internalType": "address",
							"name": "user",
							"type": "address"
						},
						{
							"indexed": false,
							"internalType": "uint256",
							"name": "amount",
							"type": "uint256"
						},
						{
							"indexed": false,
							"internalType": "uint256",
							"name": "timestamp",
							"type": "uint256"
						}
					],
					"name": "Withdraw",
					"type": "event"
				},
				{
					"inputs": [
						{
							"internalType": "address",
							"name": "_newCustomer",
							"type": "address"
						},
						{
							"internalType": "uint256",
							"name": "_pin",
							"type": "uint256"
						}
					],
					"name": "addCustomer",
					"outputs": [],
					"stateMutability": "nonpayable",
					"type": "function"
				},
				{
					"inputs": [
						{
							"internalType": "address",
							"name": "_newCustomer",
							"type": "address"
						}
					],
					"name": "approveNewCustomer",
					"outputs": [],
					"stateMutability": "nonpayable",
					"type": "function"
				},
				{
					"inputs": [],
					"name": "deposit",
					"outputs": [],
					"stateMutability": "payable",
					"type": "function"
				},
				{
					"inputs": [],
					"name": "getMyBalance",
					"outputs": [
						{
							"internalType": "uint256",
							"name": "",
							"type": "uint256"
						}
					],
					"stateMutability": "view",
					"type": "function"
				},
				{
					"inputs": [
						{
							"internalType": "uint256",
							"name": "_myPin",
							"type": "uint256"
						}
					],
					"name": "requestBeCustomer",
					"outputs": [],
					"stateMutability": "nonpayable",
					"type": "function"
				},
				{
					"inputs": [
						{
							"internalType": "address payable",
							"name": "_to",
							"type": "address"
						},
						{
							"internalType": "uint256",
							"name": "_amount",
							"type": "uint256"
						},
						{
							"internalType": "uint256",
							"name": "_pin",
							"type": "uint256"
						}
					],
					"name": "transfer",
					"outputs": [],
					"stateMutability": "nonpayable",
					"type": "function"
				},
				{
					"inputs": [
						{
							"internalType": "uint256",
							"name": "_amount",
							"type": "uint256"
						},
						{
							"internalType": "uint256",
							"name": "_pin",
							"type": "uint256"
						}
					],
					"name": "withdraw",
					"outputs": [],
					"stateMutability": "nonpayable",
					"type": "function"
				}
			],
			"devdoc": {
				"kind": "dev",
				"methods": {},
				"version": 1
			},
			"evm": {
				"assembly": "    /* \"contracts/PrivateBank.sol\":57:3401  contract PrivateBank{... */\n  mstore(0x40, 0xc0)\n    /* \"contracts/PrivateBank.sol\":741:1025  constructor(uint256 _ownerPin){... */\n  callvalue\n  dup1\n  iszero\n  tag_1\n  jumpi\n  0x00\n  dup1\n  revert\ntag_1:\n  pop\n  mload(0x40)\n  sub(codesize, bytecodeSize)\n  dup1\n  bytecodeSize\n  dup4\n  codecopy\n  dup2\n  dup2\n  add\n  0x40\n  mstore\n  dup2\n  add\n  swap1\n  tag_2\n  swap2\n  swap1\n  tag_3\n  jump\t// in\ntag_2:\n    /* \"contracts/PrivateBank.sol\":789:799  msg.sender */\n  caller\n    /* \"contracts/PrivateBank.sol\":781:799  owner = msg.sender */\n  0xffffffffffffffffffffffffffffffffffffffff\n  and\n  0x80\n  dup2\n  0xffffffffffffffffffffffffffffffffffffffff\n  and\n  dup2\n  mstore\n  pop\n  pop\n    /* \"contracts/PrivateBank.sol\":824:828  1000 */\n  0x03e8\n    /* \"contracts/PrivateBank.sol\":809:828  contract_fee = 1000 */\n  0xa0\n  dup2\n  dup2\n  mstore\n  pop\n  pop\n    /* \"contracts/PrivateBank.sol\":868:878  msg.sender */\n  caller\n    /* \"contracts/PrivateBank.sol\":838:842  user */\n  0x00\n    /* \"contracts/PrivateBank.sol\":838:854  user[msg.sender] */\n  dup1\n    /* \"contracts/PrivateBank.sol\":843:853  msg.sender */\n  caller\n    /* \"contracts/PrivateBank.sol\":838:854  user[msg.sender] */\n  0xffffffffffffffffffffffffffffffffffffffff\n  and\n  0xffffffffffffffffffffffffffffffffffffffff\n  and\n  dup2\n  mstore\n  0x20\n  add\n  swap1\n  dup2\n  mstore\n  0x20\n  add\n  0x00\n  keccak256\n    /* \"contracts/PrivateBank.sol\":838:865  user[msg.sender].walletUser */\n  0x00\n  add\n  0x00\n    /* \"contracts/PrivateBank.sol\":838:878  user[msg.sender].walletUser = msg.sender */\n  0x0100\n  exp\n  dup2\n  sload\n  dup2\n  0xffffffffffffffffffffffffffffffffffffffff\n  mul\n  not\n  and\n  swap1\n  dup4\n  0xffffffffffffffffffffffffffffffffffffffff\n  and\n  mul\n  or\n  swap1\n  sstore\n  pop\n    /* \"contracts/PrivateBank.sol\":918:922  true */\n  0x01\n    /* \"contracts/PrivateBank.sol\":888:892  user */\n  0x00\n    /* \"contracts/PrivateBank.sol\":888:904  user[msg.sender] */\n  dup1\n    /* \"contracts/PrivateBank.sol\":893:903  msg.sender */\n  caller\n    /* \"contracts/PrivateBank.sol\":888:904  user[msg.sender] */\n  0xffffffffffffffffffffffffffffffffffffffff\n  and\n  0xffffffffffffffffffffffffffffffffffffffff\n  and\n  dup2\n  mstore\n  0x20\n  add\n  swap1\n  dup2\n  mstore\n  0x20\n  add\n  0x00\n  keccak256\n    /* \"contracts/PrivateBank.sol\":888:915  user[msg.sender].isApproved */\n  0x03\n  add\n  0x00\n    /* \"contracts/PrivateBank.sol\":888:922  user[msg.sender].isApproved = true */\n  0x0100\n  exp\n  dup2\n  sload\n  dup2\n  0xff\n  mul\n  not\n  and\n  swap1\n  dup4\n  iszero\n  iszero\n  mul\n  or\n  swap1\n  sstore\n  pop\n    /* \"contracts/PrivateBank.sol\":955:964  _ownerPin */\n  dup1\n    /* \"contracts/PrivateBank.sol\":932:936  user */\n  0x00\n    /* \"contracts/PrivateBank.sol\":932:948  user[msg.sender] */\n  dup1\n    /* \"contracts/PrivateBank.sol\":937:947  msg.sender */\n  caller\n    /* \"contracts/PrivateBank.sol\":932:948  user[msg.sender] */\n  0xffffffffffffffffffffffffffffffffffffffff\n  and\n  0xffffffffffffffffffffffffffffffffffffffff\n  and\n  dup2\n  mstore\n  0x20\n  add\n  swap1\n  dup2\n  mstore\n  0x20\n  add\n  0x00\n  keccak256\n    /* \"contracts/PrivateBank.sol\":932:952  user[msg.sender].pin */\n  0x02\n  add\n    /* \"contracts/PrivateBank.sol\":932:964  user[msg.sender].pin = _ownerPin */\n  dup2\n  swap1\n  sstore\n  pop\n    /* \"contracts/PrivateBank.sol\":1003:1018  block.timestamp */\n  timestamp\n    /* \"contracts/PrivateBank.sol\":974:978  user */\n  0x00\n    /* \"contracts/PrivateBank.sol\":974:990  user[msg.sender] */\n  dup1\n    /* \"contracts/PrivateBank.sol\":979:989  msg.sender */\n  caller\n    /* \"contracts/PrivateBank.sol\":974:990  user[msg.sender] */\n  0xffffffffffffffffffffffffffffffffffffffff\n  and\n  0xffffffffffffffffffffffffffffffffffffffff\n  and\n  dup2\n  mstore\n  0x20\n  add\n  swap1\n  dup2\n  mstore\n  0x20\n  add\n  0x00\n  keccak256\n    /* \"contracts/PrivateBank.sol\":974:1000  user[msg.sender].createdAt */\n  0x04\n  add\n    /* \"contracts/PrivateBank.sol\":974:1018  user[msg.sender].createdAt = block.timestamp */\n  dup2\n  swap1\n  sstore\n  pop\n    /* \"contracts/PrivateBank.sol\":741:1025  constructor(uint256 _ownerPin){... */\n  pop\n    /* \"contracts/PrivateBank.sol\":57:3401  contract PrivateBank{... */\n  jump(tag_6)\n    /* \"#utility.yul\":88:205   */\ntag_8:\n    /* \"#utility.yul\":197:198   */\n  0x00\n    /* \"#utility.yul\":194:195   */\n  dup1\n    /* \"#utility.yul\":187:199   */\n  revert\n    /* \"#utility.yul\":334:411   */\ntag_10:\n    /* \"#utility.yul\":371:378   */\n  0x00\n    /* \"#utility.yul\":400:405   */\n  dup2\n    /* \"#utility.yul\":389:405   */\n  swap1\n  pop\n    /* \"#utility.yul\":334:411   */\n  swap2\n  swap1\n  pop\n  jump\t// out\n    /* \"#utility.yul\":417:539   */\ntag_11:\n    /* \"#utility.yul\":490:514   */\n  tag_19\n    /* \"#utility.yul\":508:513   */\n  dup2\n    /* \"#utility.yul\":490:514   */\n  tag_10\n  jump\t// in\ntag_19:\n    /* \"#utility.yul\":483:488   */\n  dup2\n    /* \"#utility.yul\":480:515   */\n  eq\n    /* \"#utility.yul\":470:533   */\n  tag_20\n  jumpi\n    /* \"#utility.yul\":529:530   */\n  0x00\n    /* \"#utility.yul\":526:527   */\n  dup1\n    /* \"#utility.yul\":519:531   */\n  revert\n    /* \"#utility.yul\":470:533   */\ntag_20:\n    /* \"#utility.yul\":417:539   */\n  pop\n  jump\t// out\n    /* \"#utility.yul\":545:688   */\ntag_12:\n    /* \"#utility.yul\":602:607   */\n  0x00\n    /* \"#utility.yul\":633:639   */\n  dup2\n    /* \"#utility.yul\":627:640   */\n  mload\n    /* \"#utility.yul\":618:640   */\n  swap1\n  pop\n    /* \"#utility.yul\":649:682   */\n  tag_22\n    /* \"#utility.yul\":676:681   */\n  dup2\n    /* \"#utility.yul\":649:682   */\n  tag_11\n  jump\t// in\ntag_22:\n    /* \"#utility.yul\":545:688   */\n  swap3\n  swap2\n  pop\n  pop\n  jump\t// out\n    /* \"#utility.yul\":694:1045   */\ntag_3:\n    /* \"#utility.yul\":764:770   */\n  0x00\n    /* \"#utility.yul\":813:815   */\n  0x20\n    /* \"#utility.yul\":801:810   */\n  dup3\n    /* \"#utility.yul\":792:799   */\n  dup5\n    /* \"#utility.yul\":788:811   */\n  sub\n    /* \"#utility.yul\":784:816   */\n  slt\n    /* \"#utility.yul\":781:900   */\n  iszero\n  tag_24\n  jumpi\n    /* \"#utility.yul\":819:898   */\n  tag_25\n  tag_8\n  jump\t// in\ntag_25:\n    /* \"#utility.yul\":781:900   */\ntag_24:\n    /* \"#utility.yul\":939:940   */\n  0x00\n    /* \"#utility.yul\":964:1028   */\n  tag_26\n    /* \"#utility.yul\":1020:1027   */\n  dup5\n    /* \"#utility.yul\":1011:1017   */\n  dup3\n    /* \"#utility.yul\":1000:1009   */\n  dup6\n    /* \"#utility.yul\":996:1018   */\n  add\n    /* \"#utility.yul\":964:1028   */\n  tag_12\n  jump\t// in\ntag_26:\n    /* \"#utility.yul\":954:1028   */\n  swap2\n  pop\n    /* \"#utility.yul\":910:1038   */\n  pop\n    /* \"#utility.yul\":694:1045   */\n  swap3\n  swap2\n  pop\n  pop\n  jump\t// out\n    /* \"contracts/PrivateBank.sol\":57:3401  contract PrivateBank{... */\ntag_6:\n  mload(0x80)\n  mload(0xa0)\n  codecopy(0x00, dataOffset(sub_0), dataSize(sub_0))\n  0x00\n  assignImmutable(\"0xccb1f717aa77602faf03a594761a36956b1c4cf44c6b336d1db57da799b331b8\")\n  0x00\n  assignImmutable(\"0x880de8116b3dfac28e9ff528a9fef1d1e0a51449c1addce011ffec1f302992b6\")\n  return(0x00, dataSize(sub_0))\nstop\n\nsub_0: assembly {\n        /* \"contracts/PrivateBank.sol\":57:3401  contract PrivateBank{... */\n      mstore(0x40, 0x80)\n      jumpi(tag_1, lt(calldatasize, 0x04))\n      shr(0xe0, calldataload(0x00))\n      dup1\n      0x9bf68fd4\n      gt\n      tag_9\n      jumpi\n      dup1\n      0x9bf68fd4\n      eq\n      tag_5\n      jumpi\n      dup1\n      0xa3795d38\n      eq\n      tag_6\n      jumpi\n      dup1\n      0xd0e30db0\n      eq\n      tag_7\n      jumpi\n      dup1\n      0xdedf34f3\n      eq\n      tag_8\n      jumpi\n      jump(tag_1)\n    tag_9:\n      dup1\n      0x095bcdb6\n      eq\n      tag_2\n      jumpi\n      dup1\n      0x441a3e70\n      eq\n      tag_3\n      jumpi\n      dup1\n      0x4c738909\n      eq\n      tag_4\n      jumpi\n    tag_1:\n      0x00\n      dup1\n      revert\n        /* \"contracts/PrivateBank.sol\":2853:3293  function transfer(address payable _to,uint256 _amount, uint256 _pin) external ... */\n    tag_2:\n      callvalue\n      dup1\n      iszero\n      tag_10\n      jumpi\n      0x00\n      dup1\n      revert\n    tag_10:\n      pop\n      tag_11\n      0x04\n      dup1\n      calldatasize\n      sub\n      dup2\n      add\n      swap1\n      tag_12\n      swap2\n      swap1\n      tag_13\n      jump\t// in\n    tag_12:\n      tag_14\n      jump\t// in\n    tag_11:\n      stop\n        /* \"contracts/PrivateBank.sol\":2338:2843  function withdraw(uint256 _amount, uint256 _pin) external ... */\n    tag_3:\n      callvalue\n      dup1\n      iszero\n      tag_15\n      jumpi\n      0x00\n      dup1\n      revert\n    tag_15:\n      pop\n      tag_16\n      0x04\n      dup1\n      calldatasize\n      sub\n      dup2\n      add\n      swap1\n      tag_17\n      swap2\n      swap1\n      tag_18\n      jump\t// in\n    tag_17:\n      tag_19\n      jump\t// in\n    tag_16:\n      stop\n        /* \"contracts/PrivateBank.sol\":3299:3399  function getMyBalance() public view returns(uint256){... */\n    tag_4:\n      callvalue\n      dup1\n      iszero\n      tag_20\n      jumpi\n      0x00\n      dup1\n      revert\n    tag_20:\n      pop\n      tag_21\n      tag_22\n      jump\t// in\n    tag_21:\n      mload(0x40)\n      tag_23\n      swap2\n      swap1\n      tag_24\n      jump\t// in\n    tag_23:\n      mload(0x40)\n      dup1\n      swap2\n      sub\n      swap1\n      return\n        /* \"contracts/PrivateBank.sol\":1912:2158  function requestBeCustomer(uint256 _myPin) external{... */\n    tag_5:\n      callvalue\n      dup1\n      iszero\n      tag_25\n      jumpi\n      0x00\n      dup1\n      revert\n    tag_25:\n      pop\n      tag_26\n      0x04\n      dup1\n      calldatasize\n      sub\n      dup2\n      add\n      swap1\n      tag_27\n      swap2\n      swap1\n      tag_28\n      jump\t// in\n    tag_27:\n      tag_29\n      jump\t// in\n    tag_26:\n      stop\n        /* \"contracts/PrivateBank.sol\":1770:1902  function  approveNewCustomer(address _newCustomer) ... */\n    tag_6:\n      callvalue\n      dup1\n      iszero\n      tag_30\n      jumpi\n      0x00\n      dup1\n      revert\n    tag_30:\n      pop\n      tag_31\n      0x04\n      dup1\n      calldatasize\n      sub\n      dup2\n      add\n      swap1\n      tag_32\n      swap2\n      swap1\n      tag_33\n      jump\t// in\n    tag_32:\n      tag_34\n      jump\t// in\n    tag_31:\n      stop\n        /* \"contracts/PrivateBank.sol\":2164:2332  function deposit()external payable OnlyAutorizedUser{... */\n    tag_7:\n      tag_35\n      tag_36\n      jump\t// in\n    tag_35:\n      stop\n        /* \"contracts/PrivateBank.sol\":1529:1764  function addCustomer(address _newCustomer, uint256 _pin)... */\n    tag_8:\n      callvalue\n      dup1\n      iszero\n      tag_37\n      jumpi\n      0x00\n      dup1\n      revert\n    tag_37:\n      pop\n      tag_38\n      0x04\n      dup1\n      calldatasize\n      sub\n      dup2\n      add\n      swap1\n      tag_39\n      swap2\n      swap1\n      tag_40\n      jump\t// in\n    tag_39:\n      tag_41\n      jump\t// in\n    tag_38:\n      stop\n        /* \"contracts/PrivateBank.sol\":2853:3293  function transfer(address payable _to,uint256 _amount, uint256 _pin) external ... */\n    tag_14:\n        /* \"contracts/PrivateBank.sol\":1183:1187  user */\n      0x00\n        /* \"contracts/PrivateBank.sol\":1183:1199  user[msg.sender] */\n      dup1\n        /* \"contracts/PrivateBank.sol\":1188:1198  msg.sender */\n      caller\n        /* \"contracts/PrivateBank.sol\":1183:1199  user[msg.sender] */\n      0xffffffffffffffffffffffffffffffffffffffff\n      and\n      0xffffffffffffffffffffffffffffffffffffffff\n      and\n      dup2\n      mstore\n      0x20\n      add\n      swap1\n      dup2\n      mstore\n      0x20\n      add\n      0x00\n      keccak256\n        /* \"contracts/PrivateBank.sol\":1183:1210  user[msg.sender].isApproved */\n      0x03\n      add\n      0x00\n      swap1\n      sload\n      swap1\n      0x0100\n      exp\n      swap1\n      div\n      0xff\n      and\n        /* \"contracts/PrivateBank.sol\":1175:1238  require(user[msg.sender].isApproved,\"you are not our customer\") */\n      tag_43\n      jumpi\n      mload(0x40)\n      0x08c379a000000000000000000000000000000000000000000000000000000000\n      dup2\n      mstore\n      0x04\n      add\n      tag_44\n      swap1\n      tag_45\n      jump\t// in\n    tag_44:\n      mload(0x40)\n      dup1\n      swap2\n      sub\n      swap1\n      revert\n    tag_43:\n        /* \"contracts/PrivateBank.sol\":2977:2984  _amount */\n      dup2\n        /* \"contracts/PrivateBank.sol\":1457:1461  user */\n      0x00\n        /* \"contracts/PrivateBank.sol\":1457:1473  user[msg.sender] */\n      dup1\n        /* \"contracts/PrivateBank.sol\":1462:1472  msg.sender */\n      caller\n        /* \"contracts/PrivateBank.sol\":1457:1473  user[msg.sender] */\n      0xffffffffffffffffffffffffffffffffffffffff\n      and\n      0xffffffffffffffffffffffffffffffffffffffff\n      and\n      dup2\n      mstore\n      0x20\n      add\n      swap1\n      dup2\n      mstore\n      0x20\n      add\n      0x00\n      keccak256\n        /* \"contracts/PrivateBank.sol\":1457:1481  user[msg.sender].balance */\n      0x01\n      add\n      sload\n        /* \"contracts/PrivateBank.sol\":1447:1454  _amount */\n      dup2\n        /* \"contracts/PrivateBank.sol\":1447:1481  _amount < user[msg.sender].balance */\n      lt\n        /* \"contracts/PrivateBank.sol\":1439:1505  require(_amount < user[msg.sender].balance,\"insufficient balance\") */\n      tag_47\n      jumpi\n      mload(0x40)\n      0x08c379a000000000000000000000000000000000000000000000000000000000\n      dup2\n      mstore\n      0x04\n      add\n      tag_48\n      swap1\n      tag_49\n      jump\t// in\n    tag_48:\n      mload(0x40)\n      dup1\n      swap2\n      sub\n      swap1\n      revert\n    tag_47:\n        /* \"contracts/PrivateBank.sol\":3002:3006  _pin */\n      dup2\n        /* \"contracts/PrivateBank.sol\":1338:1342  _pin */\n      dup1\n        /* \"contracts/PrivateBank.sol\":1314:1318  user */\n      0x00\n        /* \"contracts/PrivateBank.sol\":1314:1330  user[msg.sender] */\n      dup1\n        /* \"contracts/PrivateBank.sol\":1319:1329  msg.sender */\n      caller\n        /* \"contracts/PrivateBank.sol\":1314:1330  user[msg.sender] */\n      0xffffffffffffffffffffffffffffffffffffffff\n      and\n      0xffffffffffffffffffffffffffffffffffffffff\n      and\n      dup2\n      mstore\n      0x20\n      add\n      swap1\n      dup2\n      mstore\n      0x20\n      add\n      0x00\n      keccak256\n        /* \"contracts/PrivateBank.sol\":1314:1334  user[msg.sender].pin */\n      0x02\n      add\n      sload\n        /* \"contracts/PrivateBank.sol\":1314:1342  user[msg.sender].pin == _pin */\n      eq\n        /* \"contracts/PrivateBank.sol\":1306:1358  require(user[msg.sender].pin == _pin,\"pin is wrong\") */\n      tag_51\n      jumpi\n      mload(0x40)\n      0x08c379a000000000000000000000000000000000000000000000000000000000\n      dup2\n      mstore\n      0x04\n      add\n      tag_52\n      swap1\n      tag_53\n      jump\t// in\n    tag_52:\n      mload(0x40)\n      dup1\n      swap2\n      sub\n      swap1\n      revert\n    tag_51:\n        /* \"contracts/PrivateBank.sol\":3022:3045  uint256 _amountAfterfee */\n      0x00\n        /* \"contracts/PrivateBank.sol\":3058:3070  contract_fee */\n      immutable(\"0xccb1f717aa77602faf03a594761a36956b1c4cf44c6b336d1db57da799b331b8\")\n        /* \"contracts/PrivateBank.sol\":3048:3055  _amount */\n      dup6\n        /* \"contracts/PrivateBank.sol\":3048:3070  _amount - contract_fee */\n      tag_55\n      swap2\n      swap1\n      tag_56\n      jump\t// in\n    tag_55:\n        /* \"contracts/PrivateBank.sol\":3022:3070  uint256 _amountAfterfee = _amount - contract_fee */\n      swap1\n      pop\n        /* \"contracts/PrivateBank.sol\":3113:3120  _amount */\n      dup5\n        /* \"contracts/PrivateBank.sol\":3085:3089  user */\n      0x00\n        /* \"contracts/PrivateBank.sol\":3085:3101  user[msg.sender] */\n      dup1\n        /* \"contracts/PrivateBank.sol\":3090:3100  msg.sender */\n      caller\n        /* \"contracts/PrivateBank.sol\":3085:3101  user[msg.sender] */\n      0xffffffffffffffffffffffffffffffffffffffff\n      and\n      0xffffffffffffffffffffffffffffffffffffffff\n      and\n      dup2\n      mstore\n      0x20\n      add\n      swap1\n      dup2\n      mstore\n      0x20\n      add\n      0x00\n      keccak256\n        /* \"contracts/PrivateBank.sol\":3085:3109  user[msg.sender].balance */\n      0x01\n      add\n      0x00\n        /* \"contracts/PrivateBank.sol\":3085:3120  user[msg.sender].balance -= _amount */\n      dup3\n      dup3\n      sload\n      tag_57\n      swap2\n      swap1\n      tag_56\n      jump\t// in\n    tag_57:\n      swap3\n      pop\n      pop\n      dup2\n      swap1\n      sstore\n      pop\n        /* \"contracts/PrivateBank.sol\":3154:3166  contract_fee */\n      immutable(\"0xccb1f717aa77602faf03a594761a36956b1c4cf44c6b336d1db57da799b331b8\")\n        /* \"contracts/PrivateBank.sol\":3131:3135  user */\n      0x00\n        /* \"contracts/PrivateBank.sol\":3131:3142  user[owner] */\n      dup1\n        /* \"contracts/PrivateBank.sol\":3136:3141  owner */\n      immutable(\"0x880de8116b3dfac28e9ff528a9fef1d1e0a51449c1addce011ffec1f302992b6\")\n        /* \"contracts/PrivateBank.sol\":3131:3142  user[owner] */\n      0xffffffffffffffffffffffffffffffffffffffff\n      and\n      0xffffffffffffffffffffffffffffffffffffffff\n      and\n      dup2\n      mstore\n      0x20\n      add\n      swap1\n      dup2\n      mstore\n      0x20\n      add\n      0x00\n      keccak256\n        /* \"contracts/PrivateBank.sol\":3131:3150  user[owner].balance */\n      0x01\n      add\n      0x00\n        /* \"contracts/PrivateBank.sol\":3131:3166  user[owner].balance += contract_fee */\n      dup3\n      dup3\n      sload\n      tag_58\n      swap2\n      swap1\n      tag_59\n      jump\t// in\n    tag_58:\n      swap3\n      pop\n      pop\n      dup2\n      swap1\n      sstore\n      pop\n        /* \"contracts/PrivateBank.sol\":3185:3188  _to */\n      dup6\n        /* \"contracts/PrivateBank.sol\":3185:3197  _to.transfer */\n      0xffffffffffffffffffffffffffffffffffffffff\n      and\n        /* \"contracts/PrivateBank.sol\":3185:3214  _to.transfer(_amountAfterfee) */\n      0x08fc\n        /* \"contracts/PrivateBank.sol\":3198:3213  _amountAfterfee */\n      dup3\n        /* \"contracts/PrivateBank.sol\":3185:3214  _to.transfer(_amountAfterfee) */\n      swap1\n      dup2\n      iszero\n      mul\n      swap1\n      mload(0x40)\n      0x00\n      mload(0x40)\n      dup1\n      dup4\n      sub\n      dup2\n      dup6\n      dup9\n      dup9\n      call\n      swap4\n      pop\n      pop\n      pop\n      pop\n      iszero\n      dup1\n      iszero\n      tag_61\n      jumpi\n      returndatasize\n      0x00\n      dup1\n      returndatacopy\n      revert(0x00, returndatasize)\n    tag_61:\n      pop\n        /* \"contracts/PrivateBank.sol\":3250:3253  _to */\n      dup6\n        /* \"contracts/PrivateBank.sol\":3230:3286  Transfer(msg.sender,_to,_amountAfterfee,block.timestamp) */\n      0xffffffffffffffffffffffffffffffffffffffff\n      and\n        /* \"contracts/PrivateBank.sol\":3239:3249  msg.sender */\n      caller\n        /* \"contracts/PrivateBank.sol\":3230:3286  Transfer(msg.sender,_to,_amountAfterfee,block.timestamp) */\n      0xffffffffffffffffffffffffffffffffffffffff\n      and\n      0x9ed053bb818ff08b8353cd46f78db1f0799f31c9e4458fdb425c10eccd2efc44\n        /* \"contracts/PrivateBank.sol\":3254:3269  _amountAfterfee */\n      dup4\n        /* \"contracts/PrivateBank.sol\":3270:3285  block.timestamp */\n      timestamp\n        /* \"contracts/PrivateBank.sol\":3230:3286  Transfer(msg.sender,_to,_amountAfterfee,block.timestamp) */\n      mload(0x40)\n      tag_62\n      swap3\n      swap2\n      swap1\n      tag_63\n      jump\t// in\n    tag_62:\n      mload(0x40)\n      dup1\n      swap2\n      sub\n      swap1\n      log3\n        /* \"contracts/PrivateBank.sol\":3012:3293  {... */\n      pop\n        /* \"contracts/PrivateBank.sol\":1515:1516  _ */\n      pop\n        /* \"contracts/PrivateBank.sol\":1248:1249  _ */\n      pop\n        /* \"contracts/PrivateBank.sol\":2853:3293  function transfer(address payable _to,uint256 _amount, uint256 _pin) external ... */\n      pop\n      pop\n      pop\n      jump\t// out\n        /* \"contracts/PrivateBank.sol\":2338:2843  function withdraw(uint256 _amount, uint256 _pin) external ... */\n    tag_19:\n        /* \"contracts/PrivateBank.sol\":1183:1187  user */\n      0x00\n        /* \"contracts/PrivateBank.sol\":1183:1199  user[msg.sender] */\n      dup1\n        /* \"contracts/PrivateBank.sol\":1188:1198  msg.sender */\n      caller\n        /* \"contracts/PrivateBank.sol\":1183:1199  user[msg.sender] */\n      0xffffffffffffffffffffffffffffffffffffffff\n      and\n      0xffffffffffffffffffffffffffffffffffffffff\n      and\n      dup2\n      mstore\n      0x20\n      add\n      swap1\n      dup2\n      mstore\n      0x20\n      add\n      0x00\n      keccak256\n        /* \"contracts/PrivateBank.sol\":1183:1210  user[msg.sender].isApproved */\n      0x03\n      add\n      0x00\n      swap1\n      sload\n      swap1\n      0x0100\n      exp\n      swap1\n      div\n      0xff\n      and\n        /* \"contracts/PrivateBank.sol\":1175:1238  require(user[msg.sender].isApproved,\"you are not our customer\") */\n      tag_65\n      jumpi\n      mload(0x40)\n      0x08c379a000000000000000000000000000000000000000000000000000000000\n      dup2\n      mstore\n      0x04\n      add\n      tag_66\n      swap1\n      tag_45\n      jump\t// in\n    tag_66:\n      mload(0x40)\n      dup1\n      swap2\n      sub\n      swap1\n      revert\n    tag_65:\n        /* \"contracts/PrivateBank.sol\":2442:2449  _amount */\n      dup2\n        /* \"contracts/PrivateBank.sol\":1457:1461  user */\n      0x00\n        /* \"contracts/PrivateBank.sol\":1457:1473  user[msg.sender] */\n      dup1\n        /* \"contracts/PrivateBank.sol\":1462:1472  msg.sender */\n      caller\n        /* \"contracts/PrivateBank.sol\":1457:1473  user[msg.sender] */\n      0xffffffffffffffffffffffffffffffffffffffff\n      and\n      0xffffffffffffffffffffffffffffffffffffffff\n      and\n      dup2\n      mstore\n      0x20\n      add\n      swap1\n      dup2\n      mstore\n      0x20\n      add\n      0x00\n      keccak256\n        /* \"contracts/PrivateBank.sol\":1457:1481  user[msg.sender].balance */\n      0x01\n      add\n      sload\n        /* \"contracts/PrivateBank.sol\":1447:1454  _amount */\n      dup2\n        /* \"contracts/PrivateBank.sol\":1447:1481  _amount < user[msg.sender].balance */\n      lt\n        /* \"contracts/PrivateBank.sol\":1439:1505  require(_amount < user[msg.sender].balance,\"insufficient balance\") */\n      tag_68\n      jumpi\n      mload(0x40)\n      0x08c379a000000000000000000000000000000000000000000000000000000000\n      dup2\n      mstore\n      0x04\n      add\n      tag_69\n      swap1\n      tag_49\n      jump\t// in\n    tag_69:\n      mload(0x40)\n      dup1\n      swap2\n      sub\n      swap1\n      revert\n    tag_68:\n        /* \"contracts/PrivateBank.sol\":2467:2471  _pin */\n      dup2\n        /* \"contracts/PrivateBank.sol\":1338:1342  _pin */\n      dup1\n        /* \"contracts/PrivateBank.sol\":1314:1318  user */\n      0x00\n        /* \"contracts/PrivateBank.sol\":1314:1330  user[msg.sender] */\n      dup1\n        /* \"contracts/PrivateBank.sol\":1319:1329  msg.sender */\n      caller\n        /* \"contracts/PrivateBank.sol\":1314:1330  user[msg.sender] */\n      0xffffffffffffffffffffffffffffffffffffffff\n      and\n      0xffffffffffffffffffffffffffffffffffffffff\n      and\n      dup2\n      mstore\n      0x20\n      add\n      swap1\n      dup2\n      mstore\n      0x20\n      add\n      0x00\n      keccak256\n        /* \"contracts/PrivateBank.sol\":1314:1334  user[msg.sender].pin */\n      0x02\n      add\n      sload\n        /* \"contracts/PrivateBank.sol\":1314:1342  user[msg.sender].pin == _pin */\n      eq\n        /* \"contracts/PrivateBank.sol\":1306:1358  require(user[msg.sender].pin == _pin,\"pin is wrong\") */\n      tag_71\n      jumpi\n      mload(0x40)\n      0x08c379a000000000000000000000000000000000000000000000000000000000\n      dup2\n      mstore\n      0x04\n      add\n      tag_72\n      swap1\n      tag_53\n      jump\t// in\n    tag_72:\n      mload(0x40)\n      dup1\n      swap2\n      sub\n      swap1\n      revert\n    tag_71:\n        /* \"contracts/PrivateBank.sol\":2487:2510  uint256 _amountAfterfee */\n      0x00\n        /* \"contracts/PrivateBank.sol\":2523:2535  contract_fee */\n      immutable(\"0xccb1f717aa77602faf03a594761a36956b1c4cf44c6b336d1db57da799b331b8\")\n        /* \"contracts/PrivateBank.sol\":2513:2520  _amount */\n      dup6\n        /* \"contracts/PrivateBank.sol\":2513:2535  _amount - contract_fee */\n      tag_74\n      swap2\n      swap1\n      tag_56\n      jump\t// in\n    tag_74:\n        /* \"contracts/PrivateBank.sol\":2487:2535  uint256 _amountAfterfee = _amount - contract_fee */\n      swap1\n      pop\n        /* \"contracts/PrivateBank.sol\":2574:2589  _amountAfterfee */\n      dup1\n        /* \"contracts/PrivateBank.sol\":2546:2550  user */\n      0x00\n        /* \"contracts/PrivateBank.sol\":2546:2562  user[msg.sender] */\n      dup1\n        /* \"contracts/PrivateBank.sol\":2551:2561  msg.sender */\n      caller\n        /* \"contracts/PrivateBank.sol\":2546:2562  user[msg.sender] */\n      0xffffffffffffffffffffffffffffffffffffffff\n      and\n      0xffffffffffffffffffffffffffffffffffffffff\n      and\n      dup2\n      mstore\n      0x20\n      add\n      swap1\n      dup2\n      mstore\n      0x20\n      add\n      0x00\n      keccak256\n        /* \"contracts/PrivateBank.sol\":2546:2570  user[msg.sender].balance */\n      0x01\n      add\n      0x00\n        /* \"contracts/PrivateBank.sol\":2546:2589  user[msg.sender].balance -= _amountAfterfee */\n      dup3\n      dup3\n      sload\n      tag_75\n      swap2\n      swap1\n      tag_56\n      jump\t// in\n    tag_75:\n      swap3\n      pop\n      pop\n      dup2\n      swap1\n      sstore\n      pop\n        /* \"contracts/PrivateBank.sol\":2631:2643  contract_fee */\n      immutable(\"0xccb1f717aa77602faf03a594761a36956b1c4cf44c6b336d1db57da799b331b8\")\n        /* \"contracts/PrivateBank.sol\":2608:2612  user */\n      0x00\n        /* \"contracts/PrivateBank.sol\":2608:2619  user[owner] */\n      dup1\n        /* \"contracts/PrivateBank.sol\":2613:2618  owner */\n      immutable(\"0x880de8116b3dfac28e9ff528a9fef1d1e0a51449c1addce011ffec1f302992b6\")\n        /* \"contracts/PrivateBank.sol\":2608:2619  user[owner] */\n      0xffffffffffffffffffffffffffffffffffffffff\n      and\n      0xffffffffffffffffffffffffffffffffffffffff\n      and\n      dup2\n      mstore\n      0x20\n      add\n      swap1\n      dup2\n      mstore\n      0x20\n      add\n      0x00\n      keccak256\n        /* \"contracts/PrivateBank.sol\":2608:2627  user[owner].balance */\n      0x01\n      add\n      0x00\n        /* \"contracts/PrivateBank.sol\":2608:2643  user[owner].balance += contract_fee */\n      dup3\n      dup3\n      sload\n      tag_76\n      swap2\n      swap1\n      tag_59\n      jump\t// in\n    tag_76:\n      swap3\n      pop\n      pop\n      dup2\n      swap1\n      sstore\n      pop\n        /* \"contracts/PrivateBank.sol\":2663:2679  bool successUser */\n      0x00\n        /* \"contracts/PrivateBank.sol\":2684:2694  msg.sender */\n      caller\n        /* \"contracts/PrivateBank.sol\":2684:2699  msg.sender.call */\n      0xffffffffffffffffffffffffffffffffffffffff\n      and\n        /* \"contracts/PrivateBank.sol\":2707:2722  _amountAfterfee */\n      dup3\n        /* \"contracts/PrivateBank.sol\":2684:2727  msg.sender.call{value: _amountAfterfee}(\"\") */\n      mload(0x40)\n      tag_77\n      swap1\n      tag_78\n      jump\t// in\n    tag_77:\n      0x00\n      mload(0x40)\n      dup1\n      dup4\n      sub\n      dup2\n      dup6\n      dup8\n      gas\n      call\n      swap3\n      pop\n      pop\n      pop\n      returndatasize\n      dup1\n      0x00\n      dup2\n      eq\n      tag_81\n      jumpi\n      mload(0x40)\n      swap2\n      pop\n      and(add(returndatasize, 0x3f), not(0x1f))\n      dup3\n      add\n      0x40\n      mstore\n      returndatasize\n      dup3\n      mstore\n      returndatasize\n      0x00\n      0x20\n      dup5\n      add\n      returndatacopy\n      jump(tag_80)\n    tag_81:\n      0x60\n      swap2\n      pop\n    tag_80:\n      pop\n        /* \"contracts/PrivateBank.sol\":2662:2727  (bool successUser,) = msg.sender.call{value: _amountAfterfee}(\"\") */\n      pop\n      swap1\n      pop\n        /* \"contracts/PrivateBank.sol\":2745:2756  successUser */\n      dup1\n        /* \"contracts/PrivateBank.sol\":2737:2775  require(successUser,\"transfer failed\") */\n      tag_82\n      jumpi\n      mload(0x40)\n      0x08c379a000000000000000000000000000000000000000000000000000000000\n      dup2\n      mstore\n      0x04\n      add\n      tag_83\n      swap1\n      tag_84\n      jump\t// in\n    tag_83:\n      mload(0x40)\n      dup1\n      swap2\n      sub\n      swap1\n      revert\n    tag_82:\n        /* \"contracts/PrivateBank.sol\":2801:2811  msg.sender */\n      caller\n        /* \"contracts/PrivateBank.sol\":2792:2836  Withdraw(msg.sender,_amount,block.timestamp) */\n      0xffffffffffffffffffffffffffffffffffffffff\n      and\n      0xf279e6a1f5e320cca91135676d9cb6e44ca8a08c0b88342bcdb1144f6511b568\n        /* \"contracts/PrivateBank.sol\":2812:2819  _amount */\n      dup8\n        /* \"contracts/PrivateBank.sol\":2820:2835  block.timestamp */\n      timestamp\n        /* \"contracts/PrivateBank.sol\":2792:2836  Withdraw(msg.sender,_amount,block.timestamp) */\n      mload(0x40)\n      tag_85\n      swap3\n      swap2\n      swap1\n      tag_63\n      jump\t// in\n    tag_85:\n      mload(0x40)\n      dup1\n      swap2\n      sub\n      swap1\n      log2\n        /* \"contracts/PrivateBank.sol\":2477:2843  {... */\n      pop\n      pop\n        /* \"contracts/PrivateBank.sol\":1515:1516  _ */\n      pop\n        /* \"contracts/PrivateBank.sol\":1248:1249  _ */\n      pop\n        /* \"contracts/PrivateBank.sol\":2338:2843  function withdraw(uint256 _amount, uint256 _pin) external ... */\n      pop\n      pop\n      jump\t// out\n        /* \"contracts/PrivateBank.sol\":3299:3399  function getMyBalance() public view returns(uint256){... */\n    tag_22:\n        /* \"contracts/PrivateBank.sol\":3343:3350  uint256 */\n      0x00\n        /* \"contracts/PrivateBank.sol\":3368:3372  user */\n      dup1\n        /* \"contracts/PrivateBank.sol\":3368:3384  user[msg.sender] */\n      0x00\n        /* \"contracts/PrivateBank.sol\":3373:3383  msg.sender */\n      caller\n        /* \"contracts/PrivateBank.sol\":3368:3384  user[msg.sender] */\n      0xffffffffffffffffffffffffffffffffffffffff\n      and\n      0xffffffffffffffffffffffffffffffffffffffff\n      and\n      dup2\n      mstore\n      0x20\n      add\n      swap1\n      dup2\n      mstore\n      0x20\n      add\n      0x00\n      keccak256\n        /* \"contracts/PrivateBank.sol\":3368:3392  user[msg.sender].balance */\n      0x01\n      add\n      sload\n        /* \"contracts/PrivateBank.sol\":3361:3392  return user[msg.sender].balance */\n      swap1\n      pop\n        /* \"contracts/PrivateBank.sol\":3299:3399  function getMyBalance() public view returns(uint256){... */\n      swap1\n      jump\t// out\n        /* \"contracts/PrivateBank.sol\":1912:2158  function requestBeCustomer(uint256 _myPin) external{... */\n    tag_29:\n        /* \"contracts/PrivateBank.sol\":2003:2013  msg.sender */\n      caller\n        /* \"contracts/PrivateBank.sol\":1973:1977  user */\n      0x00\n        /* \"contracts/PrivateBank.sol\":1973:1989  user[msg.sender] */\n      dup1\n        /* \"contracts/PrivateBank.sol\":1978:1988  msg.sender */\n      caller\n        /* \"contracts/PrivateBank.sol\":1973:1989  user[msg.sender] */\n      0xffffffffffffffffffffffffffffffffffffffff\n      and\n      0xffffffffffffffffffffffffffffffffffffffff\n      and\n      dup2\n      mstore\n      0x20\n      add\n      swap1\n      dup2\n      mstore\n      0x20\n      add\n      0x00\n      keccak256\n        /* \"contracts/PrivateBank.sol\":1973:2000  user[msg.sender].walletUser */\n      0x00\n      add\n      0x00\n        /* \"contracts/PrivateBank.sol\":1973:2013  user[msg.sender].walletUser = msg.sender */\n      0x0100\n      exp\n      dup2\n      sload\n      dup2\n      0xffffffffffffffffffffffffffffffffffffffff\n      mul\n      not\n      and\n      swap1\n      dup4\n      0xffffffffffffffffffffffffffffffffffffffff\n      and\n      mul\n      or\n      swap1\n      sstore\n      pop\n        /* \"contracts/PrivateBank.sol\":2046:2052  _myPin */\n      dup1\n        /* \"contracts/PrivateBank.sol\":2023:2027  user */\n      0x00\n        /* \"contracts/PrivateBank.sol\":2023:2039  user[msg.sender] */\n      dup1\n        /* \"contracts/PrivateBank.sol\":2028:2038  msg.sender */\n      caller\n        /* \"contracts/PrivateBank.sol\":2023:2039  user[msg.sender] */\n      0xffffffffffffffffffffffffffffffffffffffff\n      and\n      0xffffffffffffffffffffffffffffffffffffffff\n      and\n      dup2\n      mstore\n      0x20\n      add\n      swap1\n      dup2\n      mstore\n      0x20\n      add\n      0x00\n      keccak256\n        /* \"contracts/PrivateBank.sol\":2023:2043  user[msg.sender].pin */\n      0x02\n      add\n        /* \"contracts/PrivateBank.sol\":2023:2052  user[msg.sender].pin = _myPin */\n      dup2\n      swap1\n      sstore\n      pop\n        /* \"contracts/PrivateBank.sol\":2092:2097  false */\n      0x00\n        /* \"contracts/PrivateBank.sol\":2062:2066  user */\n      dup1\n        /* \"contracts/PrivateBank.sol\":2062:2078  user[msg.sender] */\n      0x00\n        /* \"contracts/PrivateBank.sol\":2067:2077  msg.sender */\n      caller\n        /* \"contracts/PrivateBank.sol\":2062:2078  user[msg.sender] */\n      0xffffffffffffffffffffffffffffffffffffffff\n      and\n      0xffffffffffffffffffffffffffffffffffffffff\n      and\n      dup2\n      mstore\n      0x20\n      add\n      swap1\n      dup2\n      mstore\n      0x20\n      add\n      0x00\n      keccak256\n        /* \"contracts/PrivateBank.sol\":2062:2089  user[msg.sender].isApproved */\n      0x03\n      add\n      0x00\n        /* \"contracts/PrivateBank.sol\":2062:2097  user[msg.sender].isApproved = false */\n      0x0100\n      exp\n      dup2\n      sload\n      dup2\n      0xff\n      mul\n      not\n      and\n      swap1\n      dup4\n      iszero\n      iszero\n      mul\n      or\n      swap1\n      sstore\n      pop\n        /* \"contracts/PrivateBank.sol\":2136:2151  block.timestamp */\n      timestamp\n        /* \"contracts/PrivateBank.sol\":2107:2111  user */\n      0x00\n        /* \"contracts/PrivateBank.sol\":2107:2123  user[msg.sender] */\n      dup1\n        /* \"contracts/PrivateBank.sol\":2112:2122  msg.sender */\n      caller\n        /* \"contracts/PrivateBank.sol\":2107:2123  user[msg.sender] */\n      0xffffffffffffffffffffffffffffffffffffffff\n      and\n      0xffffffffffffffffffffffffffffffffffffffff\n      and\n      dup2\n      mstore\n      0x20\n      add\n      swap1\n      dup2\n      mstore\n      0x20\n      add\n      0x00\n      keccak256\n        /* \"contracts/PrivateBank.sol\":2107:2133  user[msg.sender].createdAt */\n      0x04\n      add\n        /* \"contracts/PrivateBank.sol\":2107:2151  user[msg.sender].createdAt = block.timestamp */\n      dup2\n      swap1\n      sstore\n      pop\n        /* \"contracts/PrivateBank.sol\":1912:2158  function requestBeCustomer(uint256 _myPin) external{... */\n      pop\n      jump\t// out\n        /* \"contracts/PrivateBank.sol\":1770:1902  function  approveNewCustomer(address _newCustomer) ... */\n    tag_34:\n        /* \"contracts/PrivateBank.sol\":1083:1088  owner */\n      immutable(\"0x880de8116b3dfac28e9ff528a9fef1d1e0a51449c1addce011ffec1f302992b6\")\n        /* \"contracts/PrivateBank.sol\":1069:1088  msg.sender == owner */\n      0xffffffffffffffffffffffffffffffffffffffff\n      and\n        /* \"contracts/PrivateBank.sol\":1069:1079  msg.sender */\n      caller\n        /* \"contracts/PrivateBank.sol\":1069:1088  msg.sender == owner */\n      0xffffffffffffffffffffffffffffffffffffffff\n      and\n      eq\n        /* \"contracts/PrivateBank.sol\":1061:1113  require(msg.sender == owner,\"you are not the owner\") */\n      tag_89\n      jumpi\n      mload(0x40)\n      0x08c379a000000000000000000000000000000000000000000000000000000000\n      dup2\n      mstore\n      0x04\n      add\n      tag_90\n      swap1\n      tag_91\n      jump\t// in\n    tag_90:\n      mload(0x40)\n      dup1\n      swap2\n      sub\n      swap1\n      revert\n    tag_89:\n        /* \"contracts/PrivateBank.sol\":1891:1895  true */\n      0x01\n        /* \"contracts/PrivateBank.sol\":1859:1863  user */\n      0x00\n        /* \"contracts/PrivateBank.sol\":1859:1877  user[_newCustomer] */\n      dup1\n        /* \"contracts/PrivateBank.sol\":1864:1876  _newCustomer */\n      dup4\n        /* \"contracts/PrivateBank.sol\":1859:1877  user[_newCustomer] */\n      0xffffffffffffffffffffffffffffffffffffffff\n      and\n      0xffffffffffffffffffffffffffffffffffffffff\n      and\n      dup2\n      mstore\n      0x20\n      add\n      swap1\n      dup2\n      mstore\n      0x20\n      add\n      0x00\n      keccak256\n        /* \"contracts/PrivateBank.sol\":1859:1888  user[_newCustomer].isApproved */\n      0x03\n      add\n      0x00\n        /* \"contracts/PrivateBank.sol\":1859:1895  user[_newCustomer].isApproved = true */\n      0x0100\n      exp\n      dup2\n      sload\n      dup2\n      0xff\n      mul\n      not\n      and\n      swap1\n      dup4\n      iszero\n      iszero\n      mul\n      or\n      swap1\n      sstore\n      pop\n        /* \"contracts/PrivateBank.sol\":1770:1902  function  approveNewCustomer(address _newCustomer) ... */\n      pop\n      jump\t// out\n        /* \"contracts/PrivateBank.sol\":2164:2332  function deposit()external payable OnlyAutorizedUser{... */\n    tag_36:\n        /* \"contracts/PrivateBank.sol\":1183:1187  user */\n      0x00\n        /* \"contracts/PrivateBank.sol\":1183:1199  user[msg.sender] */\n      dup1\n        /* \"contracts/PrivateBank.sol\":1188:1198  msg.sender */\n      caller\n        /* \"contracts/PrivateBank.sol\":1183:1199  user[msg.sender] */\n      0xffffffffffffffffffffffffffffffffffffffff\n      and\n      0xffffffffffffffffffffffffffffffffffffffff\n      and\n      dup2\n      mstore\n      0x20\n      add\n      swap1\n      dup2\n      mstore\n      0x20\n      add\n      0x00\n      keccak256\n        /* \"contracts/PrivateBank.sol\":1183:1210  user[msg.sender].isApproved */\n      0x03\n      add\n      0x00\n      swap1\n      sload\n      swap1\n      0x0100\n      exp\n      swap1\n      div\n      0xff\n      and\n        /* \"contracts/PrivateBank.sol\":1175:1238  require(user[msg.sender].isApproved,\"you are not our customer\") */\n      tag_94\n      jumpi\n      mload(0x40)\n      0x08c379a000000000000000000000000000000000000000000000000000000000\n      dup2\n      mstore\n      0x04\n      add\n      tag_95\n      swap1\n      tag_45\n      jump\t// in\n    tag_95:\n      mload(0x40)\n      dup1\n      swap2\n      sub\n      swap1\n      revert\n    tag_94:\n        /* \"contracts/PrivateBank.sol\":2254:2263  msg.value */\n      callvalue\n        /* \"contracts/PrivateBank.sol\":2226:2230  user */\n      0x00\n        /* \"contracts/PrivateBank.sol\":2226:2242  user[msg.sender] */\n      dup1\n        /* \"contracts/PrivateBank.sol\":2231:2241  msg.sender */\n      caller\n        /* \"contracts/PrivateBank.sol\":2226:2242  user[msg.sender] */\n      0xffffffffffffffffffffffffffffffffffffffff\n      and\n      0xffffffffffffffffffffffffffffffffffffffff\n      and\n      dup2\n      mstore\n      0x20\n      add\n      swap1\n      dup2\n      mstore\n      0x20\n      add\n      0x00\n      keccak256\n        /* \"contracts/PrivateBank.sol\":2226:2250  user[msg.sender].balance */\n      0x01\n      add\n      0x00\n        /* \"contracts/PrivateBank.sol\":2226:2263  user[msg.sender].balance += msg.value */\n      dup3\n      dup3\n      sload\n      tag_97\n      swap2\n      swap1\n      tag_59\n      jump\t// in\n    tag_97:\n      swap3\n      pop\n      pop\n      dup2\n      swap1\n      sstore\n      pop\n        /* \"contracts/PrivateBank.sol\":2286:2296  msg.sender */\n      caller\n        /* \"contracts/PrivateBank.sol\":2278:2325  Deposit(msg.sender, msg.value, block.timestamp) */\n      0xffffffffffffffffffffffffffffffffffffffff\n      and\n      0x90890809c654f11d6e72a28fa60149770a0d11ec6c92319d6ceb2bb0a4ea1a15\n        /* \"contracts/PrivateBank.sol\":2298:2307  msg.value */\n      callvalue\n        /* \"contracts/PrivateBank.sol\":2309:2324  block.timestamp */\n      timestamp\n        /* \"contracts/PrivateBank.sol\":2278:2325  Deposit(msg.sender, msg.value, block.timestamp) */\n      mload(0x40)\n      tag_98\n      swap3\n      swap2\n      swap1\n      tag_63\n      jump\t// in\n    tag_98:\n      mload(0x40)\n      dup1\n      swap2\n      sub\n      swap1\n      log2\n        /* \"contracts/PrivateBank.sol\":2164:2332  function deposit()external payable OnlyAutorizedUser{... */\n      jump\t// out\n        /* \"contracts/PrivateBank.sol\":1529:1764  function addCustomer(address _newCustomer, uint256 _pin)... */\n    tag_41:\n        /* \"contracts/PrivateBank.sol\":1083:1088  owner */\n      immutable(\"0x880de8116b3dfac28e9ff528a9fef1d1e0a51449c1addce011ffec1f302992b6\")\n        /* \"contracts/PrivateBank.sol\":1069:1088  msg.sender == owner */\n      0xffffffffffffffffffffffffffffffffffffffff\n      and\n        /* \"contracts/PrivateBank.sol\":1069:1079  msg.sender */\n      caller\n        /* \"contracts/PrivateBank.sol\":1069:1088  msg.sender == owner */\n      0xffffffffffffffffffffffffffffffffffffffff\n      and\n      eq\n        /* \"contracts/PrivateBank.sol\":1061:1113  require(msg.sender == owner,\"you are not the owner\") */\n      tag_100\n      jumpi\n      mload(0x40)\n      0x08c379a000000000000000000000000000000000000000000000000000000000\n      dup2\n      mstore\n      0x04\n      add\n      tag_101\n      swap1\n      tag_91\n      jump\t// in\n    tag_101:\n      mload(0x40)\n      dup1\n      swap2\n      sub\n      swap1\n      revert\n    tag_100:\n        /* \"contracts/PrivateBank.sol\":1660:1672  _newCustomer */\n      dup2\n        /* \"contracts/PrivateBank.sol\":1628:1632  user */\n      0x00\n        /* \"contracts/PrivateBank.sol\":1628:1646  user[_newCustomer] */\n      dup1\n        /* \"contracts/PrivateBank.sol\":1633:1645  _newCustomer */\n      dup5\n        /* \"contracts/PrivateBank.sol\":1628:1646  user[_newCustomer] */\n      0xffffffffffffffffffffffffffffffffffffffff\n      and\n      0xffffffffffffffffffffffffffffffffffffffff\n      and\n      dup2\n      mstore\n      0x20\n      add\n      swap1\n      dup2\n      mstore\n      0x20\n      add\n      0x00\n      keccak256\n        /* \"contracts/PrivateBank.sol\":1628:1657  user[_newCustomer].walletUser */\n      0x00\n      add\n      0x00\n        /* \"contracts/PrivateBank.sol\":1628:1672  user[_newCustomer].walletUser = _newCustomer */\n      0x0100\n      exp\n      dup2\n      sload\n      dup2\n      0xffffffffffffffffffffffffffffffffffffffff\n      mul\n      not\n      and\n      swap1\n      dup4\n      0xffffffffffffffffffffffffffffffffffffffff\n      and\n      mul\n      or\n      swap1\n      sstore\n      pop\n        /* \"contracts/PrivateBank.sol\":1707:1711  _pin */\n      dup1\n        /* \"contracts/PrivateBank.sol\":1682:1686  user */\n      0x00\n        /* \"contracts/PrivateBank.sol\":1682:1700  user[_newCustomer] */\n      dup1\n        /* \"contracts/PrivateBank.sol\":1687:1699  _newCustomer */\n      dup5\n        /* \"contracts/PrivateBank.sol\":1682:1700  user[_newCustomer] */\n      0xffffffffffffffffffffffffffffffffffffffff\n      and\n      0xffffffffffffffffffffffffffffffffffffffff\n      and\n      dup2\n      mstore\n      0x20\n      add\n      swap1\n      dup2\n      mstore\n      0x20\n      add\n      0x00\n      keccak256\n        /* \"contracts/PrivateBank.sol\":1682:1704  user[_newCustomer].pin */\n      0x02\n      add\n        /* \"contracts/PrivateBank.sol\":1682:1711  user[_newCustomer].pin = _pin */\n      dup2\n      swap1\n      sstore\n      pop\n        /* \"contracts/PrivateBank.sol\":1753:1757  true */\n      0x01\n        /* \"contracts/PrivateBank.sol\":1721:1725  user */\n      0x00\n        /* \"contracts/PrivateBank.sol\":1721:1739  user[_newCustomer] */\n      dup1\n        /* \"contracts/PrivateBank.sol\":1726:1738  _newCustomer */\n      dup5\n        /* \"contracts/PrivateBank.sol\":1721:1739  user[_newCustomer] */\n      0xffffffffffffffffffffffffffffffffffffffff\n      and\n      0xffffffffffffffffffffffffffffffffffffffff\n      and\n      dup2\n      mstore\n      0x20\n      add\n      swap1\n      dup2\n      mstore\n      0x20\n      add\n      0x00\n      keccak256\n        /* \"contracts/PrivateBank.sol\":1721:1750  user[_newCustomer].isApproved */\n      0x03\n      add\n      0x00\n        /* \"contracts/PrivateBank.sol\":1721:1757  user[_newCustomer].isApproved = true */\n      0x0100\n      exp\n      dup2\n      sload\n      dup2\n      0xff\n      mul\n      not\n      and\n      swap1\n      dup4\n      iszero\n      iszero\n      mul\n      or\n      swap1\n      sstore\n      pop\n        /* \"contracts/PrivateBank.sol\":1529:1764  function addCustomer(address _newCustomer, uint256 _pin)... */\n      pop\n      pop\n      jump\t// out\n        /* \"#utility.yul\":88:205   */\n    tag_104:\n        /* \"#utility.yul\":197:198   */\n      0x00\n        /* \"#utility.yul\":194:195   */\n      dup1\n        /* \"#utility.yul\":187:199   */\n      revert\n        /* \"#utility.yul\":334:460   */\n    tag_106:\n        /* \"#utility.yul\":371:378   */\n      0x00\n        /* \"#utility.yul\":411:453   */\n      0xffffffffffffffffffffffffffffffffffffffff\n        /* \"#utility.yul\":404:409   */\n      dup3\n        /* \"#utility.yul\":400:454   */\n      and\n        /* \"#utility.yul\":389:454   */\n      swap1\n      pop\n        /* \"#utility.yul\":334:460   */\n      swap2\n      swap1\n      pop\n      jump\t// out\n        /* \"#utility.yul\":466:570   */\n    tag_107:\n        /* \"#utility.yul\":511:518   */\n      0x00\n        /* \"#utility.yul\":540:564   */\n      tag_138\n        /* \"#utility.yul\":558:563   */\n      dup3\n        /* \"#utility.yul\":540:564   */\n      tag_106\n      jump\t// in\n    tag_138:\n        /* \"#utility.yul\":529:564   */\n      swap1\n      pop\n        /* \"#utility.yul\":466:570   */\n      swap2\n      swap1\n      pop\n      jump\t// out\n        /* \"#utility.yul\":576:714   */\n    tag_108:\n        /* \"#utility.yul\":657:689   */\n      tag_140\n        /* \"#utility.yul\":683:688   */\n      dup2\n        /* \"#utility.yul\":657:689   */\n      tag_107\n      jump\t// in\n    tag_140:\n        /* \"#utility.yul\":650:655   */\n      dup2\n        /* \"#utility.yul\":647:690   */\n      eq\n        /* \"#utility.yul\":637:708   */\n      tag_141\n      jumpi\n        /* \"#utility.yul\":704:705   */\n      0x00\n        /* \"#utility.yul\":701:702   */\n      dup1\n        /* \"#utility.yul\":694:706   */\n      revert\n        /* \"#utility.yul\":637:708   */\n    tag_141:\n        /* \"#utility.yul\":576:714   */\n      pop\n      jump\t// out\n        /* \"#utility.yul\":720:875   */\n    tag_109:\n        /* \"#utility.yul\":774:779   */\n      0x00\n        /* \"#utility.yul\":812:818   */\n      dup2\n        /* \"#utility.yul\":799:819   */\n      calldataload\n        /* \"#utility.yul\":790:819   */\n      swap1\n      pop\n        /* \"#utility.yul\":828:869   */\n      tag_143\n        /* \"#utility.yul\":863:868   */\n      dup2\n        /* \"#utility.yul\":828:869   */\n      tag_108\n      jump\t// in\n    tag_143:\n        /* \"#utility.yul\":720:875   */\n      swap3\n      swap2\n      pop\n      pop\n      jump\t// out\n        /* \"#utility.yul\":881:958   */\n    tag_110:\n        /* \"#utility.yul\":918:925   */\n      0x00\n        /* \"#utility.yul\":947:952   */\n      dup2\n        /* \"#utility.yul\":936:952   */\n      swap1\n      pop\n        /* \"#utility.yul\":881:958   */\n      swap2\n      swap1\n      pop\n      jump\t// out\n        /* \"#utility.yul\":964:1086   */\n    tag_111:\n        /* \"#utility.yul\":1037:1061   */\n      tag_146\n        /* \"#utility.yul\":1055:1060   */\n      dup2\n        /* \"#utility.yul\":1037:1061   */\n      tag_110\n      jump\t// in\n    tag_146:\n        /* \"#utility.yul\":1030:1035   */\n      dup2\n        /* \"#utility.yul\":1027:1062   */\n      eq\n        /* \"#utility.yul\":1017:1080   */\n      tag_147\n      jumpi\n        /* \"#utility.yul\":1076:1077   */\n      0x00\n        /* \"#utility.yul\":1073:1074   */\n      dup1\n        /* \"#utility.yul\":1066:1078   */\n      revert\n        /* \"#utility.yul\":1017:1080   */\n    tag_147:\n        /* \"#utility.yul\":964:1086   */\n      pop\n      jump\t// out\n        /* \"#utility.yul\":1092:1231   */\n    tag_112:\n        /* \"#utility.yul\":1138:1143   */\n      0x00\n        /* \"#utility.yul\":1176:1182   */\n      dup2\n        /* \"#utility.yul\":1163:1183   */\n      calldataload\n        /* \"#utility.yul\":1154:1183   */\n      swap1\n      pop\n        /* \"#utility.yul\":1192:1225   */\n      tag_149\n        /* \"#utility.yul\":1219:1224   */\n      dup2\n        /* \"#utility.yul\":1192:1225   */\n      tag_111\n      jump\t// in\n    tag_149:\n        /* \"#utility.yul\":1092:1231   */\n      swap3\n      swap2\n      pop\n      pop\n      jump\t// out\n        /* \"#utility.yul\":1237:1872   */\n    tag_13:\n        /* \"#utility.yul\":1322:1328   */\n      0x00\n        /* \"#utility.yul\":1330:1336   */\n      dup1\n        /* \"#utility.yul\":1338:1344   */\n      0x00\n        /* \"#utility.yul\":1387:1389   */\n      0x60\n        /* \"#utility.yul\":1375:1384   */\n      dup5\n        /* \"#utility.yul\":1366:1373   */\n      dup7\n        /* \"#utility.yul\":1362:1385   */\n      sub\n        /* \"#utility.yul\":1358:1390   */\n      slt\n        /* \"#utility.yul\":1355:1474   */\n      iszero\n      tag_151\n      jumpi\n        /* \"#utility.yul\":1393:1472   */\n      tag_152\n      tag_104\n      jump\t// in\n    tag_152:\n        /* \"#utility.yul\":1355:1474   */\n    tag_151:\n        /* \"#utility.yul\":1513:1514   */\n      0x00\n        /* \"#utility.yul\":1538:1599   */\n      tag_153\n        /* \"#utility.yul\":1591:1598   */\n      dup7\n        /* \"#utility.yul\":1582:1588   */\n      dup3\n        /* \"#utility.yul\":1571:1580   */\n      dup8\n        /* \"#utility.yul\":1567:1589   */\n      add\n        /* \"#utility.yul\":1538:1599   */\n      tag_109\n      jump\t// in\n    tag_153:\n        /* \"#utility.yul\":1528:1599   */\n      swap4\n      pop\n        /* \"#utility.yul\":1484:1609   */\n      pop\n        /* \"#utility.yul\":1648:1650   */\n      0x20\n        /* \"#utility.yul\":1674:1727   */\n      tag_154\n        /* \"#utility.yul\":1719:1726   */\n      dup7\n        /* \"#utility.yul\":1710:1716   */\n      dup3\n        /* \"#utility.yul\":1699:1708   */\n      dup8\n        /* \"#utility.yul\":1695:1717   */\n      add\n        /* \"#utility.yul\":1674:1727   */\n      tag_112\n      jump\t// in\n    tag_154:\n        /* \"#utility.yul\":1664:1727   */\n      swap3\n      pop\n        /* \"#utility.yul\":1619:1737   */\n      pop\n        /* \"#utility.yul\":1776:1778   */\n      0x40\n        /* \"#utility.yul\":1802:1855   */\n      tag_155\n        /* \"#utility.yul\":1847:1854   */\n      dup7\n        /* \"#utility.yul\":1838:1844   */\n      dup3\n        /* \"#utility.yul\":1827:1836   */\n      dup8\n        /* \"#utility.yul\":1823:1845   */\n      add\n        /* \"#utility.yul\":1802:1855   */\n      tag_112\n      jump\t// in\n    tag_155:\n        /* \"#utility.yul\":1792:1855   */\n      swap2\n      pop\n        /* \"#utility.yul\":1747:1865   */\n      pop\n        /* \"#utility.yul\":1237:1872   */\n      swap3\n      pop\n      swap3\n      pop\n      swap3\n      jump\t// out\n        /* \"#utility.yul\":1878:2352   */\n    tag_18:\n        /* \"#utility.yul\":1946:1952   */\n      0x00\n        /* \"#utility.yul\":1954:1960   */\n      dup1\n        /* \"#utility.yul\":2003:2005   */\n      0x40\n        /* \"#utility.yul\":1991:2000   */\n      dup4\n        /* \"#utility.yul\":1982:1989   */\n      dup6\n        /* \"#utility.yul\":1978:2001   */\n      sub\n        /* \"#utility.yul\":1974:2006   */\n      slt\n        /* \"#utility.yul\":1971:2090   */\n      iszero\n      tag_157\n      jumpi\n        /* \"#utility.yul\":2009:2088   */\n      tag_158\n      tag_104\n      jump\t// in\n    tag_158:\n        /* \"#utility.yul\":1971:2090   */\n    tag_157:\n        /* \"#utility.yul\":2129:2130   */\n      0x00\n        /* \"#utility.yul\":2154:2207   */\n      tag_159\n        /* \"#utility.yul\":2199:2206   */\n      dup6\n        /* \"#utility.yul\":2190:2196   */\n      dup3\n        /* \"#utility.yul\":2179:2188   */\n      dup7\n        /* \"#utility.yul\":2175:2197   */\n      add\n        /* \"#utility.yul\":2154:2207   */\n      tag_112\n      jump\t// in\n    tag_159:\n        /* \"#utility.yul\":2144:2207   */\n      swap3\n      pop\n        /* \"#utility.yul\":2100:2217   */\n      pop\n        /* \"#utility.yul\":2256:2258   */\n      0x20\n        /* \"#utility.yul\":2282:2335   */\n      tag_160\n        /* \"#utility.yul\":2327:2334   */\n      dup6\n        /* \"#utility.yul\":2318:2324   */\n      dup3\n        /* \"#utility.yul\":2307:2316   */\n      dup7\n        /* \"#utility.yul\":2303:2325   */\n      add\n        /* \"#utility.yul\":2282:2335   */\n      tag_112\n      jump\t// in\n    tag_160:\n        /* \"#utility.yul\":2272:2335   */\n      swap2\n      pop\n        /* \"#utility.yul\":2227:2345   */\n      pop\n        /* \"#utility.yul\":1878:2352   */\n      swap3\n      pop\n      swap3\n      swap1\n      pop\n      jump\t// out\n        /* \"#utility.yul\":2358:2476   */\n    tag_113:\n        /* \"#utility.yul\":2445:2469   */\n      tag_162\n        /* \"#utility.yul\":2463:2468   */\n      dup2\n        /* \"#utility.yul\":2445:2469   */\n      tag_110\n      jump\t// in\n    tag_162:\n        /* \"#utility.yul\":2440:2443   */\n      dup3\n        /* \"#utility.yul\":2433:2470   */\n      mstore\n        /* \"#utility.yul\":2358:2476   */\n      pop\n      pop\n      jump\t// out\n        /* \"#utility.yul\":2482:2704   */\n    tag_24:\n        /* \"#utility.yul\":2575:2579   */\n      0x00\n        /* \"#utility.yul\":2613:2615   */\n      0x20\n        /* \"#utility.yul\":2602:2611   */\n      dup3\n        /* \"#utility.yul\":2598:2616   */\n      add\n        /* \"#utility.yul\":2590:2616   */\n      swap1\n      pop\n        /* \"#utility.yul\":2626:2697   */\n      tag_164\n        /* \"#utility.yul\":2694:2695   */\n      0x00\n        /* \"#utility.yul\":2683:2692   */\n      dup4\n        /* \"#utility.yul\":2679:2696   */\n      add\n        /* \"#utility.yul\":2670:2676   */\n      dup5\n        /* \"#utility.yul\":2626:2697   */\n      tag_113\n      jump\t// in\n    tag_164:\n        /* \"#utility.yul\":2482:2704   */\n      swap3\n      swap2\n      pop\n      pop\n      jump\t// out\n        /* \"#utility.yul\":2710:3039   */\n    tag_28:\n        /* \"#utility.yul\":2769:2775   */\n      0x00\n        /* \"#utility.yul\":2818:2820   */\n      0x20\n        /* \"#utility.yul\":2806:2815   */\n      dup3\n        /* \"#utility.yul\":2797:2804   */\n      dup5\n        /* \"#utility.yul\":2793:2816   */\n      sub\n        /* \"#utility.yul\":2789:2821   */\n      slt\n        /* \"#utility.yul\":2786:2905   */\n      iszero\n      tag_166\n      jumpi\n        /* \"#utility.yul\":2824:2903   */\n      tag_167\n      tag_104\n      jump\t// in\n    tag_167:\n        /* \"#utility.yul\":2786:2905   */\n    tag_166:\n        /* \"#utility.yul\":2944:2945   */\n      0x00\n        /* \"#utility.yul\":2969:3022   */\n      tag_168\n        /* \"#utility.yul\":3014:3021   */\n      dup5\n        /* \"#utility.yul\":3005:3011   */\n      dup3\n        /* \"#utility.yul\":2994:3003   */\n      dup6\n        /* \"#utility.yul\":2990:3012   */\n      add\n        /* \"#utility.yul\":2969:3022   */\n      tag_112\n      jump\t// in\n    tag_168:\n        /* \"#utility.yul\":2959:3022   */\n      swap2\n      pop\n        /* \"#utility.yul\":2915:3032   */\n      pop\n        /* \"#utility.yul\":2710:3039   */\n      swap3\n      swap2\n      pop\n      pop\n      jump\t// out\n        /* \"#utility.yul\":3045:3141   */\n    tag_114:\n        /* \"#utility.yul\":3082:3089   */\n      0x00\n        /* \"#utility.yul\":3111:3135   */\n      tag_170\n        /* \"#utility.yul\":3129:3134   */\n      dup3\n        /* \"#utility.yul\":3111:3135   */\n      tag_106\n      jump\t// in\n    tag_170:\n        /* \"#utility.yul\":3100:3135   */\n      swap1\n      pop\n        /* \"#utility.yul\":3045:3141   */\n      swap2\n      swap1\n      pop\n      jump\t// out\n        /* \"#utility.yul\":3147:3269   */\n    tag_115:\n        /* \"#utility.yul\":3220:3244   */\n      tag_172\n        /* \"#utility.yul\":3238:3243   */\n      dup2\n        /* \"#utility.yul\":3220:3244   */\n      tag_114\n      jump\t// in\n    tag_172:\n        /* \"#utility.yul\":3213:3218   */\n      dup2\n        /* \"#utility.yul\":3210:3245   */\n      eq\n        /* \"#utility.yul\":3200:3263   */\n      tag_173\n      jumpi\n        /* \"#utility.yul\":3259:3260   */\n      0x00\n        /* \"#utility.yul\":3256:3257   */\n      dup1\n        /* \"#utility.yul\":3249:3261   */\n      revert\n        /* \"#utility.yul\":3200:3263   */\n    tag_173:\n        /* \"#utility.yul\":3147:3269   */\n      pop\n      jump\t// out\n        /* \"#utility.yul\":3275:3414   */\n    tag_116:\n        /* \"#utility.yul\":3321:3326   */\n      0x00\n        /* \"#utility.yul\":3359:3365   */\n      dup2\n        /* \"#utility.yul\":3346:3366   */\n      calldataload\n        /* \"#utility.yul\":3337:3366   */\n      swap1\n      pop\n        /* \"#utility.yul\":3375:3408   */\n      tag_175\n        /* \"#utility.yul\":3402:3407   */\n      dup2\n        /* \"#utility.yul\":3375:3408   */\n      tag_115\n      jump\t// in\n    tag_175:\n        /* \"#utility.yul\":3275:3414   */\n      swap3\n      swap2\n      pop\n      pop\n      jump\t// out\n        /* \"#utility.yul\":3420:3749   */\n    tag_33:\n        /* \"#utility.yul\":3479:3485   */\n      0x00\n        /* \"#utility.yul\":3528:3530   */\n      0x20\n        /* \"#utility.yul\":3516:3525   */\n      dup3\n        /* \"#utility.yul\":3507:3514   */\n      dup5\n        /* \"#utility.yul\":3503:3526   */\n      sub\n        /* \"#utility.yul\":3499:3531   */\n      slt\n        /* \"#utility.yul\":3496:3615   */\n      iszero\n      tag_177\n      jumpi\n        /* \"#utility.yul\":3534:3613   */\n      tag_178\n      tag_104\n      jump\t// in\n    tag_178:\n        /* \"#utility.yul\":3496:3615   */\n    tag_177:\n        /* \"#utility.yul\":3654:3655   */\n      0x00\n        /* \"#utility.yul\":3679:3732   */\n      tag_179\n        /* \"#utility.yul\":3724:3731   */\n      dup5\n        /* \"#utility.yul\":3715:3721   */\n      dup3\n        /* \"#utility.yul\":3704:3713   */\n      dup6\n        /* \"#utility.yul\":3700:3722   */\n      add\n        /* \"#utility.yul\":3679:3732   */\n      tag_116\n      jump\t// in\n    tag_179:\n        /* \"#utility.yul\":3669:3732   */\n      swap2\n      pop\n        /* \"#utility.yul\":3625:3742   */\n      pop\n        /* \"#utility.yul\":3420:3749   */\n      swap3\n      swap2\n      pop\n      pop\n      jump\t// out\n        /* \"#utility.yul\":3755:4229   */\n    tag_40:\n        /* \"#utility.yul\":3823:3829   */\n      0x00\n        /* \"#utility.yul\":3831:3837   */\n      dup1\n        /* \"#utility.yul\":3880:3882   */\n      0x40\n        /* \"#utility.yul\":3868:3877   */\n      dup4\n        /* \"#utility.yul\":3859:3866   */\n      dup6\n        /* \"#utility.yul\":3855:3878   */\n      sub\n        /* \"#utility.yul\":3851:3883   */\n      slt\n        /* \"#utility.yul\":3848:3967   */\n      iszero\n      tag_181\n      jumpi\n        /* \"#utility.yul\":3886:3965   */\n      tag_182\n      tag_104\n      jump\t// in\n    tag_182:\n        /* \"#utility.yul\":3848:3967   */\n    tag_181:\n        /* \"#utility.yul\":4006:4007   */\n      0x00\n        /* \"#utility.yul\":4031:4084   */\n      tag_183\n        /* \"#utility.yul\":4076:4083   */\n      dup6\n        /* \"#utility.yul\":4067:4073   */\n      dup3\n        /* \"#utility.yul\":4056:4065   */\n      dup7\n        /* \"#utility.yul\":4052:4074   */\n      add\n        /* \"#utility.yul\":4031:4084   */\n      tag_116\n      jump\t// in\n    tag_183:\n        /* \"#utility.yul\":4021:4084   */\n      swap3\n      pop\n        /* \"#utility.yul\":3977:4094   */\n      pop\n        /* \"#utility.yul\":4133:4135   */\n      0x20\n        /* \"#utility.yul\":4159:4212   */\n      tag_184\n        /* \"#utility.yul\":4204:4211   */\n      dup6\n        /* \"#utility.yul\":4195:4201   */\n      dup3\n        /* \"#utility.yul\":4184:4193   */\n      dup7\n        /* \"#utility.yul\":4180:4202   */\n      add\n        /* \"#utility.yul\":4159:4212   */\n      tag_112\n      jump\t// in\n    tag_184:\n        /* \"#utility.yul\":4149:4212   */\n      swap2\n      pop\n        /* \"#utility.yul\":4104:4222   */\n      pop\n        /* \"#utility.yul\":3755:4229   */\n      swap3\n      pop\n      swap3\n      swap1\n      pop\n      jump\t// out\n        /* \"#utility.yul\":4235:4404   */\n    tag_117:\n        /* \"#utility.yul\":4319:4330   */\n      0x00\n        /* \"#utility.yul\":4353:4359   */\n      dup3\n        /* \"#utility.yul\":4348:4351   */\n      dup3\n        /* \"#utility.yul\":4341:4360   */\n      mstore\n        /* \"#utility.yul\":4393:4397   */\n      0x20\n        /* \"#utility.yul\":4388:4391   */\n      dup3\n        /* \"#utility.yul\":4384:4398   */\n      add\n        /* \"#utility.yul\":4369:4398   */\n      swap1\n      pop\n        /* \"#utility.yul\":4235:4404   */\n      swap3\n      swap2\n      pop\n      pop\n      jump\t// out\n        /* \"#utility.yul\":4410:4584   */\n    tag_118:\n        /* \"#utility.yul\":4550:4576   */\n      0x796f7520617265206e6f74206f757220637573746f6d65720000000000000000\n        /* \"#utility.yul\":4546:4547   */\n      0x00\n        /* \"#utility.yul\":4538:4544   */\n      dup3\n        /* \"#utility.yul\":4534:4548   */\n      add\n        /* \"#utility.yul\":4527:4577   */\n      mstore\n        /* \"#utility.yul\":4410:4584   */\n      pop\n      jump\t// out\n        /* \"#utility.yul\":4590:4956   */\n    tag_119:\n        /* \"#utility.yul\":4732:4735   */\n      0x00\n        /* \"#utility.yul\":4753:4820   */\n      tag_188\n        /* \"#utility.yul\":4817:4819   */\n      0x18\n        /* \"#utility.yul\":4812:4815   */\n      dup4\n        /* \"#utility.yul\":4753:4820   */\n      tag_117\n      jump\t// in\n    tag_188:\n        /* \"#utility.yul\":4746:4820   */\n      swap2\n      pop\n        /* \"#utility.yul\":4829:4922   */\n      tag_189\n        /* \"#utility.yul\":4918:4921   */\n      dup3\n        /* \"#utility.yul\":4829:4922   */\n      tag_118\n      jump\t// in\n    tag_189:\n        /* \"#utility.yul\":4947:4949   */\n      0x20\n        /* \"#utility.yul\":4942:4945   */\n      dup3\n        /* \"#utility.yul\":4938:4950   */\n      add\n        /* \"#utility.yul\":4931:4950   */\n      swap1\n      pop\n        /* \"#utility.yul\":4590:4956   */\n      swap2\n      swap1\n      pop\n      jump\t// out\n        /* \"#utility.yul\":4962:5381   */\n    tag_45:\n        /* \"#utility.yul\":5128:5132   */\n      0x00\n        /* \"#utility.yul\":5166:5168   */\n      0x20\n        /* \"#utility.yul\":5155:5164   */\n      dup3\n        /* \"#utility.yul\":5151:5169   */\n      add\n        /* \"#utility.yul\":5143:5169   */\n      swap1\n      pop\n        /* \"#utility.yul\":5215:5224   */\n      dup2\n        /* \"#utility.yul\":5209:5213   */\n      dup2\n        /* \"#utility.yul\":5205:5225   */\n      sub\n        /* \"#utility.yul\":5201:5202   */\n      0x00\n        /* \"#utility.yul\":5190:5199   */\n      dup4\n        /* \"#utility.yul\":5186:5203   */\n      add\n        /* \"#utility.yul\":5179:5226   */\n      mstore\n        /* \"#utility.yul\":5243:5374   */\n      tag_191\n        /* \"#utility.yul\":5369:5373   */\n      dup2\n        /* \"#utility.yul\":5243:5374   */\n      tag_119\n      jump\t// in\n    tag_191:\n        /* \"#utility.yul\":5235:5374   */\n      swap1\n      pop\n        /* \"#utility.yul\":4962:5381   */\n      swap2\n      swap1\n      pop\n      jump\t// out\n        /* \"#utility.yul\":5387:5557   */\n    tag_120:\n        /* \"#utility.yul\":5527:5549   */\n      0x696e73756666696369656e742062616c616e6365000000000000000000000000\n        /* \"#utility.yul\":5523:5524   */\n      0x00\n        /* \"#utility.yul\":5515:5521   */\n      dup3\n        /* \"#utility.yul\":5511:5525   */\n      add\n        /* \"#utility.yul\":5504:5550   */\n      mstore\n        /* \"#utility.yul\":5387:5557   */\n      pop\n      jump\t// out\n        /* \"#utility.yul\":5563:5929   */\n    tag_121:\n        /* \"#utility.yul\":5705:5708   */\n      0x00\n        /* \"#utility.yul\":5726:5793   */\n      tag_194\n        /* \"#utility.yul\":5790:5792   */\n      0x14\n        /* \"#utility.yul\":5785:5788   */\n      dup4\n        /* \"#utility.yul\":5726:5793   */\n      tag_117\n      jump\t// in\n    tag_194:\n        /* \"#utility.yul\":5719:5793   */\n      swap2\n      pop\n        /* \"#utility.yul\":5802:5895   */\n      tag_195\n        /* \"#utility.yul\":5891:5894   */\n      dup3\n        /* \"#utility.yul\":5802:5895   */\n      tag_120\n      jump\t// in\n    tag_195:\n        /* \"#utility.yul\":5920:5922   */\n      0x20\n        /* \"#utility.yul\":5915:5918   */\n      dup3\n        /* \"#utility.yul\":5911:5923   */\n      add\n        /* \"#utility.yul\":5904:5923   */\n      swap1\n      pop\n        /* \"#utility.yul\":5563:5929   */\n      swap2\n      swap1\n      pop\n      jump\t// out\n        /* \"#utility.yul\":5935:6354   */\n    tag_49:\n        /* \"#utility.yul\":6101:6105   */\n      0x00\n        /* \"#utility.yul\":6139:6141   */\n      0x20\n        /* \"#utility.yul\":6128:6137   */\n      dup3\n        /* \"#utility.yul\":6124:6142   */\n      add\n        /* \"#utility.yul\":6116:6142   */\n      swap1\n      pop\n        /* \"#utility.yul\":6188:6197   */\n      dup2\n        /* \"#utility.yul\":6182:6186   */\n      dup2\n        /* \"#utility.yul\":6178:6198   */\n      sub\n        /* \"#utility.yul\":6174:6175   */\n      0x00\n        /* \"#utility.yul\":6163:6172   */\n      dup4\n        /* \"#utility.yul\":6159:6176   */\n      add\n        /* \"#utility.yul\":6152:6199   */\n      mstore\n        /* \"#utility.yul\":6216:6347   */\n      tag_197\n        /* \"#utility.yul\":6342:6346   */\n      dup2\n        /* \"#utility.yul\":6216:6347   */\n      tag_121\n      jump\t// in\n    tag_197:\n        /* \"#utility.yul\":6208:6347   */\n      swap1\n      pop\n        /* \"#utility.yul\":5935:6354   */\n      swap2\n      swap1\n      pop\n      jump\t// out\n        /* \"#utility.yul\":6360:6522   */\n    tag_122:\n        /* \"#utility.yul\":6500:6514   */\n      0x70696e2069732077726f6e670000000000000000000000000000000000000000\n        /* \"#utility.yul\":6496:6497   */\n      0x00\n        /* \"#utility.yul\":6488:6494   */\n      dup3\n        /* \"#utility.yul\":6484:6498   */\n      add\n        /* \"#utility.yul\":6477:6515   */\n      mstore\n        /* \"#utility.yul\":6360:6522   */\n      pop\n      jump\t// out\n        /* \"#utility.yul\":6528:6894   */\n    tag_123:\n        /* \"#utility.yul\":6670:6673   */\n      0x00\n        /* \"#utility.yul\":6691:6758   */\n      tag_200\n        /* \"#utility.yul\":6755:6757   */\n      0x0c\n        /* \"#utility.yul\":6750:6753   */\n      dup4\n        /* \"#utility.yul\":6691:6758   */\n      tag_117\n      jump\t// in\n    tag_200:\n        /* \"#utility.yul\":6684:6758   */\n      swap2\n      pop\n        /* \"#utility.yul\":6767:6860   */\n      tag_201\n        /* \"#utility.yul\":6856:6859   */\n      dup3\n        /* \"#utility.yul\":6767:6860   */\n      tag_122\n      jump\t// in\n    tag_201:\n        /* \"#utility.yul\":6885:6887   */\n      0x20\n        /* \"#utility.yul\":6880:6883   */\n      dup3\n        /* \"#utility.yul\":6876:6888   */\n      add\n        /* \"#utility.yul\":6869:6888   */\n      swap1\n      pop\n        /* \"#utility.yul\":6528:6894   */\n      swap2\n      swap1\n      pop\n      jump\t// out\n        /* \"#utility.yul\":6900:7319   */\n    tag_53:\n        /* \"#utility.yul\":7066:7070   */\n      0x00\n        /* \"#utility.yul\":7104:7106   */\n      0x20\n        /* \"#utility.yul\":7093:7102   */\n      dup3\n        /* \"#utility.yul\":7089:7107   */\n      add\n        /* \"#utility.yul\":7081:7107   */\n      swap1\n      pop\n        /* \"#utility.yul\":7153:7162   */\n      dup2\n        /* \"#utility.yul\":7147:7151   */\n      dup2\n        /* \"#utility.yul\":7143:7163   */\n      sub\n        /* \"#utility.yul\":7139:7140   */\n      0x00\n        /* \"#utility.yul\":7128:7137   */\n      dup4\n        /* \"#utility.yul\":7124:7141   */\n      add\n        /* \"#utility.yul\":7117:7164   */\n      mstore\n        /* \"#utility.yul\":7181:7312   */\n      tag_203\n        /* \"#utility.yul\":7307:7311   */\n      dup2\n        /* \"#utility.yul\":7181:7312   */\n      tag_123\n      jump\t// in\n    tag_203:\n        /* \"#utility.yul\":7173:7312   */\n      swap1\n      pop\n        /* \"#utility.yul\":6900:7319   */\n      swap2\n      swap1\n      pop\n      jump\t// out\n        /* \"#utility.yul\":7325:7505   */\n    tag_124:\n        /* \"#utility.yul\":7373:7450   */\n      0x4e487b7100000000000000000000000000000000000000000000000000000000\n        /* \"#utility.yul\":7370:7371   */\n      0x00\n        /* \"#utility.yul\":7363:7451   */\n      mstore\n        /* \"#utility.yul\":7470:7474   */\n      0x11\n        /* \"#utility.yul\":7467:7468   */\n      0x04\n        /* \"#utility.yul\":7460:7475   */\n      mstore\n        /* \"#utility.yul\":7494:7498   */\n      0x24\n        /* \"#utility.yul\":7491:7492   */\n      0x00\n        /* \"#utility.yul\":7484:7499   */\n      revert\n        /* \"#utility.yul\":7511:7705   */\n    tag_56:\n        /* \"#utility.yul\":7551:7555   */\n      0x00\n        /* \"#utility.yul\":7571:7591   */\n      tag_206\n        /* \"#utility.yul\":7589:7590   */\n      dup3\n        /* \"#utility.yul\":7571:7591   */\n      tag_110\n      jump\t// in\n    tag_206:\n        /* \"#utility.yul\":7566:7591   */\n      swap2\n      pop\n        /* \"#utility.yul\":7605:7625   */\n      tag_207\n        /* \"#utility.yul\":7623:7624   */\n      dup4\n        /* \"#utility.yul\":7605:7625   */\n      tag_110\n      jump\t// in\n    tag_207:\n        /* \"#utility.yul\":7600:7625   */\n      swap3\n      pop\n        /* \"#utility.yul\":7649:7650   */\n      dup3\n        /* \"#utility.yul\":7646:7647   */\n      dup3\n        /* \"#utility.yul\":7642:7651   */\n      sub\n        /* \"#utility.yul\":7634:7651   */\n      swap1\n      pop\n        /* \"#utility.yul\":7673:7674   */\n      dup2\n        /* \"#utility.yul\":7667:7671   */\n      dup2\n        /* \"#utility.yul\":7664:7675   */\n      gt\n        /* \"#utility.yul\":7661:7698   */\n      iszero\n      tag_208\n      jumpi\n        /* \"#utility.yul\":7678:7696   */\n      tag_209\n      tag_124\n      jump\t// in\n    tag_209:\n        /* \"#utility.yul\":7661:7698   */\n    tag_208:\n        /* \"#utility.yul\":7511:7705   */\n      swap3\n      swap2\n      pop\n      pop\n      jump\t// out\n        /* \"#utility.yul\":7711:7902   */\n    tag_59:\n        /* \"#utility.yul\":7751:7754   */\n      0x00\n        /* \"#utility.yul\":7770:7790   */\n      tag_211\n        /* \"#utility.yul\":7788:7789   */\n      dup3\n        /* \"#utility.yul\":7770:7790   */\n      tag_110\n      jump\t// in\n    tag_211:\n        /* \"#utility.yul\":7765:7790   */\n      swap2\n      pop\n        /* \"#utility.yul\":7804:7824   */\n      tag_212\n        /* \"#utility.yul\":7822:7823   */\n      dup4\n        /* \"#utility.yul\":7804:7824   */\n      tag_110\n      jump\t// in\n    tag_212:\n        /* \"#utility.yul\":7799:7824   */\n      swap3\n      pop\n        /* \"#utility.yul\":7847:7848   */\n      dup3\n        /* \"#utility.yul\":7844:7845   */\n      dup3\n        /* \"#utility.yul\":7840:7849   */\n      add\n        /* \"#utility.yul\":7833:7849   */\n      swap1\n      pop\n        /* \"#utility.yul\":7868:7871   */\n      dup1\n        /* \"#utility.yul\":7865:7866   */\n      dup3\n        /* \"#utility.yul\":7862:7872   */\n      gt\n        /* \"#utility.yul\":7859:7895   */\n      iszero\n      tag_213\n      jumpi\n        /* \"#utility.yul\":7875:7893   */\n      tag_214\n      tag_124\n      jump\t// in\n    tag_214:\n        /* \"#utility.yul\":7859:7895   */\n    tag_213:\n        /* \"#utility.yul\":7711:7902   */\n      swap3\n      swap2\n      pop\n      pop\n      jump\t// out\n        /* \"#utility.yul\":7908:8240   */\n    tag_63:\n        /* \"#utility.yul\":8029:8033   */\n      0x00\n        /* \"#utility.yul\":8067:8069   */\n      0x40\n        /* \"#utility.yul\":8056:8065   */\n      dup3\n        /* \"#utility.yul\":8052:8070   */\n      add\n        /* \"#utility.yul\":8044:8070   */\n      swap1\n      pop\n        /* \"#utility.yul\":8080:8151   */\n      tag_216\n        /* \"#utility.yul\":8148:8149   */\n      0x00\n        /* \"#utility.yul\":8137:8146   */\n      dup4\n        /* \"#utility.yul\":8133:8150   */\n      add\n        /* \"#utility.yul\":8124:8130   */\n      dup6\n        /* \"#utility.yul\":8080:8151   */\n      tag_113\n      jump\t// in\n    tag_216:\n        /* \"#utility.yul\":8161:8233   */\n      tag_217\n        /* \"#utility.yul\":8229:8231   */\n      0x20\n        /* \"#utility.yul\":8218:8227   */\n      dup4\n        /* \"#utility.yul\":8214:8232   */\n      add\n        /* \"#utility.yul\":8205:8211   */\n      dup5\n        /* \"#utility.yul\":8161:8233   */\n      tag_113\n      jump\t// in\n    tag_217:\n        /* \"#utility.yul\":7908:8240   */\n      swap4\n      swap3\n      pop\n      pop\n      pop\n      jump\t// out\n        /* \"#utility.yul\":8246:8393   */\n    tag_125:\n        /* \"#utility.yul\":8347:8358   */\n      0x00\n        /* \"#utility.yul\":8384:8387   */\n      dup2\n        /* \"#utility.yul\":8369:8387   */\n      swap1\n      pop\n        /* \"#utility.yul\":8246:8393   */\n      swap3\n      swap2\n      pop\n      pop\n      jump\t// out\n        /* \"#utility.yul\":8399:8513   */\n    tag_126:\n      pop\n      jump\t// out\n        /* \"#utility.yul\":8519:8917   */\n    tag_127:\n        /* \"#utility.yul\":8678:8681   */\n      0x00\n        /* \"#utility.yul\":8699:8782   */\n      tag_221\n        /* \"#utility.yul\":8780:8781   */\n      0x00\n        /* \"#utility.yul\":8775:8778   */\n      dup4\n        /* \"#utility.yul\":8699:8782   */\n      tag_125\n      jump\t// in\n    tag_221:\n        /* \"#utility.yul\":8692:8782   */\n      swap2\n      pop\n        /* \"#utility.yul\":8791:8884   */\n      tag_222\n        /* \"#utility.yul\":8880:8883   */\n      dup3\n        /* \"#utility.yul\":8791:8884   */\n      tag_126\n      jump\t// in\n    tag_222:\n        /* \"#utility.yul\":8909:8910   */\n      0x00\n        /* \"#utility.yul\":8904:8907   */\n      dup3\n        /* \"#utility.yul\":8900:8911   */\n      add\n        /* \"#utility.yul\":8893:8911   */\n      swap1\n      pop\n        /* \"#utility.yul\":8519:8917   */\n      swap2\n      swap1\n      pop\n      jump\t// out\n        /* \"#utility.yul\":8923:9302   */\n    tag_78:\n        /* \"#utility.yul\":9107:9110   */\n      0x00\n        /* \"#utility.yul\":9129:9276   */\n      tag_224\n        /* \"#utility.yul\":9272:9275   */\n      dup3\n        /* \"#utility.yul\":9129:9276   */\n      tag_127\n      jump\t// in\n    tag_224:\n        /* \"#utility.yul\":9122:9276   */\n      swap2\n      pop\n        /* \"#utility.yul\":9293:9296   */\n      dup2\n        /* \"#utility.yul\":9286:9296   */\n      swap1\n      pop\n        /* \"#utility.yul\":8923:9302   */\n      swap2\n      swap1\n      pop\n      jump\t// out\n        /* \"#utility.yul\":9308:9473   */\n    tag_128:\n        /* \"#utility.yul\":9448:9465   */\n      0x7472616e73666572206661696c65640000000000000000000000000000000000\n        /* \"#utility.yul\":9444:9445   */\n      0x00\n        /* \"#utility.yul\":9436:9442   */\n      dup3\n        /* \"#utility.yul\":9432:9446   */\n      add\n        /* \"#utility.yul\":9425:9466   */\n      mstore\n        /* \"#utility.yul\":9308:9473   */\n      pop\n      jump\t// out\n        /* \"#utility.yul\":9479:9845   */\n    tag_129:\n        /* \"#utility.yul\":9621:9624   */\n      0x00\n        /* \"#utility.yul\":9642:9709   */\n      tag_227\n        /* \"#utility.yul\":9706:9708   */\n      0x0f\n        /* \"#utility.yul\":9701:9704   */\n      dup4\n        /* \"#utility.yul\":9642:9709   */\n      tag_117\n      jump\t// in\n    tag_227:\n        /* \"#utility.yul\":9635:9709   */\n      swap2\n      pop\n        /* \"#utility.yul\":9718:9811   */\n      tag_228\n        /* \"#utility.yul\":9807:9810   */\n      dup3\n        /* \"#utility.yul\":9718:9811   */\n      tag_128\n      jump\t// in\n    tag_228:\n        /* \"#utility.yul\":9836:9838   */\n      0x20\n        /* \"#utility.yul\":9831:9834   */\n      dup3\n        /* \"#utility.yul\":9827:9839   */\n      add\n        /* \"#utility.yul\":9820:9839   */\n      swap1\n      pop\n        /* \"#utility.yul\":9479:9845   */\n      swap2\n      swap1\n      pop\n      jump\t// out\n        /* \"#utility.yul\":9851:10270   */\n    tag_84:\n        /* \"#utility.yul\":10017:10021   */\n      0x00\n        /* \"#utility.yul\":10055:10057   */\n      0x20\n        /* \"#utility.yul\":10044:10053   */\n      dup3\n        /* \"#utility.yul\":10040:10058   */\n      add\n        /* \"#utility.yul\":10032:10058   */\n      swap1\n      pop\n        /* \"#utility.yul\":10104:10113   */\n      dup2\n        /* \"#utility.yul\":10098:10102   */\n      dup2\n        /* \"#utility.yul\":10094:10114   */\n      sub\n        /* \"#utility.yul\":10090:10091   */\n      0x00\n        /* \"#utility.yul\":10079:10088   */\n      dup4\n        /* \"#utility.yul\":10075:10092   */\n      add\n        /* \"#utility.yul\":10068:10115   */\n      mstore\n        /* \"#utility.yul\":10132:10263   */\n      tag_230\n        /* \"#utility.yul\":10258:10262   */\n      dup2\n        /* \"#utility.yul\":10132:10263   */\n      tag_129\n      jump\t// in\n    tag_230:\n        /* \"#utility.yul\":10124:10263   */\n      swap1\n      pop\n        /* \"#utility.yul\":9851:10270   */\n      swap2\n      swap1\n      pop\n      jump\t// out\n        /* \"#utility.yul\":10276:10447   */\n    tag_130:\n        /* \"#utility.yul\":10416:10439   */\n      0x796f7520617265206e6f7420746865206f776e65720000000000000000000000\n        /* \"#utility.yul\":10412:10413   */\n      0x00\n        /* \"#utility.yul\":10404:10410   */\n      dup3\n        /* \"#utility.yul\":10400:10414   */\n      add\n        /* \"#utility.yul\":10393:10440   */\n      mstore\n        /* \"#utility.yul\":10276:10447   */\n      pop\n      jump\t// out\n        /* \"#utility.yul\":10453:10819   */\n    tag_131:\n        /* \"#utility.yul\":10595:10598   */\n      0x00\n        /* \"#utility.yul\":10616:10683   */\n      tag_233\n        /* \"#utility.yul\":10680:10682   */\n      0x15\n        /* \"#utility.yul\":10675:10678   */\n      dup4\n        /* \"#utility.yul\":10616:10683   */\n      tag_117\n      jump\t// in\n    tag_233:\n        /* \"#utility.yul\":10609:10683   */\n      swap2\n      pop\n        /* \"#utility.yul\":10692:10785   */\n      tag_234\n        /* \"#utility.yul\":10781:10784   */\n      dup3\n        /* \"#utility.yul\":10692:10785   */\n      tag_130\n      jump\t// in\n    tag_234:\n        /* \"#utility.yul\":10810:10812   */\n      0x20\n        /* \"#utility.yul\":10805:10808   */\n      dup3\n        /* \"#utility.yul\":10801:10813   */\n      add\n        /* \"#utility.yul\":10794:10813   */\n      swap1\n      pop\n        /* \"#utility.yul\":10453:10819   */\n      swap2\n      swap1\n      pop\n      jump\t// out\n        /* \"#utility.yul\":10825:11244   */\n    tag_91:\n        /* \"#utility.yul\":10991:10995   */\n      0x00\n        /* \"#utility.yul\":11029:11031   */\n      0x20\n        /* \"#utility.yul\":11018:11027   */\n      dup3\n        /* \"#utility.yul\":11014:11032   */\n      add\n        /* \"#utility.yul\":11006:11032   */\n      swap1\n      pop\n        /* \"#utility.yul\":11078:11087   */\n      dup2\n        /* \"#utility.yul\":11072:11076   */\n      dup2\n        /* \"#utility.yul\":11068:11088   */\n      sub\n        /* \"#utility.yul\":11064:11065   */\n      0x00\n        /* \"#utility.yul\":11053:11062   */\n      dup4\n        /* \"#utility.yul\":11049:11066   */\n      add\n        /* \"#utility.yul\":11042:11089   */\n      mstore\n        /* \"#utility.yul\":11106:11237   */\n      tag_236\n        /* \"#utility.yul\":11232:11236   */\n      dup2\n        /* \"#utility.yul\":11106:11237   */\n      tag_131\n      jump\t// in\n    tag_236:\n        /* \"#utility.yul\":11098:11237   */\n      swap1\n      pop\n        /* \"#utility.yul\":10825:11244   */\n      swap2\n      swap1\n      pop\n      jump\t// out\n\n    auxdata: 0xa26469706673582212205608e66ede6240beb46e7071f2e1c88e9da8ad40fe94eca0d38892546a06466564736f6c634300081a0033\n}\n",
				"bytecode": {
					"linkReferences": {},
					"object": "60c060405234801561000f575f80fd5b506040516115b43803806115b483398181016040528101906100319190610207565b3373ffffffffffffffffffffffffffffffffffffffff1660808173ffffffffffffffffffffffffffffffffffffffff16815250506103e860a08181525050335f803373ffffffffffffffffffffffffffffffffffffffff1673ffffffffffffffffffffffffffffffffffffffff1681526020019081526020015f205f015f6101000a81548173ffffffffffffffffffffffffffffffffffffffff021916908373ffffffffffffffffffffffffffffffffffffffff16021790555060015f803373ffffffffffffffffffffffffffffffffffffffff1673ffffffffffffffffffffffffffffffffffffffff1681526020019081526020015f206003015f6101000a81548160ff021916908315150217905550805f803373ffffffffffffffffffffffffffffffffffffffff1673ffffffffffffffffffffffffffffffffffffffff1681526020019081526020015f2060020181905550425f803373ffffffffffffffffffffffffffffffffffffffff1673ffffffffffffffffffffffffffffffffffffffff1681526020019081526020015f206004018190555050610232565b5f80fd5b5f819050919050565b6101e6816101d4565b81146101f0575f80fd5b50565b5f81519050610201816101dd565b92915050565b5f6020828403121561021c5761021b6101d0565b5b5f610229848285016101f3565b91505092915050565b60805160a05161133761027d5f395f8181610301015281816103840152818161065c01526106df01525f81816103a70152818161070201528181610a170152610c3101526113375ff3fe60806040526004361061006f575f3560e01c80639bf68fd41161004d5780639bf68fd4146100ed578063a3795d3814610115578063d0e30db01461013d578063dedf34f3146101475761006f565b8063095bcdb614610073578063441a3e701461009b5780634c738909146100c3575b5f80fd5b34801561007e575f80fd5b5061009960048036038101906100949190610e69565b61016f565b005b3480156100a6575f80fd5b506100c160048036038101906100bc9190610eb9565b6104ca565b005b3480156100ce575f80fd5b506100d7610872565b6040516100e49190610f06565b60405180910390f35b3480156100f8575f80fd5b50610113600480360381019061010e9190610f1f565b6108b8565b005b348015610120575f80fd5b5061013b60048036038101906101369190610f85565b610a15565b005b610145610afd565b005b348015610152575f80fd5b5061016d60048036038101906101689190610fb0565b610c2f565b005b5f803373ffffffffffffffffffffffffffffffffffffffff1673ffffffffffffffffffffffffffffffffffffffff1681526020019081526020015f206003015f9054906101000a900460ff166101fa576040517f08c379a00000000000000000000000000000000000000000000000000000000081526004016101f190611048565b60405180910390fd5b815f803373ffffffffffffffffffffffffffffffffffffffff1673ffffffffffffffffffffffffffffffffffffffff1681526020019081526020015f2060010154811061027c576040517f08c379a0000000000000000000000000000000000000000000000000000000008152600401610273906110b0565b60405180910390fd5b81805f803373ffffffffffffffffffffffffffffffffffffffff1673ffffffffffffffffffffffffffffffffffffffff1681526020019081526020015f2060020154146102fe576040517f08c379a00000000000000000000000000000000000000000000000000000000081526004016102f590611118565b60405180910390fd5b5f7f00000000000000000000000000000000000000000000000000000000000000008561032b9190611163565b9050845f803373ffffffffffffffffffffffffffffffffffffffff1673ffffffffffffffffffffffffffffffffffffffff1681526020019081526020015f206001015f82825461037b9190611163565b925050819055507f00000000000000000000000000000000000000000000000000000000000000005f807f000000000000000000000000000000000000000000000000000000000000000073ffffffffffffffffffffffffffffffffffffffff1673ffffffffffffffffffffffffffffffffffffffff1681526020019081526020015f206001015f8282546104109190611196565b925050819055508573ffffffffffffffffffffffffffffffffffffffff166108fc8290811502906040515f60405180830381858888f1935050505015801561045a573d5f803e3d5ffd5b508573ffffffffffffffffffffffffffffffffffffffff163373ffffffffffffffffffffffffffffffffffffffff167f9ed053bb818ff08b8353cd46f78db1f0799f31c9e4458fdb425c10eccd2efc4483426040516104ba9291906111c9565b60405180910390a3505050505050565b5f803373ffffffffffffffffffffffffffffffffffffffff1673ffffffffffffffffffffffffffffffffffffffff1681526020019081526020015f206003015f9054906101000a900460ff16610555576040517f08c379a000000000000000000000000000000000000000000000000000000000815260040161054c90611048565b60405180910390fd5b815f803373ffffffffffffffffffffffffffffffffffffffff1673ffffffffffffffffffffffffffffffffffffffff1681526020019081526020015f206001015481106105d7576040517f08c379a00000000000000000000000000000000000000000000000000000000081526004016105ce906110b0565b60405180910390fd5b81805f803373ffffffffffffffffffffffffffffffffffffffff1673ffffffffffffffffffffffffffffffffffffffff1681526020019081526020015f206002015414610659576040517f08c379a000000000000000000000000000000000000000000000000000000000815260040161065090611118565b60405180910390fd5b5f7f0000000000000000000000000000000000000000000000000000000000000000856106869190611163565b9050805f803373ffffffffffffffffffffffffffffffffffffffff1673ffffffffffffffffffffffffffffffffffffffff1681526020019081526020015f206001015f8282546106d69190611163565b925050819055507f00000000000000000000000000000000000000000000000000000000000000005f807f000000000000000000000000000000000000000000000000000000000000000073ffffffffffffffffffffffffffffffffffffffff1673ffffffffffffffffffffffffffffffffffffffff1681526020019081526020015f206001015f82825461076b9190611196565b925050819055505f3373ffffffffffffffffffffffffffffffffffffffff16826040516107979061121d565b5f6040518083038185875af1925050503d805f81146107d1576040519150601f19603f3d011682016040523d82523d5f602084013e6107d6565b606091505b505090508061081a576040517f08c379a00000000000000000000000000000000000000000000000000000000081526004016108119061127b565b60405180910390fd5b3373ffffffffffffffffffffffffffffffffffffffff167ff279e6a1f5e320cca91135676d9cb6e44ca8a08c0b88342bcdb1144f6511b56887426040516108629291906111c9565b60405180910390a2505050505050565b5f805f3373ffffffffffffffffffffffffffffffffffffffff1673ffffffffffffffffffffffffffffffffffffffff1681526020019081526020015f2060010154905090565b335f803373ffffffffffffffffffffffffffffffffffffffff1673ffffffffffffffffffffffffffffffffffffffff1681526020019081526020015f205f015f6101000a81548173ffffffffffffffffffffffffffffffffffffffff021916908373ffffffffffffffffffffffffffffffffffffffff160217905550805f803373ffffffffffffffffffffffffffffffffffffffff1673ffffffffffffffffffffffffffffffffffffffff1681526020019081526020015f20600201819055505f805f3373ffffffffffffffffffffffffffffffffffffffff1673ffffffffffffffffffffffffffffffffffffffff1681526020019081526020015f206003015f6101000a81548160ff021916908315150217905550425f803373ffffffffffffffffffffffffffffffffffffffff1673ffffffffffffffffffffffffffffffffffffffff1681526020019081526020015f206004018190555050565b7f000000000000000000000000000000000000000000000000000000000000000073ffffffffffffffffffffffffffffffffffffffff163373ffffffffffffffffffffffffffffffffffffffff1614610aa3576040517f08c379a0000000000000000000000000000000000000000000000000000000008152600401610a9a906112e3565b60405180910390fd5b60015f808373ffffffffffffffffffffffffffffffffffffffff1673ffffffffffffffffffffffffffffffffffffffff1681526020019081526020015f206003015f6101000a81548160ff02191690831515021790555050565b5f803373ffffffffffffffffffffffffffffffffffffffff1673ffffffffffffffffffffffffffffffffffffffff1681526020019081526020015f206003015f9054906101000a900460ff16610b88576040517f08c379a0000000000000000000000000000000000000000000000000000000008152600401610b7f90611048565b60405180910390fd5b345f803373ffffffffffffffffffffffffffffffffffffffff1673ffffffffffffffffffffffffffffffffffffffff1681526020019081526020015f206001015f828254610bd69190611196565b925050819055503373ffffffffffffffffffffffffffffffffffffffff167f90890809c654f11d6e72a28fa60149770a0d11ec6c92319d6ceb2bb0a4ea1a153442604051610c259291906111c9565b60405180910390a2565b7f000000000000000000000000000000000000000000000000000000000000000073ffffffffffffffffffffffffffffffffffffffff163373ffffffffffffffffffffffffffffffffffffffff1614610cbd576040517f08c379a0000000000000000000000000000000000000000000000000000000008152600401610cb4906112e3565b60405180910390fd5b815f808473ffffffffffffffffffffffffffffffffffffffff1673ffffffffffffffffffffffffffffffffffffffff1681526020019081526020015f205f015f6101000a81548173ffffffffffffffffffffffffffffffffffffffff021916908373ffffffffffffffffffffffffffffffffffffffff160217905550805f808473ffffffffffffffffffffffffffffffffffffffff1673ffffffffffffffffffffffffffffffffffffffff1681526020019081526020015f206002018190555060015f808473ffffffffffffffffffffffffffffffffffffffff1673ffffffffffffffffffffffffffffffffffffffff1681526020019081526020015f206003015f6101000a81548160ff0219169083151502179055505050565b5f80fd5b5f73ffffffffffffffffffffffffffffffffffffffff82169050919050565b5f610e0582610ddc565b9050919050565b610e1581610dfb565b8114610e1f575f80fd5b50565b5f81359050610e3081610e0c565b92915050565b5f819050919050565b610e4881610e36565b8114610e52575f80fd5b50565b5f81359050610e6381610e3f565b92915050565b5f805f60608486031215610e8057610e7f610dd8565b5b5f610e8d86828701610e22565b9350506020610e9e86828701610e55565b9250506040610eaf86828701610e55565b9150509250925092565b5f8060408385031215610ecf57610ece610dd8565b5b5f610edc85828601610e55565b9250506020610eed85828601610e55565b9150509250929050565b610f0081610e36565b82525050565b5f602082019050610f195f830184610ef7565b92915050565b5f60208284031215610f3457610f33610dd8565b5b5f610f4184828501610e55565b91505092915050565b5f610f5482610ddc565b9050919050565b610f6481610f4a565b8114610f6e575f80fd5b50565b5f81359050610f7f81610f5b565b92915050565b5f60208284031215610f9a57610f99610dd8565b5b5f610fa784828501610f71565b91505092915050565b5f8060408385031215610fc657610fc5610dd8565b5b5f610fd385828601610f71565b9250506020610fe485828601610e55565b9150509250929050565b5f82825260208201905092915050565b7f796f7520617265206e6f74206f757220637573746f6d657200000000000000005f82015250565b5f611032601883610fee565b915061103d82610ffe565b602082019050919050565b5f6020820190508181035f83015261105f81611026565b9050919050565b7f696e73756666696369656e742062616c616e63650000000000000000000000005f82015250565b5f61109a601483610fee565b91506110a582611066565b602082019050919050565b5f6020820190508181035f8301526110c78161108e565b9050919050565b7f70696e2069732077726f6e6700000000000000000000000000000000000000005f82015250565b5f611102600c83610fee565b915061110d826110ce565b602082019050919050565b5f6020820190508181035f83015261112f816110f6565b9050919050565b7f4e487b71000000000000000000000000000000000000000000000000000000005f52601160045260245ffd5b5f61116d82610e36565b915061117883610e36565b92508282039050818111156111905761118f611136565b5b92915050565b5f6111a082610e36565b91506111ab83610e36565b92508282019050808211156111c3576111c2611136565b5b92915050565b5f6040820190506111dc5f830185610ef7565b6111e96020830184610ef7565b9392505050565b5f81905092915050565b50565b5f6112085f836111f0565b9150611213826111fa565b5f82019050919050565b5f611227826111fd565b9150819050919050565b7f7472616e73666572206661696c656400000000000000000000000000000000005f82015250565b5f611265600f83610fee565b915061127082611231565b602082019050919050565b5f6020820190508181035f83015261129281611259565b9050919050565b7f796f7520617265206e6f7420746865206f776e657200000000000000000000005f82015250565b5f6112cd601583610fee565b91506112d882611299565b602082019050919050565b5f6020820190508181035f8301526112fa816112c1565b905091905056fea26469706673582212205608e66ede6240beb46e7071f2e1c88e9da8ad40fe94eca0d38892546a06466564736f6c634300081a0033",
					"opcodes": "PUSH1 0xC0 PUSH1 0x40 MSTORE CALLVALUE DUP1 ISZERO PUSH2 0xF JUMPI PUSH0 DUP1 REVERT JUMPDEST POP PUSH1 0x40 MLOAD PUSH2 0x15B4 CODESIZE SUB DUP1 PUSH2 0x15B4 DUP4 CODECOPY DUP2 DUP2 ADD PUSH1 0x40 MSTORE DUP2 ADD SWAP1 PUSH2 0x31 SWAP2 SWAP1 PUSH2 0x207 JUMP JUMPDEST CALLER PUSH20 0xFFFFFFFFFFFFFFFFFFFFFFFFFFFFFFFFFFFFFFFF AND PUSH1 0x80 DUP2 PUSH20 0xFFFFFFFFFFFFFFFFFFFFFFFFFFFFFFFFFFFFFFFF AND DUP2 MSTORE POP POP PUSH2 0x3E8 PUSH1 0xA0 DUP2 DUP2 MSTORE POP POP CALLER PUSH0 DUP1 CALLER PUSH20 0xFFFFFFFFFFFFFFFFFFFFFFFFFFFFFFFFFFFFFFFF AND PUSH20 0xFFFFFFFFFFFFFFFFFFFFFFFFFFFFFFFFFFFFFFFF AND DUP2 MSTORE PUSH1 0x20 ADD SWAP1 DUP2 MSTORE PUSH1 0x20 ADD PUSH0 KECCAK256 PUSH0 ADD PUSH0 PUSH2 0x100 EXP DUP2 SLOAD DUP2 PUSH20 0xFFFFFFFFFFFFFFFFFFFFFFFFFFFFFFFFFFFFFFFF MUL NOT AND SWAP1 DUP4 PUSH20 0xFFFFFFFFFFFFFFFFFFFFFFFFFFFFFFFFFFFFFFFF AND MUL OR SWAP1 SSTORE POP PUSH1 0x1 PUSH0 DUP1 CALLER PUSH20 0xFFFFFFFFFFFFFFFFFFFFFFFFFFFFFFFFFFFFFFFF AND PUSH20 0xFFFFFFFFFFFFFFFFFFFFFFFFFFFFFFFFFFFFFFFF AND DUP2 MSTORE PUSH1 0x20 ADD SWAP1 DUP2 MSTORE PUSH1 0x20 ADD PUSH0 KECCAK256 PUSH1 0x3 ADD PUSH0 PUSH2 0x100 EXP DUP2 SLOAD DUP2 PUSH1 0xFF MUL NOT AND SWAP1 DUP4 ISZERO ISZERO MUL OR SWAP1 SSTORE POP DUP1 PUSH0 DUP1 CALLER PUSH20 0xFFFFFFFFFFFFFFFFFFFFFFFFFFFFFFFFFFFFFFFF AND PUSH20 0xFFFFFFFFFFFFFFFFFFFFFFFFFFFFFFFFFFFFFFFF AND DUP2 MSTORE PUSH1 0x20 ADD SWAP1 DUP2 MSTORE PUSH1 0x20 ADD PUSH0 KECCAK256 PUSH1 0x2 ADD DUP2 SWAP1 SSTORE POP TIMESTAMP PUSH0 DUP1 CALLER PUSH20 0xFFFFFFFFFFFFFFFFFFFFFFFFFFFFFFFFFFFFFFFF AND PUSH20 0xFFFFFFFFFFFFFFFFFFFFFFFFFFFFFFFFFFFFFFFF AND DUP2 MSTORE PUSH1 0x20 ADD SWAP1 DUP2 MSTORE PUSH1 0x20 ADD PUSH0 KECCAK256 PUSH1 0x4 ADD DUP2 SWAP1 SSTORE POP POP PUSH2 0x232 JUMP JUMPDEST PUSH0 DUP1 REVERT JUMPDEST PUSH0 DUP2 SWAP1 POP SWAP2 SWAP1 POP JUMP JUMPDEST PUSH2 0x1E6 DUP2 PUSH2 0x1D4 JUMP JUMPDEST DUP2 EQ PUSH2 0x1F0 JUMPI PUSH0 DUP1 REVERT JUMPDEST POP JUMP JUMPDEST PUSH0 DUP2 MLOAD SWAP1 POP PUSH2 0x201 DUP2 PUSH2 0x1DD JUMP JUMPDEST SWAP3 SWAP2 POP POP JUMP JUMPDEST PUSH0 PUSH1 0x20 DUP3 DUP5 SUB SLT ISZERO PUSH2 0x21C JUMPI PUSH2 0x21B PUSH2 0x1D0 JUMP JUMPDEST JUMPDEST PUSH0 PUSH2 0x229 DUP5 DUP3 DUP6 ADD PUSH2 0x1F3 JUMP JUMPDEST SWAP2 POP POP SWAP3 SWAP2 POP POP JUMP JUMPDEST PUSH1 0x80 MLOAD PUSH1 0xA0 MLOAD PUSH2 0x1337 PUSH2 0x27D PUSH0 CODECOPY PUSH0 DUP2 DUP2 PUSH2 0x301 ADD MSTORE DUP2 DUP2 PUSH2 0x384 ADD MSTORE DUP2 DUP2 PUSH2 0x65C ADD MSTORE PUSH2 0x6DF ADD MSTORE PUSH0 DUP2 DUP2 PUSH2 0x3A7 ADD MSTORE DUP2 DUP2 PUSH2 0x702 ADD MSTORE DUP2 DUP2 PUSH2 0xA17 ADD MSTORE PUSH2 0xC31 ADD MSTORE PUSH2 0x1337 PUSH0 RETURN INVALID PUSH1 0x80 PUSH1 0x40 MSTORE PUSH1 0x4 CALLDATASIZE LT PUSH2 0x6F JUMPI PUSH0 CALLDATALOAD PUSH1 0xE0 SHR DUP1 PUSH4 0x9BF68FD4 GT PUSH2 0x4D JUMPI DUP1 PUSH4 0x9BF68FD4 EQ PUSH2 0xED JUMPI DUP1 PUSH4 0xA3795D38 EQ PUSH2 0x115 JUMPI DUP1 PUSH4 0xD0E30DB0 EQ PUSH2 0x13D JUMPI DUP1 PUSH4 0xDEDF34F3 EQ PUSH2 0x147 JUMPI PUSH2 0x6F JUMP JUMPDEST DUP1 PUSH4 0x95BCDB6 EQ PUSH2 0x73 JUMPI DUP1 PUSH4 0x441A3E70 EQ PUSH2 0x9B JUMPI DUP1 PUSH4 0x4C738909 EQ PUSH2 0xC3 JUMPI JUMPDEST PUSH0 DUP1 REVERT JUMPDEST CALLVALUE DUP1 ISZERO PUSH2 0x7E JUMPI PUSH0 DUP1 REVERT JUMPDEST POP PUSH2 0x99 PUSH1 0x4 DUP1 CALLDATASIZE SUB DUP2 ADD SWAP1 PUSH2 0x94 SWAP2 SWAP1 PUSH2 0xE69 JUMP JUMPDEST PUSH2 0x16F JUMP JUMPDEST STOP JUMPDEST CALLVALUE DUP1 ISZERO PUSH2 0xA6 JUMPI PUSH0 DUP1 REVERT JUMPDEST POP PUSH2 0xC1 PUSH1 0x4 DUP1 CALLDATASIZE SUB DUP2 ADD SWAP1 PUSH2 0xBC SWAP2 SWAP1 PUSH2 0xEB9 JUMP JUMPDEST PUSH2 0x4CA JUMP JUMPDEST STOP JUMPDEST CALLVALUE DUP1 ISZERO PUSH2 0xCE JUMPI PUSH0 DUP1 REVERT JUMPDEST POP PUSH2 0xD7 PUSH2 0x872 JUMP JUMPDEST PUSH1 0x40 MLOAD PUSH2 0xE4 SWAP2 SWAP1 PUSH2 0xF06 JUMP JUMPDEST PUSH1 0x40 MLOAD DUP1 SWAP2 SUB SWAP1 RETURN JUMPDEST CALLVALUE DUP1 ISZERO PUSH2 0xF8 JUMPI PUSH0 DUP1 REVERT JUMPDEST POP PUSH2 0x113 PUSH1 0x4 DUP1 CALLDATASIZE SUB DUP2 ADD SWAP1 PUSH2 0x10E SWAP2 SWAP1 PUSH2 0xF1F JUMP JUMPDEST PUSH2 0x8B8 JUMP JUMPDEST STOP JUMPDEST CALLVALUE DUP1 ISZERO PUSH2 0x120 JUMPI PUSH0 DUP1 REVERT JUMPDEST POP PUSH2 0x13B PUSH1 0x4 DUP1 CALLDATASIZE SUB DUP2 ADD SWAP1 PUSH2 0x136 SWAP2 SWAP1 PUSH2 0xF85 JUMP JUMPDEST PUSH2 0xA15 JUMP JUMPDEST STOP JUMPDEST PUSH2 0x145 PUSH2 0xAFD JUMP JUMPDEST STOP JUMPDEST CALLVALUE DUP1 ISZERO PUSH2 0x152 JUMPI PUSH0 DUP1 REVERT JUMPDEST POP PUSH2 0x16D PUSH1 0x4 DUP1 CALLDATASIZE SUB DUP2 ADD SWAP1 PUSH2 0x168 SWAP2 SWAP1 PUSH2 0xFB0 JUMP JUMPDEST PUSH2 0xC2F JUMP JUMPDEST STOP JUMPDEST PUSH0 DUP1 CALLER PUSH20 0xFFFFFFFFFFFFFFFFFFFFFFFFFFFFFFFFFFFFFFFF AND PUSH20 0xFFFFFFFFFFFFFFFFFFFFFFFFFFFFFFFFFFFFFFFF AND DUP2 MSTORE PUSH1 0x20 ADD SWAP1 DUP2 MSTORE PUSH1 0x20 ADD PUSH0 KECCAK256 PUSH1 0x3 ADD PUSH0 SWAP1 SLOAD SWAP1 PUSH2 0x100 EXP SWAP1 DIV PUSH1 0xFF AND PUSH2 0x1FA JUMPI PUSH1 0x40 MLOAD PUSH32 0x8C379A000000000000000000000000000000000000000000000000000000000 DUP2 MSTORE PUSH1 0x4 ADD PUSH2 0x1F1 SWAP1 PUSH2 0x1048 JUMP JUMPDEST PUSH1 0x40 MLOAD DUP1 SWAP2 SUB SWAP1 REVERT JUMPDEST DUP2 PUSH0 DUP1 CALLER PUSH20 0xFFFFFFFFFFFFFFFFFFFFFFFFFFFFFFFFFFFFFFFF AND PUSH20 0xFFFFFFFFFFFFFFFFFFFFFFFFFFFFFFFFFFFFFFFF AND DUP2 MSTORE PUSH1 0x20 ADD SWAP1 DUP2 MSTORE PUSH1 0x20 ADD PUSH0 KECCAK256 PUSH1 0x1 ADD SLOAD DUP2 LT PUSH2 0x27C JUMPI PUSH1 0x40 MLOAD PUSH32 0x8C379A000000000000000000000000000000000000000000000000000000000 DUP2 MSTORE PUSH1 0x4 ADD PUSH2 0x273 SWAP1 PUSH2 0x10B0 JUMP JUMPDEST PUSH1 0x40 MLOAD DUP1 SWAP2 SUB SWAP1 REVERT JUMPDEST DUP2 DUP1 PUSH0 DUP1 CALLER PUSH20 0xFFFFFFFFFFFFFFFFFFFFFFFFFFFFFFFFFFFFFFFF AND PUSH20 0xFFFFFFFFFFFFFFFFFFFFFFFFFFFFFFFFFFFFFFFF AND DUP2 MSTORE PUSH1 0x20 ADD SWAP1 DUP2 MSTORE PUSH1 0x20 ADD PUSH0 KECCAK256 PUSH1 0x2 ADD SLOAD EQ PUSH2 0x2FE JUMPI PUSH1 0x40 MLOAD PUSH32 0x8C379A000000000000000000000000000000000000000000000000000000000 DUP2 MSTORE PUSH1 0x4 ADD PUSH2 0x2F5 SWAP1 PUSH2 0x1118 JUMP JUMPDEST PUSH1 0x40 MLOAD DUP1 SWAP2 SUB SWAP1 REVERT JUMPDEST PUSH0 PUSH32 0x0 DUP6 PUSH2 0x32B SWAP2 SWAP1 PUSH2 0x1163 JUMP JUMPDEST SWAP1 POP DUP5 PUSH0 DUP1 CALLER PUSH20 0xFFFFFFFFFFFFFFFFFFFFFFFFFFFFFFFFFFFFFFFF AND PUSH20 0xFFFFFFFFFFFFFFFFFFFFFFFFFFFFFFFFFFFFFFFF AND DUP2 MSTORE PUSH1 0x20 ADD SWAP1 DUP2 MSTORE PUSH1 0x20 ADD PUSH0 KECCAK256 PUSH1 0x1 ADD PUSH0 DUP3 DUP3 SLOAD PUSH2 0x37B SWAP2 SWAP1 PUSH2 0x1163 JUMP JUMPDEST SWAP3 POP POP DUP2 SWAP1 SSTORE POP PUSH32 0x0 PUSH0 DUP1 PUSH32 0x0 PUSH20 0xFFFFFFFFFFFFFFFFFFFFFFFFFFFFFFFFFFFFFFFF AND PUSH20 0xFFFFFFFFFFFFFFFFFFFFFFFFFFFFFFFFFFFFFFFF AND DUP2 MSTORE PUSH1 0x20 ADD SWAP1 DUP2 MSTORE PUSH1 0x20 ADD PUSH0 KECCAK256 PUSH1 0x1 ADD PUSH0 DUP3 DUP3 SLOAD PUSH2 0x410 SWAP2 SWAP1 PUSH2 0x1196 JUMP JUMPDEST SWAP3 POP POP DUP2 SWAP1 SSTORE POP DUP6 PUSH20 0xFFFFFFFFFFFFFFFFFFFFFFFFFFFFFFFFFFFFFFFF AND PUSH2 0x8FC DUP3 SWAP1 DUP2 ISZERO MUL SWAP1 PUSH1 0x40 MLOAD PUSH0 PUSH1 0x40 MLOAD DUP1 DUP4 SUB DUP2 DUP6 DUP9 DUP9 CALL SWAP4 POP POP POP POP ISZERO DUP1 ISZERO PUSH2 0x45A JUMPI RETURNDATASIZE PUSH0 DUP1 RETURNDATACOPY RETURNDATASIZE PUSH0 REVERT JUMPDEST POP DUP6 PUSH20 0xFFFFFFFFFFFFFFFFFFFFFFFFFFFFFFFFFFFFFFFF AND CALLER PUSH20 0xFFFFFFFFFFFFFFFFFFFFFFFFFFFFFFFFFFFFFFFF AND PUSH32 0x9ED053BB818FF08B8353CD46F78DB1F0799F31C9E4458FDB425C10ECCD2EFC44 DUP4 TIMESTAMP PUSH1 0x40 MLOAD PUSH2 0x4BA SWAP3 SWAP2 SWAP1 PUSH2 0x11C9 JUMP JUMPDEST PUSH1 0x40 MLOAD DUP1 SWAP2 SUB SWAP1 LOG3 POP POP POP POP POP POP JUMP JUMPDEST PUSH0 DUP1 CALLER PUSH20 0xFFFFFFFFFFFFFFFFFFFFFFFFFFFFFFFFFFFFFFFF AND PUSH20 0xFFFFFFFFFFFFFFFFFFFFFFFFFFFFFFFFFFFFFFFF AND DUP2 MSTORE PUSH1 0x20 ADD SWAP1 DUP2 MSTORE PUSH1 0x20 ADD PUSH0 KECCAK256 PUSH1 0x3 ADD PUSH0 SWAP1 SLOAD SWAP1 PUSH2 0x100 EXP SWAP1 DIV PUSH1 0xFF AND PUSH2 0x555 JUMPI PUSH1 0x40 MLOAD PUSH32 0x8C379A000000000000000000000000000000000000000000000000000000000 DUP2 MSTORE PUSH1 0x4 ADD PUSH2 0x54C SWAP1 PUSH2 0x1048 JUMP JUMPDEST PUSH1 0x40 MLOAD DUP1 SWAP2 SUB SWAP1 REVERT JUMPDEST DUP2 PUSH0 DUP1 CALLER PUSH20 0xFFFFFFFFFFFFFFFFFFFFFFFFFFFFFFFFFFFFFFFF AND PUSH20 0xFFFFFFFFFFFFFFFFFFFFFFFFFFFFFFFFFFFFFFFF AND DUP2 MSTORE PUSH1 0x20 ADD SWAP1 DUP2 MSTORE PUSH1 0x20 ADD PUSH0 KECCAK256 PUSH1 0x1 ADD SLOAD DUP2 LT PUSH2 0x5D7 JUMPI PUSH1 0x40 MLOAD PUSH32 0x8C379A000000000000000000000000000000000000000000000000000000000 DUP2 MSTORE PUSH1 0x4 ADD PUSH2 0x5CE SWAP1 PUSH2 0x10B0 JUMP JUMPDEST PUSH1 0x40 MLOAD DUP1 SWAP2 SUB SWAP1 REVERT JUMPDEST DUP2 DUP1 PUSH0 DUP1 CALLER PUSH20 0xFFFFFFFFFFFFFFFFFFFFFFFFFFFFFFFFFFFFFFFF AND PUSH20 0xFFFFFFFFFFFFFFFFFFFFFFFFFFFFFFFFFFFFFFFF AND DUP2 MSTORE PUSH1 0x20 ADD SWAP1 DUP2 MSTORE PUSH1 0x20 ADD PUSH0 KECCAK256 PUSH1 0x2 ADD SLOAD EQ PUSH2 0x659 JUMPI PUSH1 0x40 MLOAD PUSH32 0x8C379A000000000000000000000000000000000000000000000000000000000 DUP2 MSTORE PUSH1 0x4 ADD PUSH2 0x650 SWAP1 PUSH2 0x1118 JUMP JUMPDEST PUSH1 0x40 MLOAD DUP1 SWAP2 SUB SWAP1 REVERT JUMPDEST PUSH0 PUSH32 0x0 DUP6 PUSH2 0x686 SWAP2 SWAP1 PUSH2 0x1163 JUMP JUMPDEST SWAP1 POP DUP1 PUSH0 DUP1 CALLER PUSH20 0xFFFFFFFFFFFFFFFFFFFFFFFFFFFFFFFFFFFFFFFF AND PUSH20 0xFFFFFFFFFFFFFFFFFFFFFFFFFFFFFFFFFFFFFFFF AND DUP2 MSTORE PUSH1 0x20 ADD SWAP1 DUP2 MSTORE PUSH1 0x20 ADD PUSH0 KECCAK256 PUSH1 0x1 ADD PUSH0 DUP3 DUP3 SLOAD PUSH2 0x6D6 SWAP2 SWAP1 PUSH2 0x1163 JUMP JUMPDEST SWAP3 POP POP DUP2 SWAP1 SSTORE POP PUSH32 0x0 PUSH0 DUP1 PUSH32 0x0 PUSH20 0xFFFFFFFFFFFFFFFFFFFFFFFFFFFFFFFFFFFFFFFF AND PUSH20 0xFFFFFFFFFFFFFFFFFFFFFFFFFFFFFFFFFFFFFFFF AND DUP2 MSTORE PUSH1 0x20 ADD SWAP1 DUP2 MSTORE PUSH1 0x20 ADD PUSH0 KECCAK256 PUSH1 0x1 ADD PUSH0 DUP3 DUP3 SLOAD PUSH2 0x76B SWAP2 SWAP1 PUSH2 0x1196 JUMP JUMPDEST SWAP3 POP POP DUP2 SWAP1 SSTORE POP PUSH0 CALLER PUSH20 0xFFFFFFFFFFFFFFFFFFFFFFFFFFFFFFFFFFFFFFFF AND DUP3 PUSH1 0x40 MLOAD PUSH2 0x797 SWAP1 PUSH2 0x121D JUMP JUMPDEST PUSH0 PUSH1 0x40 MLOAD DUP1 DUP4 SUB DUP2 DUP6 DUP8 GAS CALL SWAP3 POP POP POP RETURNDATASIZE DUP1 PUSH0 DUP2 EQ PUSH2 0x7D1 JUMPI PUSH1 0x40 MLOAD SWAP2 POP PUSH1 0x1F NOT PUSH1 0x3F RETURNDATASIZE ADD AND DUP3 ADD PUSH1 0x40 MSTORE RETURNDATASIZE DUP3 MSTORE RETURNDATASIZE PUSH0 PUSH1 0x20 DUP5 ADD RETURNDATACOPY PUSH2 0x7D6 JUMP JUMPDEST PUSH1 0x60 SWAP2 POP JUMPDEST POP POP SWAP1 POP DUP1 PUSH2 0x81A JUMPI PUSH1 0x40 MLOAD PUSH32 0x8C379A000000000000000000000000000000000000000000000000000000000 DUP2 MSTORE PUSH1 0x4 ADD PUSH2 0x811 SWAP1 PUSH2 0x127B JUMP JUMPDEST PUSH1 0x40 MLOAD DUP1 SWAP2 SUB SWAP1 REVERT JUMPDEST CALLER PUSH20 0xFFFFFFFFFFFFFFFFFFFFFFFFFFFFFFFFFFFFFFFF AND PUSH32 0xF279E6A1F5E320CCA91135676D9CB6E44CA8A08C0B88342BCDB1144F6511B568 DUP8 TIMESTAMP PUSH1 0x40 MLOAD PUSH2 0x862 SWAP3 SWAP2 SWAP1 PUSH2 0x11C9 JUMP JUMPDEST PUSH1 0x40 MLOAD DUP1 SWAP2 SUB SWAP1 LOG2 POP POP POP POP POP POP JUMP JUMPDEST PUSH0 DUP1 PUSH0 CALLER PUSH20 0xFFFFFFFFFFFFFFFFFFFFFFFFFFFFFFFFFFFFFFFF AND PUSH20 0xFFFFFFFFFFFFFFFFFFFFFFFFFFFFFFFFFFFFFFFF AND DUP2 MSTORE PUSH1 0x20 ADD SWAP1 DUP2 MSTORE PUSH1 0x20 ADD PUSH0 KECCAK256 PUSH1 0x1 ADD SLOAD SWAP1 POP SWAP1 JUMP JUMPDEST CALLER PUSH0 DUP1 CALLER PUSH20 0xFFFFFFFFFFFFFFFFFFFFFFFFFFFFFFFFFFFFFFFF AND PUSH20 0xFFFFFFFFFFFFFFFFFFFFFFFFFFFFFFFFFFFFFFFF AND DUP2 MSTORE PUSH1 0x20 ADD SWAP1 DUP2 MSTORE PUSH1 0x20 ADD PUSH0 KECCAK256 PUSH0 ADD PUSH0 PUSH2 0x100 EXP DUP2 SLOAD DUP2 PUSH20 0xFFFFFFFFFFFFFFFFFFFFFFFFFFFFFFFFFFFFFFFF MUL NOT AND SWAP1 DUP4 PUSH20 0xFFFFFFFFFFFFFFFFFFFFFFFFFFFFFFFFFFFFFFFF AND MUL OR SWAP1 SSTORE POP DUP1 PUSH0 DUP1 CALLER PUSH20 0xFFFFFFFFFFFFFFFFFFFFFFFFFFFFFFFFFFFFFFFF AND PUSH20 0xFFFFFFFFFFFFFFFFFFFFFFFFFFFFFFFFFFFFFFFF AND DUP2 MSTORE PUSH1 0x20 ADD SWAP1 DUP2 MSTORE PUSH1 0x20 ADD PUSH0 KECCAK256 PUSH1 0x2 ADD DUP2 SWAP1 SSTORE POP PUSH0 DUP1 PUSH0 CALLER PUSH20 0xFFFFFFFFFFFFFFFFFFFFFFFFFFFFFFFFFFFFFFFF AND PUSH20 0xFFFFFFFFFFFFFFFFFFFFFFFFFFFFFFFFFFFFFFFF AND DUP2 MSTORE PUSH1 0x20 ADD SWAP1 DUP2 MSTORE PUSH1 0x20 ADD PUSH0 KECCAK256 PUSH1 0x3 ADD PUSH0 PUSH2 0x100 EXP DUP2 SLOAD DUP2 PUSH1 0xFF MUL NOT AND SWAP1 DUP4 ISZERO ISZERO MUL OR SWAP1 SSTORE POP TIMESTAMP PUSH0 DUP1 CALLER PUSH20 0xFFFFFFFFFFFFFFFFFFFFFFFFFFFFFFFFFFFFFFFF AND PUSH20 0xFFFFFFFFFFFFFFFFFFFFFFFFFFFFFFFFFFFFFFFF AND DUP2 MSTORE PUSH1 0x20 ADD SWAP1 DUP2 MSTORE PUSH1 0x20 ADD PUSH0 KECCAK256 PUSH1 0x4 ADD DUP2 SWAP1 SSTORE POP POP JUMP JUMPDEST PUSH32 0x0 PUSH20 0xFFFFFFFFFFFFFFFFFFFFFFFFFFFFFFFFFFFFFFFF AND CALLER PUSH20 0xFFFFFFFFFFFFFFFFFFFFFFFFFFFFFFFFFFFFFFFF AND EQ PUSH2 0xAA3 JUMPI PUSH1 0x40 MLOAD PUSH32 0x8C379A000000000000000000000000000000000000000000000000000000000 DUP2 MSTORE PUSH1 0x4 ADD PUSH2 0xA9A SWAP1 PUSH2 0x12E3 JUMP JUMPDEST PUSH1 0x40 MLOAD DUP1 SWAP2 SUB SWAP1 REVERT JUMPDEST PUSH1 0x1 PUSH0 DUP1 DUP4 PUSH20 0xFFFFFFFFFFFFFFFFFFFFFFFFFFFFFFFFFFFFFFFF AND PUSH20 0xFFFFFFFFFFFFFFFFFFFFFFFFFFFFFFFFFFFFFFFF AND DUP2 MSTORE PUSH1 0x20 ADD SWAP1 DUP2 MSTORE PUSH1 0x20 ADD PUSH0 KECCAK256 PUSH1 0x3 ADD PUSH0 PUSH2 0x100 EXP DUP2 SLOAD DUP2 PUSH1 0xFF MUL NOT AND SWAP1 DUP4 ISZERO ISZERO MUL OR SWAP1 SSTORE POP POP JUMP JUMPDEST PUSH0 DUP1 CALLER PUSH20 0xFFFFFFFFFFFFFFFFFFFFFFFFFFFFFFFFFFFFFFFF AND PUSH20 0xFFFFFFFFFFFFFFFFFFFFFFFFFFFFFFFFFFFFFFFF AND DUP2 MSTORE PUSH1 0x20 ADD SWAP1 DUP2 MSTORE PUSH1 0x20 ADD PUSH0 KECCAK256 PUSH1 0x3 ADD PUSH0 SWAP1 SLOAD SWAP1 PUSH2 0x100 EXP SWAP1 DIV PUSH1 0xFF AND PUSH2 0xB88 JUMPI PUSH1 0x40 MLOAD PUSH32 0x8C379A000000000000000000000000000000000000000000000000000000000 DUP2 MSTORE PUSH1 0x4 ADD PUSH2 0xB7F SWAP1 PUSH2 0x1048 JUMP JUMPDEST PUSH1 0x40 MLOAD DUP1 SWAP2 SUB SWAP1 REVERT JUMPDEST CALLVALUE PUSH0 DUP1 CALLER PUSH20 0xFFFFFFFFFFFFFFFFFFFFFFFFFFFFFFFFFFFFFFFF AND PUSH20 0xFFFFFFFFFFFFFFFFFFFFFFFFFFFFFFFFFFFFFFFF AND DUP2 MSTORE PUSH1 0x20 ADD SWAP1 DUP2 MSTORE PUSH1 0x20 ADD PUSH0 KECCAK256 PUSH1 0x1 ADD PUSH0 DUP3 DUP3 SLOAD PUSH2 0xBD6 SWAP2 SWAP1 PUSH2 0x1196 JUMP JUMPDEST SWAP3 POP POP DUP2 SWAP1 SSTORE POP CALLER PUSH20 0xFFFFFFFFFFFFFFFFFFFFFFFFFFFFFFFFFFFFFFFF AND PUSH32 0x90890809C654F11D6E72A28FA60149770A0D11EC6C92319D6CEB2BB0A4EA1A15 CALLVALUE TIMESTAMP PUSH1 0x40 MLOAD PUSH2 0xC25 SWAP3 SWAP2 SWAP1 PUSH2 0x11C9 JUMP JUMPDEST PUSH1 0x40 MLOAD DUP1 SWAP2 SUB SWAP1 LOG2 JUMP JUMPDEST PUSH32 0x0 PUSH20 0xFFFFFFFFFFFFFFFFFFFFFFFFFFFFFFFFFFFFFFFF AND CALLER PUSH20 0xFFFFFFFFFFFFFFFFFFFFFFFFFFFFFFFFFFFFFFFF AND EQ PUSH2 0xCBD JUMPI PUSH1 0x40 MLOAD PUSH32 0x8C379A000000000000000000000000000000000000000000000000000000000 DUP2 MSTORE PUSH1 0x4 ADD PUSH2 0xCB4 SWAP1 PUSH2 0x12E3 JUMP JUMPDEST PUSH1 0x40 MLOAD DUP1 SWAP2 SUB SWAP1 REVERT JUMPDEST DUP2 PUSH0 DUP1 DUP5 PUSH20 0xFFFFFFFFFFFFFFFFFFFFFFFFFFFFFFFFFFFFFFFF AND PUSH20 0xFFFFFFFFFFFFFFFFFFFFFFFFFFFFFFFFFFFFFFFF AND DUP2 MSTORE PUSH1 0x20 ADD SWAP1 DUP2 MSTORE PUSH1 0x20 ADD PUSH0 KECCAK256 PUSH0 ADD PUSH0 PUSH2 0x100 EXP DUP2 SLOAD DUP2 PUSH20 0xFFFFFFFFFFFFFFFFFFFFFFFFFFFFFFFFFFFFFFFF MUL NOT AND SWAP1 DUP4 PUSH20 0xFFFFFFFFFFFFFFFFFFFFFFFFFFFFFFFFFFFFFFFF AND MUL OR SWAP1 SSTORE POP DUP1 PUSH0 DUP1 DUP5 PUSH20 0xFFFFFFFFFFFFFFFFFFFFFFFFFFFFFFFFFFFFFFFF AND PUSH20 0xFFFFFFFFFFFFFFFFFFFFFFFFFFFFFFFFFFFFFFFF AND DUP2 MSTORE PUSH1 0x20 ADD SWAP1 DUP2 MSTORE PUSH1 0x20 ADD PUSH0 KECCAK256 PUSH1 0x2 ADD DUP2 SWAP1 SSTORE POP PUSH1 0x1 PUSH0 DUP1 DUP5 PUSH20 0xFFFFFFFFFFFFFFFFFFFFFFFFFFFFFFFFFFFFFFFF AND PUSH20 0xFFFFFFFFFFFFFFFFFFFFFFFFFFFFFFFFFFFFFFFF AND DUP2 MSTORE PUSH1 0x20 ADD SWAP1 DUP2 MSTORE PUSH1 0x20 ADD PUSH0 KECCAK256 PUSH1 0x3 ADD PUSH0 PUSH2 0x100 EXP DUP2 SLOAD DUP2 PUSH1 0xFF MUL NOT AND SWAP1 DUP4 ISZERO ISZERO MUL OR SWAP1 SSTORE POP POP POP JUMP JUMPDEST PUSH0 DUP1 REVERT JUMPDEST PUSH0 PUSH20 0xFFFFFFFFFFFFFFFFFFFFFFFFFFFFFFFFFFFFFFFF DUP3 AND SWAP1 POP SWAP2 SWAP1 POP JUMP JUMPDEST PUSH0 PUSH2 0xE05 DUP3 PUSH2 0xDDC JUMP JUMPDEST SWAP1 POP SWAP2 SWAP1 POP JUMP JUMPDEST PUSH2 0xE15 DUP2 PUSH2 0xDFB JUMP JUMPDEST DUP2 EQ PUSH2 0xE1F JUMPI PUSH0 DUP1 REVERT JUMPDEST POP JUMP JUMPDEST PUSH0 DUP2 CALLDATALOAD SWAP1 POP PUSH2 0xE30 DUP2 PUSH2 0xE0C JUMP JUMPDEST SWAP3 SWAP2 POP POP JUMP JUMPDEST PUSH0 DUP2 SWAP1 POP SWAP2 SWAP1 POP JUMP JUMPDEST PUSH2 0xE48 DUP2 PUSH2 0xE36 JUMP JUMPDEST DUP2 EQ PUSH2 0xE52 JUMPI PUSH0 DUP1 REVERT JUMPDEST POP JUMP JUMPDEST PUSH0 DUP2 CALLDATALOAD SWAP1 POP PUSH2 0xE63 DUP2 PUSH2 0xE3F JUMP JUMPDEST SWAP3 SWAP2 POP POP JUMP JUMPDEST PUSH0 DUP1 PUSH0 PUSH1 0x60 DUP5 DUP7 SUB SLT ISZERO PUSH2 0xE80 JUMPI PUSH2 0xE7F PUSH2 0xDD8 JUMP JUMPDEST JUMPDEST PUSH0 PUSH2 0xE8D DUP7 DUP3 DUP8 ADD PUSH2 0xE22 JUMP JUMPDEST SWAP4 POP POP PUSH1 0x20 PUSH2 0xE9E DUP7 DUP3 DUP8 ADD PUSH2 0xE55 JUMP JUMPDEST SWAP3 POP POP PUSH1 0x40 PUSH2 0xEAF DUP7 DUP3 DUP8 ADD PUSH2 0xE55 JUMP JUMPDEST SWAP2 POP POP SWAP3 POP SWAP3 POP SWAP3 JUMP JUMPDEST PUSH0 DUP1 PUSH1 0x40 DUP4 DUP6 SUB SLT ISZERO PUSH2 0xECF JUMPI PUSH2 0xECE PUSH2 0xDD8 JUMP JUMPDEST JUMPDEST PUSH0 PUSH2 0xEDC DUP6 DUP3 DUP7 ADD PUSH2 0xE55 JUMP JUMPDEST SWAP3 POP POP PUSH1 0x20 PUSH2 0xEED DUP6 DUP3 DUP7 ADD PUSH2 0xE55 JUMP JUMPDEST SWAP2 POP POP SWAP3 POP SWAP3 SWAP1 POP JUMP JUMPDEST PUSH2 0xF00 DUP2 PUSH2 0xE36 JUMP JUMPDEST DUP3 MSTORE POP POP JUMP JUMPDEST PUSH0 PUSH1 0x20 DUP3 ADD SWAP1 POP PUSH2 0xF19 PUSH0 DUP4 ADD DUP5 PUSH2 0xEF7 JUMP JUMPDEST SWAP3 SWAP2 POP POP JUMP JUMPDEST PUSH0 PUSH1 0x20 DUP3 DUP5 SUB SLT ISZERO PUSH2 0xF34 JUMPI PUSH2 0xF33 PUSH2 0xDD8 JUMP JUMPDEST JUMPDEST PUSH0 PUSH2 0xF41 DUP5 DUP3 DUP6 ADD PUSH2 0xE55 JUMP JUMPDEST SWAP2 POP POP SWAP3 SWAP2 POP POP JUMP JUMPDEST PUSH0 PUSH2 0xF54 DUP3 PUSH2 0xDDC JUMP JUMPDEST SWAP1 POP SWAP2 SWAP1 POP JUMP JUMPDEST PUSH2 0xF64 DUP2 PUSH2 0xF4A JUMP JUMPDEST DUP2 EQ PUSH2 0xF6E JUMPI PUSH0 DUP1 REVERT JUMPDEST POP JUMP JUMPDEST PUSH0 DUP2 CALLDATALOAD SWAP1 POP PUSH2 0xF7F DUP2 PUSH2 0xF5B JUMP JUMPDEST SWAP3 SWAP2 POP POP JUMP JUMPDEST PUSH0 PUSH1 0x20 DUP3 DUP5 SUB SLT ISZERO PUSH2 0xF9A JUMPI PUSH2 0xF99 PUSH2 0xDD8 JUMP JUMPDEST JUMPDEST PUSH0 PUSH2 0xFA7 DUP5 DUP3 DUP6 ADD PUSH2 0xF71 JUMP JUMPDEST SWAP2 POP POP SWAP3 SWAP2 POP POP JUMP JUMPDEST PUSH0 DUP1 PUSH1 0x40 DUP4 DUP6 SUB SLT ISZERO PUSH2 0xFC6 JUMPI PUSH2 0xFC5 PUSH2 0xDD8 JUMP JUMPDEST JUMPDEST PUSH0 PUSH2 0xFD3 DUP6 DUP3 DUP7 ADD PUSH2 0xF71 JUMP JUMPDEST SWAP3 POP POP PUSH1 0x20 PUSH2 0xFE4 DUP6 DUP3 DUP7 ADD PUSH2 0xE55 JUMP JUMPDEST SWAP2 POP POP SWAP3 POP SWAP3 SWAP1 POP JUMP JUMPDEST PUSH0 DUP3 DUP3 MSTORE PUSH1 0x20 DUP3 ADD SWAP1 POP SWAP3 SWAP2 POP POP JUMP JUMPDEST PUSH32 0x796F7520617265206E6F74206F757220637573746F6D65720000000000000000 PUSH0 DUP3 ADD MSTORE POP JUMP JUMPDEST PUSH0 PUSH2 0x1032 PUSH1 0x18 DUP4 PUSH2 0xFEE JUMP JUMPDEST SWAP2 POP PUSH2 0x103D DUP3 PUSH2 0xFFE JUMP JUMPDEST PUSH1 0x20 DUP3 ADD SWAP1 POP SWAP2 SWAP1 POP JUMP JUMPDEST PUSH0 PUSH1 0x20 DUP3 ADD SWAP1 POP DUP2 DUP2 SUB PUSH0 DUP4 ADD MSTORE PUSH2 0x105F DUP2 PUSH2 0x1026 JUMP JUMPDEST SWAP1 POP SWAP2 SWAP1 POP JUMP JUMPDEST PUSH32 0x696E73756666696369656E742062616C616E6365000000000000000000000000 PUSH0 DUP3 ADD MSTORE POP JUMP JUMPDEST PUSH0 PUSH2 0x109A PUSH1 0x14 DUP4 PUSH2 0xFEE JUMP JUMPDEST SWAP2 POP PUSH2 0x10A5 DUP3 PUSH2 0x1066 JUMP JUMPDEST PUSH1 0x20 DUP3 ADD SWAP1 POP SWAP2 SWAP1 POP JUMP JUMPDEST PUSH0 PUSH1 0x20 DUP3 ADD SWAP1 POP DUP2 DUP2 SUB PUSH0 DUP4 ADD MSTORE PUSH2 0x10C7 DUP2 PUSH2 0x108E JUMP JUMPDEST SWAP1 POP SWAP2 SWAP1 POP JUMP JUMPDEST PUSH32 0x70696E2069732077726F6E670000000000000000000000000000000000000000 PUSH0 DUP3 ADD MSTORE POP JUMP JUMPDEST PUSH0 PUSH2 0x1102 PUSH1 0xC DUP4 PUSH2 0xFEE JUMP JUMPDEST SWAP2 POP PUSH2 0x110D DUP3 PUSH2 0x10CE JUMP JUMPDEST PUSH1 0x20 DUP3 ADD SWAP1 POP SWAP2 SWAP1 POP JUMP JUMPDEST PUSH0 PUSH1 0x20 DUP3 ADD SWAP1 POP DUP2 DUP2 SUB PUSH0 DUP4 ADD MSTORE PUSH2 0x112F DUP2 PUSH2 0x10F6 JUMP JUMPDEST SWAP1 POP SWAP2 SWAP1 POP JUMP JUMPDEST PUSH32 0x4E487B7100000000000000000000000000000000000000000000000000000000 PUSH0 MSTORE PUSH1 0x11 PUSH1 0x4 MSTORE PUSH1 0x24 PUSH0 REVERT JUMPDEST PUSH0 PUSH2 0x116D DUP3 PUSH2 0xE36 JUMP JUMPDEST SWAP2 POP PUSH2 0x1178 DUP4 PUSH2 0xE36 JUMP JUMPDEST SWAP3 POP DUP3 DUP3 SUB SWAP1 POP DUP2 DUP2 GT ISZERO PUSH2 0x1190 JUMPI PUSH2 0x118F PUSH2 0x1136 JUMP JUMPDEST JUMPDEST SWAP3 SWAP2 POP POP JUMP JUMPDEST PUSH0 PUSH2 0x11A0 DUP3 PUSH2 0xE36 JUMP JUMPDEST SWAP2 POP PUSH2 0x11AB DUP4 PUSH2 0xE36 JUMP JUMPDEST SWAP3 POP DUP3 DUP3 ADD SWAP1 POP DUP1 DUP3 GT ISZERO PUSH2 0x11C3 JUMPI PUSH2 0x11C2 PUSH2 0x1136 JUMP JUMPDEST JUMPDEST SWAP3 SWAP2 POP POP JUMP JUMPDEST PUSH0 PUSH1 0x40 DUP3 ADD SWAP1 POP PUSH2 0x11DC PUSH0 DUP4 ADD DUP6 PUSH2 0xEF7 JUMP JUMPDEST PUSH2 0x11E9 PUSH1 0x20 DUP4 ADD DUP5 PUSH2 0xEF7 JUMP JUMPDEST SWAP4 SWAP3 POP POP POP JUMP JUMPDEST PUSH0 DUP2 SWAP1 POP SWAP3 SWAP2 POP POP JUMP JUMPDEST POP JUMP JUMPDEST PUSH0 PUSH2 0x1208 PUSH0 DUP4 PUSH2 0x11F0 JUMP JUMPDEST SWAP2 POP PUSH2 0x1213 DUP3 PUSH2 0x11FA JUMP JUMPDEST PUSH0 DUP3 ADD SWAP1 POP SWAP2 SWAP1 POP JUMP JUMPDEST PUSH0 PUSH2 0x1227 DUP3 PUSH2 0x11FD JUMP JUMPDEST SWAP2 POP DUP2 SWAP1 POP SWAP2 SWAP1 POP JUMP JUMPDEST PUSH32 0x7472616E73666572206661696C65640000000000000000000000000000000000 PUSH0 DUP3 ADD MSTORE POP JUMP JUMPDEST PUSH0 PUSH2 0x1265 PUSH1 0xF DUP4 PUSH2 0xFEE JUMP JUMPDEST SWAP2 POP PUSH2 0x1270 DUP3 PUSH2 0x1231 JUMP JUMPDEST PUSH1 0x20 DUP3 ADD SWAP1 POP SWAP2 SWAP1 POP JUMP JUMPDEST PUSH0 PUSH1 0x20 DUP3 ADD SWAP1 POP DUP2 DUP2 SUB PUSH0 DUP4 ADD MSTORE PUSH2 0x1292 DUP2 PUSH2 0x1259 JUMP JUMPDEST SWAP1 POP SWAP2 SWAP1 POP JUMP JUMPDEST PUSH32 0x796F7520617265206E6F7420746865206F776E65720000000000000000000000 PUSH0 DUP3 ADD MSTORE POP JUMP JUMPDEST PUSH0 PUSH2 0x12CD PUSH1 0x15 DUP4 PUSH2 0xFEE JUMP JUMPDEST SWAP2 POP PUSH2 0x12D8 DUP3 PUSH2 0x1299 JUMP JUMPDEST PUSH1 0x20 DUP3 ADD SWAP1 POP SWAP2 SWAP1 POP JUMP JUMPDEST PUSH0 PUSH1 0x20 DUP3 ADD SWAP1 POP DUP2 DUP2 SUB PUSH0 DUP4 ADD MSTORE PUSH2 0x12FA DUP2 PUSH2 0x12C1 JUMP JUMPDEST SWAP1 POP SWAP2 SWAP1 POP JUMP INVALID LOG2 PUSH5 0x6970667358 0x22 SLT KECCAK256 JUMP ADDMOD 0xE6 PUSH15 0xDE6240BEB46E7071F2E1C88E9DA8AD BLOCKHASH INVALID SWAP5 0xEC LOG0 0xD3 DUP9 SWAP3 SLOAD PUSH11 0x6466564736F6C63430008 BYTE STOP CALLER "
				},
				"gasEstimates": {
					"creation": {
						"codeDepositCost": "983800",
						"executionCost": "infinite",
						"totalCost": "infinite"
					},
					"external": {
						"addCustomer(address,uint256)": "infinite",
						"approveNewCustomer(address)": "infinite",
						"deposit()": "infinite",
						"getMyBalance()": "2570",
						"requestBeCustomer(uint256)": "93529",
						"transfer(address,uint256,uint256)": "infinite",
						"withdraw(uint256,uint256)": "infinite"
					}
				},
				"methodIdentifiers": {
					"addCustomer(address,uint256)": "dedf34f3",
					"approveNewCustomer(address)": "a3795d38",
					"deposit()": "d0e30db0",
					"getMyBalance()": "4c738909",
					"requestBeCustomer(uint256)": "9bf68fd4",
					"transfer(address,uint256,uint256)": "095bcdb6",
					"withdraw(uint256,uint256)": "441a3e70"
				}
			},
			"storageLayout": {
				"storage": [
					{
						"astId": 47,
						"contract": "contracts/PrivateBank.sol:PrivateBank",
						"label": "user",
						"offset": 0,
						"slot": "0",
						"type": "t_mapping(t_address,t_struct(Account)38_storage)"
					}
				],
				"types": {
					"t_address": {
						"encoding": "inplace",
						"label": "address",
						"numberOfBytes": "20"
					},
					"t_bool": {
						"encoding": "inplace",
						"label": "bool",
						"numberOfBytes": "1"
					},
					"t_mapping(t_address,t_struct(Account)38_storage)": {
						"encoding": "mapping",
						"key": "t_address",
						"label": "mapping(address => struct PrivateBank.Account)",
						"numberOfBytes": "32",
						"value": "t_struct(Account)38_storage"
					},
					"t_struct(Account)38_storage": {
						"encoding": "inplace",
						"label": "struct PrivateBank.Account",
						"members": [
							{
								"astId": 29,
								"contract": "contracts/PrivateBank.sol:PrivateBank",
								"label": "walletUser",
								"offset": 0,
								"slot": "0",
								"type": "t_address"
							},
							{
								"astId": 31,
								"contract": "contracts/PrivateBank.sol:PrivateBank",
								"label": "balance",
								"offset": 0,
								"slot": "1",
								"type": "t_uint256"
							},
							{
								"astId": 33,
								"contract": "contracts/PrivateBank.sol:PrivateBank",
								"label": "pin",
								"offset": 0,
								"slot": "2",
								"type": "t_uint256"
							},
							{
								"astId": 35,
								"contract": "contracts/PrivateBank.sol:PrivateBank",
								"label": "isApproved",
								"offset": 0,
								"slot": "3",
								"type": "t_bool"
							},
							{
								"astId": 37,
								"contract": "contracts/PrivateBank.sol:PrivateBank",
								"label": "createdAt",
								"offset": 0,
								"slot": "4",
								"type": "t_uint256"
							}
						],
						"numberOfBytes": "160"
					},
					"t_uint256": {
						"encoding": "inplace",
						"label": "uint256",
						"numberOfBytes": "32"
					}
				}
			},
			"userdoc": {
				"kind": "user",
				"methods": {},
				"version": 1
			}
		}
	}
}