{
	"contracts/SimpleSmartWallet.sol": {
		"SimpleWalet": {
			"abi": [
				{
					"inputs": [],
					"stateMutability": "nonpayable",
					"type": "constructor"
				},
				{
					"inputs": [],
					"name": "_InsufficientBalanceSimpleWalet",
					"type": "error"
				},
				{
					"inputs": [],
					"name": "_NotAutorizedSimpleWalet",
					"type": "error"
				},
				{
					"inputs": [],
					"name": "_NotOwnerSimpleWalet",
					"type": "error"
				},
				{
					"anonymous": false,
					"inputs": [
						{
							"indexed": true,
							"internalType": "address",
							"name": "user",
							"type": "address"
						}
					],
					"name": "AuthorizedUserRemove",
					"type": "event"
				},
				{
					"anonymous": false,
					"inputs": [
						{
							"indexed": true,
							"internalType": "address",
							"name": "user",
							"type": "address"
						}
					],
					"name": "AuthorizedUsersAdded",
					"type": "event"
				},
				{
					"anonymous": false,
					"inputs": [
						{
							"indexed": true,
							"internalType": "address",
							"name": "sender",
							"type": "address"
						},
						{
							"indexed": false,
							"internalType": "uint256",
							"name": "amount",
							"type": "uint256"
						}
					],
					"name": "Deposit",
					"type": "event"
				},
				{
					"anonymous": false,
					"inputs": [
						{
							"indexed": true,
							"internalType": "address",
							"name": "from",
							"type": "address"
						},
						{
							"indexed": true,
							"internalType": "address",
							"name": "to",
							"type": "address"
						},
						{
							"indexed": false,
							"internalType": "uint256",
							"name": "amount",
							"type": "uint256"
						}
					],
					"name": "Transfer",
					"type": "event"
				},
				{
					"anonymous": false,
					"inputs": [
						{
							"indexed": true,
							"internalType": "address",
							"name": "receiver",
							"type": "address"
						},
						{
							"indexed": false,
							"internalType": "uint256",
							"name": "amount",
							"type": "uint256"
						}
					],
					"name": "WithDrawal",
					"type": "event"
				},
				{
					"inputs": [
						{
							"internalType": "address",
							"name": "_user",
							"type": "address"
						}
					],
					"name": "addAuthorizedUser",
					"outputs": [],
					"stateMutability": "nonpayable",
					"type": "function"
				},
				{
					"inputs": [
						{
							"internalType": "address",
							"name": "",
							"type": "address"
						}
					],
					"name": "authorizedUsers",
					"outputs": [
						{
							"internalType": "bool",
							"name": "",
							"type": "bool"
						}
					],
					"stateMutability": "view",
					"type": "function"
				},
				{
					"inputs": [
						{
							"internalType": "address",
							"name": "",
							"type": "address"
						}
					],
					"name": "balanceOfAccounts",
					"outputs": [
						{
							"internalType": "uint256",
							"name": "",
							"type": "uint256"
						}
					],
					"stateMutability": "view",
					"type": "function"
				},
				{
					"inputs": [],
					"name": "deposit",
					"outputs": [],
					"stateMutability": "payable",
					"type": "function"
				},
				{
					"inputs": [],
					"name": "getBalanceOfContract",
					"outputs": [
						{
							"internalType": "uint256",
							"name": "",
							"type": "uint256"
						}
					],
					"stateMutability": "view",
					"type": "function"
				},
				{
					"inputs": [
						{
							"internalType": "address",
							"name": "_myWallet",
							"type": "address"
						}
					],
					"name": "getBalanceOfMyWallet",
					"outputs": [
						{
							"internalType": "uint256",
							"name": "",
							"type": "uint256"
						}
					],
					"stateMutability": "view",
					"type": "function"
				},
				{
					"inputs": [],
					"name": "owner",
					"outputs": [
						{
							"internalType": "address",
							"name": "",
							"type": "address"
						}
					],
					"stateMutability": "view",
					"type": "function"
				},
				{
					"inputs": [
						{
							"internalType": "address payable",
							"name": "_to",
							"type": "address"
						},
						{
							"internalType": "uint256",
							"name": "_amount",
							"type": "uint256"
						}
					],
					"name": "transferTo",
					"outputs": [],
					"stateMutability": "nonpayable",
					"type": "function"
				},
				{
					"inputs": [
						{
							"internalType": "uint256",
							"name": "_amount",
							"type": "uint256"
						}
					],
					"name": "withdraw",
					"outputs": [],
					"stateMutability": "nonpayable",
					"type": "function"
				}
			],
			"devdoc": {
				"kind": "dev",
				"methods": {},
				"version": 1
			},
			"evm": {
				"assembly": "    /* \"contracts/SimpleSmartWallet.sol\":230:2230  contract SimpleWalet{... */\n  mstore(0x40, 0x80)\n    /* \"contracts/SimpleSmartWallet.sol\":1009:1057  constructor(){... */\n  callvalue\n  dup1\n  iszero\n  tag_1\n  jumpi\n  0x00\n  dup1\n  revert\ntag_1:\n  pop\n    /* \"contracts/SimpleSmartWallet.sol\":1040:1050  msg.sender */\n  caller\n    /* \"contracts/SimpleSmartWallet.sol\":1032:1037  owner */\n  0x00\n  dup1\n    /* \"contracts/SimpleSmartWallet.sol\":1032:1050  owner = msg.sender */\n  0x0100\n  exp\n  dup2\n  sload\n  dup2\n  0xffffffffffffffffffffffffffffffffffffffff\n  mul\n  not\n  and\n  swap1\n  dup4\n  0xffffffffffffffffffffffffffffffffffffffff\n  and\n  mul\n  or\n  swap1\n  sstore\n  pop\n    /* \"contracts/SimpleSmartWallet.sol\":230:2230  contract SimpleWalet{... */\n  dataSize(sub_0)\n  dup1\n  dataOffset(sub_0)\n  0x00\n  codecopy\n  0x00\n  return\nstop\n\nsub_0: assembly {\n        /* \"contracts/SimpleSmartWallet.sol\":230:2230  contract SimpleWalet{... */\n      mstore(0x40, 0x80)\n      jumpi(tag_1, lt(calldatasize, 0x04))\n      shr(0xe0, calldataload(0x00))\n      dup1\n      0x2e1a7d4d\n      gt\n      tag_11\n      jumpi\n      dup1\n      0x2e1a7d4d\n      eq\n      tag_6\n      jumpi\n      dup1\n      0x49342fca\n      eq\n      tag_7\n      jumpi\n      dup1\n      0x827923ec\n      eq\n      tag_8\n      jumpi\n      dup1\n      0x8da5cb5b\n      eq\n      tag_9\n      jumpi\n      dup1\n      0xd0e30db0\n      eq\n      tag_10\n      jumpi\n      jump(tag_1)\n    tag_11:\n      dup1\n      0x177d2a74\n      eq\n      tag_2\n      jumpi\n      dup1\n      0x1828983a\n      eq\n      tag_3\n      jumpi\n      dup1\n      0x22968885\n      eq\n      tag_4\n      jumpi\n      dup1\n      0x2ccb1b30\n      eq\n      tag_5\n      jumpi\n    tag_1:\n      0x00\n      dup1\n      revert\n        /* \"contracts/SimpleSmartWallet.sol\":1063:1208  function addAuthorizedUser(address _user)public onlyOwner{... */\n    tag_2:\n      callvalue\n      dup1\n      iszero\n      tag_12\n      jumpi\n      0x00\n      dup1\n      revert\n    tag_12:\n      pop\n      tag_13\n      0x04\n      dup1\n      calldatasize\n      sub\n      dup2\n      add\n      swap1\n      tag_14\n      swap2\n      swap1\n      tag_15\n      jump\t// in\n    tag_14:\n      tag_16\n      jump\t// in\n    tag_13:\n      stop\n        /* \"contracts/SimpleSmartWallet.sol\":304:351  mapping(address => bool) public authorizedUsers */\n    tag_3:\n      callvalue\n      dup1\n      iszero\n      tag_17\n      jumpi\n      0x00\n      dup1\n      revert\n    tag_17:\n      pop\n      tag_18\n      0x04\n      dup1\n      calldatasize\n      sub\n      dup2\n      add\n      swap1\n      tag_19\n      swap2\n      swap1\n      tag_15\n      jump\t// in\n    tag_19:\n      tag_20\n      jump\t// in\n    tag_18:\n      mload(0x40)\n      tag_21\n      swap2\n      swap1\n      tag_22\n      jump\t// in\n    tag_21:\n      mload(0x40)\n      dup1\n      swap2\n      sub\n      swap1\n      return\n        /* \"contracts/SimpleSmartWallet.sol\":1985:2090  function getBalanceOfContract() public view returns(uint256){... */\n    tag_4:\n      callvalue\n      dup1\n      iszero\n      tag_23\n      jumpi\n      0x00\n      dup1\n      revert\n    tag_23:\n      pop\n      tag_24\n      tag_25\n      jump\t// in\n    tag_24:\n      mload(0x40)\n      tag_26\n      swap2\n      swap1\n      tag_27\n      jump\t// in\n    tag_26:\n      mload(0x40)\n      dup1\n      swap2\n      sub\n      swap1\n      return\n        /* \"contracts/SimpleSmartWallet.sol\":1688:1979  function transferTo(address payable _to,uint256 _amount) public OnlyAuthorizedUser{... */\n    tag_5:\n      callvalue\n      dup1\n      iszero\n      tag_28\n      jumpi\n      0x00\n      dup1\n      revert\n    tag_28:\n      pop\n      tag_29\n      0x04\n      dup1\n      calldatasize\n      sub\n      dup2\n      add\n      swap1\n      tag_30\n      swap2\n      swap1\n      tag_31\n      jump\t// in\n    tag_30:\n      tag_32\n      jump\t// in\n    tag_29:\n      stop\n        /* \"contracts/SimpleSmartWallet.sol\":1401:1682  function withdraw(uint256 _amount)public OnlyAuthorizedUser{... */\n    tag_6:\n      callvalue\n      dup1\n      iszero\n      tag_33\n      jumpi\n      0x00\n      dup1\n      revert\n    tag_33:\n      pop\n      tag_34\n      0x04\n      dup1\n      calldatasize\n      sub\n      dup2\n      add\n      swap1\n      tag_35\n      swap2\n      swap1\n      tag_36\n      jump\t// in\n    tag_35:\n      tag_37\n      jump\t// in\n    tag_34:\n      stop\n        /* \"contracts/SimpleSmartWallet.sol\":2100:2228  function getBalanceOfMyWallet(address _myWallet)public view returns(uint256){... */\n    tag_7:\n      callvalue\n      dup1\n      iszero\n      tag_38\n      jumpi\n      0x00\n      dup1\n      revert\n    tag_38:\n      pop\n      tag_39\n      0x04\n      dup1\n      calldatasize\n      sub\n      dup2\n      add\n      swap1\n      tag_40\n      swap2\n      swap1\n      tag_15\n      jump\t// in\n    tag_40:\n      tag_41\n      jump\t// in\n    tag_39:\n      mload(0x40)\n      tag_42\n      swap2\n      swap1\n      tag_27\n      jump\t// in\n    tag_42:\n      mload(0x40)\n      dup1\n      swap2\n      sub\n      swap1\n      return\n        /* \"contracts/SimpleSmartWallet.sol\":357:409  mapping(address => uint256) public balanceOfAccounts */\n    tag_8:\n      callvalue\n      dup1\n      iszero\n      tag_43\n      jumpi\n      0x00\n      dup1\n      revert\n    tag_43:\n      pop\n      tag_44\n      0x04\n      dup1\n      calldatasize\n      sub\n      dup2\n      add\n      swap1\n      tag_45\n      swap2\n      swap1\n      tag_15\n      jump\t// in\n    tag_45:\n      tag_46\n      jump\t// in\n    tag_44:\n      mload(0x40)\n      tag_47\n      swap2\n      swap1\n      tag_27\n      jump\t// in\n    tag_47:\n      mload(0x40)\n      dup1\n      swap2\n      sub\n      swap1\n      return\n        /* \"contracts/SimpleSmartWallet.sol\":278:298  address public owner */\n    tag_9:\n      callvalue\n      dup1\n      iszero\n      tag_48\n      jumpi\n      0x00\n      dup1\n      revert\n    tag_48:\n      pop\n      tag_49\n      tag_50\n      jump\t// in\n    tag_49:\n      mload(0x40)\n      tag_51\n      swap2\n      swap1\n      tag_52\n      jump\t// in\n    tag_51:\n      mload(0x40)\n      dup1\n      swap2\n      sub\n      swap1\n      return\n        /* \"contracts/SimpleSmartWallet.sol\":1214:1395  function deposit()public payable {... */\n    tag_10:\n      tag_53\n      tag_54\n      jump\t// in\n    tag_53:\n      stop\n        /* \"contracts/SimpleSmartWallet.sol\":1063:1208  function addAuthorizedUser(address _user)public onlyOwner{... */\n    tag_16:\n        /* \"contracts/SimpleSmartWallet.sol\":820:825  owner */\n      0x00\n      dup1\n      sload\n      swap1\n      0x0100\n      exp\n      swap1\n      div\n      0xffffffffffffffffffffffffffffffffffffffff\n      and\n        /* \"contracts/SimpleSmartWallet.sol\":806:825  msg.sender != owner */\n      0xffffffffffffffffffffffffffffffffffffffff\n      and\n        /* \"contracts/SimpleSmartWallet.sol\":806:816  msg.sender */\n      caller\n        /* \"contracts/SimpleSmartWallet.sol\":806:825  msg.sender != owner */\n      0xffffffffffffffffffffffffffffffffffffffff\n      and\n      eq\n        /* \"contracts/SimpleSmartWallet.sol\":803:856  if(msg.sender != owner) revert _NotOwnerSimpleWalet() */\n      tag_56\n      jumpi\n        /* \"contracts/SimpleSmartWallet.sol\":834:856  _NotOwnerSimpleWalet() */\n      mload(0x40)\n      0x10b1d06900000000000000000000000000000000000000000000000000000000\n      dup2\n      mstore\n      0x04\n      add\n      mload(0x40)\n      dup1\n      swap2\n      sub\n      swap1\n      revert\n        /* \"contracts/SimpleSmartWallet.sol\":803:856  if(msg.sender != owner) revert _NotOwnerSimpleWalet() */\n    tag_56:\n        /* \"contracts/SimpleSmartWallet.sol\":1155:1159  true */\n      0x01\n        /* \"contracts/SimpleSmartWallet.sol\":1130:1145  authorizedUsers */\n      dup1\n        /* \"contracts/SimpleSmartWallet.sol\":1130:1152  authorizedUsers[_user] */\n      0x00\n        /* \"contracts/SimpleSmartWallet.sol\":1146:1151  _user */\n      dup4\n        /* \"contracts/SimpleSmartWallet.sol\":1130:1152  authorizedUsers[_user] */\n      0xffffffffffffffffffffffffffffffffffffffff\n      and\n      0xffffffffffffffffffffffffffffffffffffffff\n      and\n      dup2\n      mstore\n      0x20\n      add\n      swap1\n      dup2\n      mstore\n      0x20\n      add\n      0x00\n      keccak256\n      0x00\n        /* \"contracts/SimpleSmartWallet.sol\":1130:1159  authorizedUsers[_user] = true */\n      0x0100\n      exp\n      dup2\n      sload\n      dup2\n      0xff\n      mul\n      not\n      and\n      swap1\n      dup4\n      iszero\n      iszero\n      mul\n      or\n      swap1\n      sstore\n      pop\n        /* \"contracts/SimpleSmartWallet.sol\":1195:1200  _user */\n      dup1\n        /* \"contracts/SimpleSmartWallet.sol\":1174:1201  AuthorizedUsersAdded(_user) */\n      0xffffffffffffffffffffffffffffffffffffffff\n      and\n      0x7982b5adc9651a82d249539a6f97b0de6cc9bd2ee1db3b2674ddc0f8066c662f\n      mload(0x40)\n      mload(0x40)\n      dup1\n      swap2\n      sub\n      swap1\n      log2\n        /* \"contracts/SimpleSmartWallet.sol\":1063:1208  function addAuthorizedUser(address _user)public onlyOwner{... */\n      pop\n      jump\t// out\n        /* \"contracts/SimpleSmartWallet.sol\":304:351  mapping(address => bool) public authorizedUsers */\n    tag_20:\n      mstore(0x20, 0x01)\n      dup1\n      0x00\n      mstore\n      keccak256(0x00, 0x40)\n      0x00\n      swap2\n      pop\n      sload\n      swap1\n      0x0100\n      exp\n      swap1\n      div\n      0xff\n      and\n      dup2\n      jump\t// out\n        /* \"contracts/SimpleSmartWallet.sol\":1985:2090  function getBalanceOfContract() public view returns(uint256){... */\n    tag_25:\n        /* \"contracts/SimpleSmartWallet.sol\":2037:2044  uint256 */\n      0x00\n        /* \"contracts/SimpleSmartWallet.sol\":2062:2083  address(this).balance */\n      selfbalance\n        /* \"contracts/SimpleSmartWallet.sol\":2055:2083  return address(this).balance */\n      swap1\n      pop\n        /* \"contracts/SimpleSmartWallet.sol\":1985:2090  function getBalanceOfContract() public view returns(uint256){... */\n      swap1\n      jump\t// out\n        /* \"contracts/SimpleSmartWallet.sol\":1688:1979  function transferTo(address payable _to,uint256 _amount) public OnlyAuthorizedUser{... */\n    tag_32:\n        /* \"contracts/SimpleSmartWallet.sol\":923:938  authorizedUsers */\n      0x01\n        /* \"contracts/SimpleSmartWallet.sol\":923:950  authorizedUsers[msg.sender] */\n      0x00\n        /* \"contracts/SimpleSmartWallet.sol\":939:949  msg.sender */\n      caller\n        /* \"contracts/SimpleSmartWallet.sol\":923:950  authorizedUsers[msg.sender] */\n      0xffffffffffffffffffffffffffffffffffffffff\n      and\n      0xffffffffffffffffffffffffffffffffffffffff\n      and\n      dup2\n      mstore\n      0x20\n      add\n      swap1\n      dup2\n      mstore\n      0x20\n      add\n      0x00\n      keccak256\n      0x00\n      swap1\n      sload\n      swap1\n      0x0100\n      exp\n      swap1\n      div\n      0xff\n      and\n        /* \"contracts/SimpleSmartWallet.sol\":919:985  if(!authorizedUsers[msg.sender]) revert _NotAutorizedSimpleWalet() */\n      tag_60\n      jumpi\n        /* \"contracts/SimpleSmartWallet.sol\":959:985  _NotAutorizedSimpleWalet() */\n      mload(0x40)\n      0xcd56e1f200000000000000000000000000000000000000000000000000000000\n      dup2\n      mstore\n      0x04\n      add\n      mload(0x40)\n      dup1\n      swap2\n      sub\n      swap1\n      revert\n        /* \"contracts/SimpleSmartWallet.sol\":919:985  if(!authorizedUsers[msg.sender]) revert _NotAutorizedSimpleWalet() */\n    tag_60:\n        /* \"contracts/SimpleSmartWallet.sol\":1780:1795  uint256 balance */\n      0x00\n        /* \"contracts/SimpleSmartWallet.sol\":1798:1819  address(this).balance */\n      selfbalance\n        /* \"contracts/SimpleSmartWallet.sol\":1780:1819  uint256 balance = address(this).balance */\n      swap1\n      pop\n        /* \"contracts/SimpleSmartWallet.sol\":1843:1850  _amount */\n      dup2\n        /* \"contracts/SimpleSmartWallet.sol\":1833:1840  balance */\n      dup2\n        /* \"contracts/SimpleSmartWallet.sol\":1833:1850  balance < _amount */\n      lt\n        /* \"contracts/SimpleSmartWallet.sol\":1829:1892  if (balance < _amount) revert _InsufficientBalanceSimpleWalet() */\n      iszero\n      tag_62\n      jumpi\n        /* \"contracts/SimpleSmartWallet.sol\":1859:1892  _InsufficientBalanceSimpleWalet() */\n      mload(0x40)\n      0x0bfd736500000000000000000000000000000000000000000000000000000000\n      dup2\n      mstore\n      0x04\n      add\n      mload(0x40)\n      dup1\n      swap2\n      sub\n      swap1\n      revert\n        /* \"contracts/SimpleSmartWallet.sol\":1829:1892  if (balance < _amount) revert _InsufficientBalanceSimpleWalet() */\n    tag_62:\n        /* \"contracts/SimpleSmartWallet.sol\":1902:1905  _to */\n      dup3\n        /* \"contracts/SimpleSmartWallet.sol\":1902:1914  _to.transfer */\n      0xffffffffffffffffffffffffffffffffffffffff\n      and\n        /* \"contracts/SimpleSmartWallet.sol\":1902:1923  _to.transfer(_amount) */\n      0x08fc\n        /* \"contracts/SimpleSmartWallet.sol\":1915:1922  _amount */\n      dup4\n        /* \"contracts/SimpleSmartWallet.sol\":1902:1923  _to.transfer(_amount) */\n      swap1\n      dup2\n      iszero\n      mul\n      swap1\n      mload(0x40)\n      0x00\n      mload(0x40)\n      dup1\n      dup4\n      sub\n      dup2\n      dup6\n      dup9\n      dup9\n      call\n      swap4\n      pop\n      pop\n      pop\n      pop\n      iszero\n      dup1\n      iszero\n      tag_64\n      jumpi\n      returndatasize\n      0x00\n      dup1\n      returndatacopy\n      revert(0x00, returndatasize)\n    tag_64:\n      pop\n        /* \"contracts/SimpleSmartWallet.sol\":1959:1962  _to */\n      dup3\n        /* \"contracts/SimpleSmartWallet.sol\":1938:1972  Transfer(msg.sender, _to, _amount) */\n      0xffffffffffffffffffffffffffffffffffffffff\n      and\n        /* \"contracts/SimpleSmartWallet.sol\":1947:1957  msg.sender */\n      caller\n        /* \"contracts/SimpleSmartWallet.sol\":1938:1972  Transfer(msg.sender, _to, _amount) */\n      0xffffffffffffffffffffffffffffffffffffffff\n      and\n      0xddf252ad1be2c89b69c2b068fc378daa952ba7f163c4a11628f55a4df523b3ef\n        /* \"contracts/SimpleSmartWallet.sol\":1964:1971  _amount */\n      dup5\n        /* \"contracts/SimpleSmartWallet.sol\":1938:1972  Transfer(msg.sender, _to, _amount) */\n      mload(0x40)\n      tag_65\n      swap2\n      swap1\n      tag_27\n      jump\t// in\n    tag_65:\n      mload(0x40)\n      dup1\n      swap2\n      sub\n      swap1\n      log3\n        /* \"contracts/SimpleSmartWallet.sol\":1770:1979  {... */\n      pop\n        /* \"contracts/SimpleSmartWallet.sol\":1688:1979  function transferTo(address payable _to,uint256 _amount) public OnlyAuthorizedUser{... */\n      pop\n      pop\n      jump\t// out\n        /* \"contracts/SimpleSmartWallet.sol\":1401:1682  function withdraw(uint256 _amount)public OnlyAuthorizedUser{... */\n    tag_37:\n        /* \"contracts/SimpleSmartWallet.sol\":923:938  authorizedUsers */\n      0x01\n        /* \"contracts/SimpleSmartWallet.sol\":923:950  authorizedUsers[msg.sender] */\n      0x00\n        /* \"contracts/SimpleSmartWallet.sol\":939:949  msg.sender */\n      caller\n        /* \"contracts/SimpleSmartWallet.sol\":923:950  authorizedUsers[msg.sender] */\n      0xffffffffffffffffffffffffffffffffffffffff\n      and\n      0xffffffffffffffffffffffffffffffffffffffff\n      and\n      dup2\n      mstore\n      0x20\n      add\n      swap1\n      dup2\n      mstore\n      0x20\n      add\n      0x00\n      keccak256\n      0x00\n      swap1\n      sload\n      swap1\n      0x0100\n      exp\n      swap1\n      div\n      0xff\n      and\n        /* \"contracts/SimpleSmartWallet.sol\":919:985  if(!authorizedUsers[msg.sender]) revert _NotAutorizedSimpleWalet() */\n      tag_67\n      jumpi\n        /* \"contracts/SimpleSmartWallet.sol\":959:985  _NotAutorizedSimpleWalet() */\n      mload(0x40)\n      0xcd56e1f200000000000000000000000000000000000000000000000000000000\n      dup2\n      mstore\n      0x04\n      add\n      mload(0x40)\n      dup1\n      swap2\n      sub\n      swap1\n      revert\n        /* \"contracts/SimpleSmartWallet.sol\":919:985  if(!authorizedUsers[msg.sender]) revert _NotAutorizedSimpleWalet() */\n    tag_67:\n        /* \"contracts/SimpleSmartWallet.sol\":1470:1485  uint256 balance */\n      0x00\n        /* \"contracts/SimpleSmartWallet.sol\":1488:1509  address(this).balance */\n      selfbalance\n        /* \"contracts/SimpleSmartWallet.sol\":1470:1509  uint256 balance = address(this).balance */\n      swap1\n      pop\n        /* \"contracts/SimpleSmartWallet.sol\":1533:1540  _amount */\n      dup2\n        /* \"contracts/SimpleSmartWallet.sol\":1523:1530  balance */\n      dup2\n        /* \"contracts/SimpleSmartWallet.sol\":1523:1540  balance < _amount */\n      lt\n        /* \"contracts/SimpleSmartWallet.sol\":1519:1582  if (balance < _amount) revert _InsufficientBalanceSimpleWalet() */\n      iszero\n      tag_69\n      jumpi\n        /* \"contracts/SimpleSmartWallet.sol\":1549:1582  _InsufficientBalanceSimpleWalet() */\n      mload(0x40)\n      0x0bfd736500000000000000000000000000000000000000000000000000000000\n      dup2\n      mstore\n      0x04\n      add\n      mload(0x40)\n      dup1\n      swap2\n      sub\n      swap1\n      revert\n        /* \"contracts/SimpleSmartWallet.sol\":1519:1582  if (balance < _amount) revert _InsufficientBalanceSimpleWalet() */\n    tag_69:\n        /* \"contracts/SimpleSmartWallet.sol\":1600:1610  msg.sender */\n      caller\n        /* \"contracts/SimpleSmartWallet.sol\":1592:1620  payable(msg.sender).transfer */\n      0xffffffffffffffffffffffffffffffffffffffff\n      and\n        /* \"contracts/SimpleSmartWallet.sol\":1592:1629  payable(msg.sender).transfer(_amount) */\n      0x08fc\n        /* \"contracts/SimpleSmartWallet.sol\":1621:1628  _amount */\n      dup4\n        /* \"contracts/SimpleSmartWallet.sol\":1592:1629  payable(msg.sender).transfer(_amount) */\n      swap1\n      dup2\n      iszero\n      mul\n      swap1\n      mload(0x40)\n      0x00\n      mload(0x40)\n      dup1\n      dup4\n      sub\n      dup2\n      dup6\n      dup9\n      dup9\n      call\n      swap4\n      pop\n      pop\n      pop\n      pop\n      iszero\n      dup1\n      iszero\n      tag_71\n      jumpi\n      returndatasize\n      0x00\n      dup1\n      returndatacopy\n      revert(0x00, returndatasize)\n    tag_71:\n      pop\n        /* \"contracts/SimpleSmartWallet.sol\":1655:1665  msg.sender */\n      caller\n        /* \"contracts/SimpleSmartWallet.sol\":1644:1675  WithDrawal(msg.sender, _amount) */\n      0xffffffffffffffffffffffffffffffffffffffff\n      and\n      0xb6e26e54bd578616699ab07efb4c2e322b45a80673803bbb259443d9fecee652\n        /* \"contracts/SimpleSmartWallet.sol\":1667:1674  _amount */\n      dup4\n        /* \"contracts/SimpleSmartWallet.sol\":1644:1675  WithDrawal(msg.sender, _amount) */\n      mload(0x40)\n      tag_72\n      swap2\n      swap1\n      tag_27\n      jump\t// in\n    tag_72:\n      mload(0x40)\n      dup1\n      swap2\n      sub\n      swap1\n      log2\n        /* \"contracts/SimpleSmartWallet.sol\":1460:1682  {... */\n      pop\n        /* \"contracts/SimpleSmartWallet.sol\":1401:1682  function withdraw(uint256 _amount)public OnlyAuthorizedUser{... */\n      pop\n      jump\t// out\n        /* \"contracts/SimpleSmartWallet.sol\":2100:2228  function getBalanceOfMyWallet(address _myWallet)public view returns(uint256){... */\n    tag_41:\n        /* \"contracts/SimpleSmartWallet.sol\":2168:2175  uint256 */\n      0x00\n        /* \"contracts/SimpleSmartWallet.sol\":2193:2210  balanceOfAccounts */\n      0x02\n        /* \"contracts/SimpleSmartWallet.sol\":2193:2221  balanceOfAccounts[_myWallet] */\n      0x00\n        /* \"contracts/SimpleSmartWallet.sol\":2211:2220  _myWallet */\n      dup4\n        /* \"contracts/SimpleSmartWallet.sol\":2193:2221  balanceOfAccounts[_myWallet] */\n      0xffffffffffffffffffffffffffffffffffffffff\n      and\n      0xffffffffffffffffffffffffffffffffffffffff\n      and\n      dup2\n      mstore\n      0x20\n      add\n      swap1\n      dup2\n      mstore\n      0x20\n      add\n      0x00\n      keccak256\n      sload\n        /* \"contracts/SimpleSmartWallet.sol\":2186:2221  return balanceOfAccounts[_myWallet] */\n      swap1\n      pop\n        /* \"contracts/SimpleSmartWallet.sol\":2100:2228  function getBalanceOfMyWallet(address _myWallet)public view returns(uint256){... */\n      swap2\n      swap1\n      pop\n      jump\t// out\n        /* \"contracts/SimpleSmartWallet.sol\":357:409  mapping(address => uint256) public balanceOfAccounts */\n    tag_46:\n      mstore(0x20, 0x02)\n      dup1\n      0x00\n      mstore\n      keccak256(0x00, 0x40)\n      0x00\n      swap2\n      pop\n      swap1\n      pop\n      sload\n      dup2\n      jump\t// out\n        /* \"contracts/SimpleSmartWallet.sol\":278:298  address public owner */\n    tag_50:\n      0x00\n      dup1\n      sload\n      swap1\n      0x0100\n      exp\n      swap1\n      div\n      0xffffffffffffffffffffffffffffffffffffffff\n      and\n      dup2\n      jump\t// out\n        /* \"contracts/SimpleSmartWallet.sol\":1214:1395  function deposit()public payable {... */\n    tag_54:\n        /* \"contracts/SimpleSmartWallet.sol\":1287:1291  true */\n      0x01\n        /* \"contracts/SimpleSmartWallet.sol\":1257:1272  authorizedUsers */\n      dup1\n        /* \"contracts/SimpleSmartWallet.sol\":1257:1284  authorizedUsers[msg.sender] */\n      0x00\n        /* \"contracts/SimpleSmartWallet.sol\":1273:1283  msg.sender */\n      caller\n        /* \"contracts/SimpleSmartWallet.sol\":1257:1284  authorizedUsers[msg.sender] */\n      0xffffffffffffffffffffffffffffffffffffffff\n      and\n      0xffffffffffffffffffffffffffffffffffffffff\n      and\n      dup2\n      mstore\n      0x20\n      add\n      swap1\n      dup2\n      mstore\n      0x20\n      add\n      0x00\n      keccak256\n      0x00\n        /* \"contracts/SimpleSmartWallet.sol\":1257:1291  authorizedUsers[msg.sender] = true */\n      0x0100\n      exp\n      dup2\n      sload\n      dup2\n      0xff\n      mul\n      not\n      and\n      swap1\n      dup4\n      iszero\n      iszero\n      mul\n      or\n      swap1\n      sstore\n      pop\n        /* \"contracts/SimpleSmartWallet.sol\":1334:1343  msg.value */\n      callvalue\n        /* \"contracts/SimpleSmartWallet.sol\":1301:1318  balanceOfAccounts */\n      0x02\n        /* \"contracts/SimpleSmartWallet.sol\":1301:1330  balanceOfAccounts[msg.sender] */\n      0x00\n        /* \"contracts/SimpleSmartWallet.sol\":1319:1329  msg.sender */\n      caller\n        /* \"contracts/SimpleSmartWallet.sol\":1301:1330  balanceOfAccounts[msg.sender] */\n      0xffffffffffffffffffffffffffffffffffffffff\n      and\n      0xffffffffffffffffffffffffffffffffffffffff\n      and\n      dup2\n      mstore\n      0x20\n      add\n      swap1\n      dup2\n      mstore\n      0x20\n      add\n      0x00\n      keccak256\n      0x00\n        /* \"contracts/SimpleSmartWallet.sol\":1301:1343  balanceOfAccounts[msg.sender] += msg.value */\n      dup3\n      dup3\n      sload\n      tag_75\n      swap2\n      swap1\n      tag_76\n      jump\t// in\n    tag_75:\n      swap3\n      pop\n      pop\n      dup2\n      swap1\n      sstore\n      pop\n        /* \"contracts/SimpleSmartWallet.sol\":1366:1376  msg.sender */\n      caller\n        /* \"contracts/SimpleSmartWallet.sol\":1358:1388  Deposit(msg.sender, msg.value) */\n      0xffffffffffffffffffffffffffffffffffffffff\n      and\n      0xe1fffcc4923d04b559f4d29a8bfc6cda04eb5b0d3c460751c2402c5c5cc9109c\n        /* \"contracts/SimpleSmartWallet.sol\":1378:1387  msg.value */\n      callvalue\n        /* \"contracts/SimpleSmartWallet.sol\":1358:1388  Deposit(msg.sender, msg.value) */\n      mload(0x40)\n      tag_77\n      swap2\n      swap1\n      tag_27\n      jump\t// in\n    tag_77:\n      mload(0x40)\n      dup1\n      swap2\n      sub\n      swap1\n      log2\n        /* \"contracts/SimpleSmartWallet.sol\":1214:1395  function deposit()public payable {... */\n      jump\t// out\n        /* \"#utility.yul\":88:205   */\n    tag_79:\n        /* \"#utility.yul\":197:198   */\n      0x00\n        /* \"#utility.yul\":194:195   */\n      dup1\n        /* \"#utility.yul\":187:199   */\n      revert\n        /* \"#utility.yul\":334:460   */\n    tag_81:\n        /* \"#utility.yul\":371:378   */\n      0x00\n        /* \"#utility.yul\":411:453   */\n      0xffffffffffffffffffffffffffffffffffffffff\n        /* \"#utility.yul\":404:409   */\n      dup3\n        /* \"#utility.yul\":400:454   */\n      and\n        /* \"#utility.yul\":389:454   */\n      swap1\n      pop\n        /* \"#utility.yul\":334:460   */\n      swap2\n      swap1\n      pop\n      jump\t// out\n        /* \"#utility.yul\":466:562   */\n    tag_82:\n        /* \"#utility.yul\":503:510   */\n      0x00\n        /* \"#utility.yul\":532:556   */\n      tag_102\n        /* \"#utility.yul\":550:555   */\n      dup3\n        /* \"#utility.yul\":532:556   */\n      tag_81\n      jump\t// in\n    tag_102:\n        /* \"#utility.yul\":521:556   */\n      swap1\n      pop\n        /* \"#utility.yul\":466:562   */\n      swap2\n      swap1\n      pop\n      jump\t// out\n        /* \"#utility.yul\":568:690   */\n    tag_83:\n        /* \"#utility.yul\":641:665   */\n      tag_104\n        /* \"#utility.yul\":659:664   */\n      dup2\n        /* \"#utility.yul\":641:665   */\n      tag_82\n      jump\t// in\n    tag_104:\n        /* \"#utility.yul\":634:639   */\n      dup2\n        /* \"#utility.yul\":631:666   */\n      eq\n        /* \"#utility.yul\":621:684   */\n      tag_105\n      jumpi\n        /* \"#utility.yul\":680:681   */\n      0x00\n        /* \"#utility.yul\":677:678   */\n      dup1\n        /* \"#utility.yul\":670:682   */\n      revert\n        /* \"#utility.yul\":621:684   */\n    tag_105:\n        /* \"#utility.yul\":568:690   */\n      pop\n      jump\t// out\n        /* \"#utility.yul\":696:835   */\n    tag_84:\n        /* \"#utility.yul\":742:747   */\n      0x00\n        /* \"#utility.yul\":780:786   */\n      dup2\n        /* \"#utility.yul\":767:787   */\n      calldataload\n        /* \"#utility.yul\":758:787   */\n      swap1\n      pop\n        /* \"#utility.yul\":796:829   */\n      tag_107\n        /* \"#utility.yul\":823:828   */\n      dup2\n        /* \"#utility.yul\":796:829   */\n      tag_83\n      jump\t// in\n    tag_107:\n        /* \"#utility.yul\":696:835   */\n      swap3\n      swap2\n      pop\n      pop\n      jump\t// out\n        /* \"#utility.yul\":841:1170   */\n    tag_15:\n        /* \"#utility.yul\":900:906   */\n      0x00\n        /* \"#utility.yul\":949:951   */\n      0x20\n        /* \"#utility.yul\":937:946   */\n      dup3\n        /* \"#utility.yul\":928:935   */\n      dup5\n        /* \"#utility.yul\":924:947   */\n      sub\n        /* \"#utility.yul\":920:952   */\n      slt\n        /* \"#utility.yul\":917:1036   */\n      iszero\n      tag_109\n      jumpi\n        /* \"#utility.yul\":955:1034   */\n      tag_110\n      tag_79\n      jump\t// in\n    tag_110:\n        /* \"#utility.yul\":917:1036   */\n    tag_109:\n        /* \"#utility.yul\":1075:1076   */\n      0x00\n        /* \"#utility.yul\":1100:1153   */\n      tag_111\n        /* \"#utility.yul\":1145:1152   */\n      dup5\n        /* \"#utility.yul\":1136:1142   */\n      dup3\n        /* \"#utility.yul\":1125:1134   */\n      dup6\n        /* \"#utility.yul\":1121:1143   */\n      add\n        /* \"#utility.yul\":1100:1153   */\n      tag_84\n      jump\t// in\n    tag_111:\n        /* \"#utility.yul\":1090:1153   */\n      swap2\n      pop\n        /* \"#utility.yul\":1046:1163   */\n      pop\n        /* \"#utility.yul\":841:1170   */\n      swap3\n      swap2\n      pop\n      pop\n      jump\t// out\n        /* \"#utility.yul\":1176:1266   */\n    tag_85:\n        /* \"#utility.yul\":1210:1217   */\n      0x00\n        /* \"#utility.yul\":1253:1258   */\n      dup2\n        /* \"#utility.yul\":1246:1259   */\n      iszero\n        /* \"#utility.yul\":1239:1260   */\n      iszero\n        /* \"#utility.yul\":1228:1260   */\n      swap1\n      pop\n        /* \"#utility.yul\":1176:1266   */\n      swap2\n      swap1\n      pop\n      jump\t// out\n        /* \"#utility.yul\":1272:1381   */\n    tag_86:\n        /* \"#utility.yul\":1353:1374   */\n      tag_114\n        /* \"#utility.yul\":1368:1373   */\n      dup2\n        /* \"#utility.yul\":1353:1374   */\n      tag_85\n      jump\t// in\n    tag_114:\n        /* \"#utility.yul\":1348:1351   */\n      dup3\n        /* \"#utility.yul\":1341:1375   */\n      mstore\n        /* \"#utility.yul\":1272:1381   */\n      pop\n      pop\n      jump\t// out\n        /* \"#utility.yul\":1387:1597   */\n    tag_22:\n        /* \"#utility.yul\":1474:1478   */\n      0x00\n        /* \"#utility.yul\":1512:1514   */\n      0x20\n        /* \"#utility.yul\":1501:1510   */\n      dup3\n        /* \"#utility.yul\":1497:1515   */\n      add\n        /* \"#utility.yul\":1489:1515   */\n      swap1\n      pop\n        /* \"#utility.yul\":1525:1590   */\n      tag_116\n        /* \"#utility.yul\":1587:1588   */\n      0x00\n        /* \"#utility.yul\":1576:1585   */\n      dup4\n        /* \"#utility.yul\":1572:1589   */\n      add\n        /* \"#utility.yul\":1563:1569   */\n      dup5\n        /* \"#utility.yul\":1525:1590   */\n      tag_86\n      jump\t// in\n    tag_116:\n        /* \"#utility.yul\":1387:1597   */\n      swap3\n      swap2\n      pop\n      pop\n      jump\t// out\n        /* \"#utility.yul\":1603:1680   */\n    tag_87:\n        /* \"#utility.yul\":1640:1647   */\n      0x00\n        /* \"#utility.yul\":1669:1674   */\n      dup2\n        /* \"#utility.yul\":1658:1674   */\n      swap1\n      pop\n        /* \"#utility.yul\":1603:1680   */\n      swap2\n      swap1\n      pop\n      jump\t// out\n        /* \"#utility.yul\":1686:1804   */\n    tag_88:\n        /* \"#utility.yul\":1773:1797   */\n      tag_119\n        /* \"#utility.yul\":1791:1796   */\n      dup2\n        /* \"#utility.yul\":1773:1797   */\n      tag_87\n      jump\t// in\n    tag_119:\n        /* \"#utility.yul\":1768:1771   */\n      dup3\n        /* \"#utility.yul\":1761:1798   */\n      mstore\n        /* \"#utility.yul\":1686:1804   */\n      pop\n      pop\n      jump\t// out\n        /* \"#utility.yul\":1810:2032   */\n    tag_27:\n        /* \"#utility.yul\":1903:1907   */\n      0x00\n        /* \"#utility.yul\":1941:1943   */\n      0x20\n        /* \"#utility.yul\":1930:1939   */\n      dup3\n        /* \"#utility.yul\":1926:1944   */\n      add\n        /* \"#utility.yul\":1918:1944   */\n      swap1\n      pop\n        /* \"#utility.yul\":1954:2025   */\n      tag_121\n        /* \"#utility.yul\":2022:2023   */\n      0x00\n        /* \"#utility.yul\":2011:2020   */\n      dup4\n        /* \"#utility.yul\":2007:2024   */\n      add\n        /* \"#utility.yul\":1998:2004   */\n      dup5\n        /* \"#utility.yul\":1954:2025   */\n      tag_88\n      jump\t// in\n    tag_121:\n        /* \"#utility.yul\":1810:2032   */\n      swap3\n      swap2\n      pop\n      pop\n      jump\t// out\n        /* \"#utility.yul\":2038:2142   */\n    tag_89:\n        /* \"#utility.yul\":2083:2090   */\n      0x00\n        /* \"#utility.yul\":2112:2136   */\n      tag_123\n        /* \"#utility.yul\":2130:2135   */\n      dup3\n        /* \"#utility.yul\":2112:2136   */\n      tag_81\n      jump\t// in\n    tag_123:\n        /* \"#utility.yul\":2101:2136   */\n      swap1\n      pop\n        /* \"#utility.yul\":2038:2142   */\n      swap2\n      swap1\n      pop\n      jump\t// out\n        /* \"#utility.yul\":2148:2286   */\n    tag_90:\n        /* \"#utility.yul\":2229:2261   */\n      tag_125\n        /* \"#utility.yul\":2255:2260   */\n      dup2\n        /* \"#utility.yul\":2229:2261   */\n      tag_89\n      jump\t// in\n    tag_125:\n        /* \"#utility.yul\":2222:2227   */\n      dup2\n        /* \"#utility.yul\":2219:2262   */\n      eq\n        /* \"#utility.yul\":2209:2280   */\n      tag_126\n      jumpi\n        /* \"#utility.yul\":2276:2277   */\n      0x00\n        /* \"#utility.yul\":2273:2274   */\n      dup1\n        /* \"#utility.yul\":2266:2278   */\n      revert\n        /* \"#utility.yul\":2209:2280   */\n    tag_126:\n        /* \"#utility.yul\":2148:2286   */\n      pop\n      jump\t// out\n        /* \"#utility.yul\":2292:2447   */\n    tag_91:\n        /* \"#utility.yul\":2346:2351   */\n      0x00\n        /* \"#utility.yul\":2384:2390   */\n      dup2\n        /* \"#utility.yul\":2371:2391   */\n      calldataload\n        /* \"#utility.yul\":2362:2391   */\n      swap1\n      pop\n        /* \"#utility.yul\":2400:2441   */\n      tag_128\n        /* \"#utility.yul\":2435:2440   */\n      dup2\n        /* \"#utility.yul\":2400:2441   */\n      tag_90\n      jump\t// in\n    tag_128:\n        /* \"#utility.yul\":2292:2447   */\n      swap3\n      swap2\n      pop\n      pop\n      jump\t// out\n        /* \"#utility.yul\":2453:2575   */\n    tag_92:\n        /* \"#utility.yul\":2526:2550   */\n      tag_130\n        /* \"#utility.yul\":2544:2549   */\n      dup2\n        /* \"#utility.yul\":2526:2550   */\n      tag_87\n      jump\t// in\n    tag_130:\n        /* \"#utility.yul\":2519:2524   */\n      dup2\n        /* \"#utility.yul\":2516:2551   */\n      eq\n        /* \"#utility.yul\":2506:2569   */\n      tag_131\n      jumpi\n        /* \"#utility.yul\":2565:2566   */\n      0x00\n        /* \"#utility.yul\":2562:2563   */\n      dup1\n        /* \"#utility.yul\":2555:2567   */\n      revert\n        /* \"#utility.yul\":2506:2569   */\n    tag_131:\n        /* \"#utility.yul\":2453:2575   */\n      pop\n      jump\t// out\n        /* \"#utility.yul\":2581:2720   */\n    tag_93:\n        /* \"#utility.yul\":2627:2632   */\n      0x00\n        /* \"#utility.yul\":2665:2671   */\n      dup2\n        /* \"#utility.yul\":2652:2672   */\n      calldataload\n        /* \"#utility.yul\":2643:2672   */\n      swap1\n      pop\n        /* \"#utility.yul\":2681:2714   */\n      tag_133\n        /* \"#utility.yul\":2708:2713   */\n      dup2\n        /* \"#utility.yul\":2681:2714   */\n      tag_92\n      jump\t// in\n    tag_133:\n        /* \"#utility.yul\":2581:2720   */\n      swap3\n      swap2\n      pop\n      pop\n      jump\t// out\n        /* \"#utility.yul\":2726:3216   */\n    tag_31:\n        /* \"#utility.yul\":2802:2808   */\n      0x00\n        /* \"#utility.yul\":2810:2816   */\n      dup1\n        /* \"#utility.yul\":2859:2861   */\n      0x40\n        /* \"#utility.yul\":2847:2856   */\n      dup4\n        /* \"#utility.yul\":2838:2845   */\n      dup6\n        /* \"#utility.yul\":2834:2857   */\n      sub\n        /* \"#utility.yul\":2830:2862   */\n      slt\n        /* \"#utility.yul\":2827:2946   */\n      iszero\n      tag_135\n      jumpi\n        /* \"#utility.yul\":2865:2944   */\n      tag_136\n      tag_79\n      jump\t// in\n    tag_136:\n        /* \"#utility.yul\":2827:2946   */\n    tag_135:\n        /* \"#utility.yul\":2985:2986   */\n      0x00\n        /* \"#utility.yul\":3010:3071   */\n      tag_137\n        /* \"#utility.yul\":3063:3070   */\n      dup6\n        /* \"#utility.yul\":3054:3060   */\n      dup3\n        /* \"#utility.yul\":3043:3052   */\n      dup7\n        /* \"#utility.yul\":3039:3061   */\n      add\n        /* \"#utility.yul\":3010:3071   */\n      tag_91\n      jump\t// in\n    tag_137:\n        /* \"#utility.yul\":3000:3071   */\n      swap3\n      pop\n        /* \"#utility.yul\":2956:3081   */\n      pop\n        /* \"#utility.yul\":3120:3122   */\n      0x20\n        /* \"#utility.yul\":3146:3199   */\n      tag_138\n        /* \"#utility.yul\":3191:3198   */\n      dup6\n        /* \"#utility.yul\":3182:3188   */\n      dup3\n        /* \"#utility.yul\":3171:3180   */\n      dup7\n        /* \"#utility.yul\":3167:3189   */\n      add\n        /* \"#utility.yul\":3146:3199   */\n      tag_93\n      jump\t// in\n    tag_138:\n        /* \"#utility.yul\":3136:3199   */\n      swap2\n      pop\n        /* \"#utility.yul\":3091:3209   */\n      pop\n        /* \"#utility.yul\":2726:3216   */\n      swap3\n      pop\n      swap3\n      swap1\n      pop\n      jump\t// out\n        /* \"#utility.yul\":3222:3551   */\n    tag_36:\n        /* \"#utility.yul\":3281:3287   */\n      0x00\n        /* \"#utility.yul\":3330:3332   */\n      0x20\n        /* \"#utility.yul\":3318:3327   */\n      dup3\n        /* \"#utility.yul\":3309:3316   */\n      dup5\n        /* \"#utility.yul\":3305:3328   */\n      sub\n        /* \"#utility.yul\":3301:3333   */\n      slt\n        /* \"#utility.yul\":3298:3417   */\n      iszero\n      tag_140\n      jumpi\n        /* \"#utility.yul\":3336:3415   */\n      tag_141\n      tag_79\n      jump\t// in\n    tag_141:\n        /* \"#utility.yul\":3298:3417   */\n    tag_140:\n        /* \"#utility.yul\":3456:3457   */\n      0x00\n        /* \"#utility.yul\":3481:3534   */\n      tag_142\n        /* \"#utility.yul\":3526:3533   */\n      dup5\n        /* \"#utility.yul\":3517:3523   */\n      dup3\n        /* \"#utility.yul\":3506:3515   */\n      dup6\n        /* \"#utility.yul\":3502:3524   */\n      add\n        /* \"#utility.yul\":3481:3534   */\n      tag_93\n      jump\t// in\n    tag_142:\n        /* \"#utility.yul\":3471:3534   */\n      swap2\n      pop\n        /* \"#utility.yul\":3427:3544   */\n      pop\n        /* \"#utility.yul\":3222:3551   */\n      swap3\n      swap2\n      pop\n      pop\n      jump\t// out\n        /* \"#utility.yul\":3557:3675   */\n    tag_94:\n        /* \"#utility.yul\":3644:3668   */\n      tag_144\n        /* \"#utility.yul\":3662:3667   */\n      dup2\n        /* \"#utility.yul\":3644:3668   */\n      tag_82\n      jump\t// in\n    tag_144:\n        /* \"#utility.yul\":3639:3642   */\n      dup3\n        /* \"#utility.yul\":3632:3669   */\n      mstore\n        /* \"#utility.yul\":3557:3675   */\n      pop\n      pop\n      jump\t// out\n        /* \"#utility.yul\":3681:3903   */\n    tag_52:\n        /* \"#utility.yul\":3774:3778   */\n      0x00\n        /* \"#utility.yul\":3812:3814   */\n      0x20\n        /* \"#utility.yul\":3801:3810   */\n      dup3\n        /* \"#utility.yul\":3797:3815   */\n      add\n        /* \"#utility.yul\":3789:3815   */\n      swap1\n      pop\n        /* \"#utility.yul\":3825:3896   */\n      tag_146\n        /* \"#utility.yul\":3893:3894   */\n      0x00\n        /* \"#utility.yul\":3882:3891   */\n      dup4\n        /* \"#utility.yul\":3878:3895   */\n      add\n        /* \"#utility.yul\":3869:3875   */\n      dup5\n        /* \"#utility.yul\":3825:3896   */\n      tag_94\n      jump\t// in\n    tag_146:\n        /* \"#utility.yul\":3681:3903   */\n      swap3\n      swap2\n      pop\n      pop\n      jump\t// out\n        /* \"#utility.yul\":3909:4089   */\n    tag_95:\n        /* \"#utility.yul\":3957:4034   */\n      0x4e487b7100000000000000000000000000000000000000000000000000000000\n        /* \"#utility.yul\":3954:3955   */\n      0x00\n        /* \"#utility.yul\":3947:4035   */\n      mstore\n        /* \"#utility.yul\":4054:4058   */\n      0x11\n        /* \"#utility.yul\":4051:4052   */\n      0x04\n        /* \"#utility.yul\":4044:4059   */\n      mstore\n        /* \"#utility.yul\":4078:4082   */\n      0x24\n        /* \"#utility.yul\":4075:4076   */\n      0x00\n        /* \"#utility.yul\":4068:4083   */\n      revert\n        /* \"#utility.yul\":4095:4286   */\n    tag_76:\n        /* \"#utility.yul\":4135:4138   */\n      0x00\n        /* \"#utility.yul\":4154:4174   */\n      tag_149\n        /* \"#utility.yul\":4172:4173   */\n      dup3\n        /* \"#utility.yul\":4154:4174   */\n      tag_87\n      jump\t// in\n    tag_149:\n        /* \"#utility.yul\":4149:4174   */\n      swap2\n      pop\n        /* \"#utility.yul\":4188:4208   */\n      tag_150\n        /* \"#utility.yul\":4206:4207   */\n      dup4\n        /* \"#utility.yul\":4188:4208   */\n      tag_87\n      jump\t// in\n    tag_150:\n        /* \"#utility.yul\":4183:4208   */\n      swap3\n      pop\n        /* \"#utility.yul\":4231:4232   */\n      dup3\n        /* \"#utility.yul\":4228:4229   */\n      dup3\n        /* \"#utility.yul\":4224:4233   */\n      add\n        /* \"#utility.yul\":4217:4233   */\n      swap1\n      pop\n        /* \"#utility.yul\":4252:4255   */\n      dup1\n        /* \"#utility.yul\":4249:4250   */\n      dup3\n        /* \"#utility.yul\":4246:4256   */\n      gt\n        /* \"#utility.yul\":4243:4279   */\n      iszero\n      tag_151\n      jumpi\n        /* \"#utility.yul\":4259:4277   */\n      tag_152\n      tag_95\n      jump\t// in\n    tag_152:\n        /* \"#utility.yul\":4243:4279   */\n    tag_151:\n        /* \"#utility.yul\":4095:4286   */\n      swap3\n      swap2\n      pop\n      pop\n      jump\t// out\n\n    auxdata: 0xa2646970667358221220fe2fb69e80cfb7b0bc47355ce3d165f84f6412775946e41e46cb8726def099a264736f6c634300081a0033\n}\n",
				"bytecode": {
					"linkReferences": {},
					"object": "6080604052348015600e575f80fd5b50335f806101000a81548173ffffffffffffffffffffffffffffffffffffffff021916908373ffffffffffffffffffffffffffffffffffffffff160217905550610a038061005b5f395ff3fe608060405260043610610085575f3560e01c80632e1a7d4d116100585780632e1a7d4d1461013f57806349342fca14610167578063827923ec146101a35780638da5cb5b146101df578063d0e30db01461020957610085565b8063177d2a74146100895780631828983a146100b157806322968885146100ed5780632ccb1b3014610117575b5f80fd5b348015610094575f80fd5b506100af60048036038101906100aa91906107e8565b610213565b005b3480156100bc575f80fd5b506100d760048036038101906100d291906107e8565b610331565b6040516100e4919061082d565b60405180910390f35b3480156100f8575f80fd5b5061010161034e565b60405161010e919061085e565b60405180910390f35b348015610122575f80fd5b5061013d600480360381019061013891906108dc565b610355565b005b34801561014a575f80fd5b506101656004803603810190610160919061091a565b6104c1565b005b348015610172575f80fd5b5061018d600480360381019061018891906107e8565b610615565b60405161019a919061085e565b60405180910390f35b3480156101ae575f80fd5b506101c960048036038101906101c491906107e8565b61065b565b6040516101d6919061085e565b60405180910390f35b3480156101ea575f80fd5b506101f3610670565b6040516102009190610954565b60405180910390f35b610211610693565b005b5f8054906101000a900473ffffffffffffffffffffffffffffffffffffffff1673ffffffffffffffffffffffffffffffffffffffff163373ffffffffffffffffffffffffffffffffffffffff1614610297576040517f10b1d06900000000000000000000000000000000000000000000000000000000815260040160405180910390fd5b6001805f8373ffffffffffffffffffffffffffffffffffffffff1673ffffffffffffffffffffffffffffffffffffffff1681526020019081526020015f205f6101000a81548160ff0219169083151502179055508073ffffffffffffffffffffffffffffffffffffffff167f7982b5adc9651a82d249539a6f97b0de6cc9bd2ee1db3b2674ddc0f8066c662f60405160405180910390a250565b6001602052805f5260405f205f915054906101000a900460ff1681565b5f47905090565b60015f3373ffffffffffffffffffffffffffffffffffffffff1673ffffffffffffffffffffffffffffffffffffffff1681526020019081526020015f205f9054906101000a900460ff166103d5576040517fcd56e1f200000000000000000000000000000000000000000000000000000000815260040160405180910390fd5b5f47905081811015610413576040517f0bfd736500000000000000000000000000000000000000000000000000000000815260040160405180910390fd5b8273ffffffffffffffffffffffffffffffffffffffff166108fc8390811502906040515f60405180830381858888f19350505050158015610456573d5f803e3d5ffd5b508273ffffffffffffffffffffffffffffffffffffffff163373ffffffffffffffffffffffffffffffffffffffff167fddf252ad1be2c89b69c2b068fc378daa952ba7f163c4a11628f55a4df523b3ef846040516104b4919061085e565b60405180910390a3505050565b60015f3373ffffffffffffffffffffffffffffffffffffffff1673ffffffffffffffffffffffffffffffffffffffff1681526020019081526020015f205f9054906101000a900460ff16610541576040517fcd56e1f200000000000000000000000000000000000000000000000000000000815260040160405180910390fd5b5f4790508181101561057f576040517f0bfd736500000000000000000000000000000000000000000000000000000000815260040160405180910390fd5b3373ffffffffffffffffffffffffffffffffffffffff166108fc8390811502906040515f60405180830381858888f193505050501580156105c2573d5f803e3d5ffd5b503373ffffffffffffffffffffffffffffffffffffffff167fb6e26e54bd578616699ab07efb4c2e322b45a80673803bbb259443d9fecee65283604051610609919061085e565b60405180910390a25050565b5f60025f8373ffffffffffffffffffffffffffffffffffffffff1673ffffffffffffffffffffffffffffffffffffffff1681526020019081526020015f20549050919050565b6002602052805f5260405f205f915090505481565b5f8054906101000a900473ffffffffffffffffffffffffffffffffffffffff1681565b6001805f3373ffffffffffffffffffffffffffffffffffffffff1673ffffffffffffffffffffffffffffffffffffffff1681526020019081526020015f205f6101000a81548160ff0219169083151502179055503460025f3373ffffffffffffffffffffffffffffffffffffffff1673ffffffffffffffffffffffffffffffffffffffff1681526020019081526020015f205f828254610733919061099a565b925050819055503373ffffffffffffffffffffffffffffffffffffffff167fe1fffcc4923d04b559f4d29a8bfc6cda04eb5b0d3c460751c2402c5c5cc9109c34604051610780919061085e565b60405180910390a2565b5f80fd5b5f73ffffffffffffffffffffffffffffffffffffffff82169050919050565b5f6107b78261078e565b9050919050565b6107c7816107ad565b81146107d1575f80fd5b50565b5f813590506107e2816107be565b92915050565b5f602082840312156107fd576107fc61078a565b5b5f61080a848285016107d4565b91505092915050565b5f8115159050919050565b61082781610813565b82525050565b5f6020820190506108405f83018461081e565b92915050565b5f819050919050565b61085881610846565b82525050565b5f6020820190506108715f83018461084f565b92915050565b5f6108818261078e565b9050919050565b61089181610877565b811461089b575f80fd5b50565b5f813590506108ac81610888565b92915050565b6108bb81610846565b81146108c5575f80fd5b50565b5f813590506108d6816108b2565b92915050565b5f80604083850312156108f2576108f161078a565b5b5f6108ff8582860161089e565b9250506020610910858286016108c8565b9150509250929050565b5f6020828403121561092f5761092e61078a565b5b5f61093c848285016108c8565b91505092915050565b61094e816107ad565b82525050565b5f6020820190506109675f830184610945565b92915050565b7f4e487b71000000000000000000000000000000000000000000000000000000005f52601160045260245ffd5b5f6109a482610846565b91506109af83610846565b92508282019050808211156109c7576109c661096d565b5b9291505056fea2646970667358221220fe2fb69e80cfb7b0bc47355ce3d165f84f6412775946e41e46cb8726def099a264736f6c634300081a0033",
					"opcodes": "PUSH1 0x80 PUSH1 0x40 MSTORE CALLVALUE DUP1 ISZERO PUSH1 0xE JUMPI PUSH0 DUP1 REVERT JUMPDEST POP CALLER PUSH0 DUP1 PUSH2 0x100 EXP DUP2 SLOAD DUP2 PUSH20 0xFFFFFFFFFFFFFFFFFFFFFFFFFFFFFFFFFFFFFFFF MUL NOT AND SWAP1 DUP4 PUSH20 0xFFFFFFFFFFFFFFFFFFFFFFFFFFFFFFFFFFFFFFFF AND MUL OR SWAP1 SSTORE POP PUSH2 0xA03 DUP1 PUSH2 0x5B PUSH0 CODECOPY PUSH0 RETURN INVALID PUSH1 0x80 PUSH1 0x40 MSTORE PUSH1 0x4 CALLDATASIZE LT PUSH2 0x85 JUMPI PUSH0 CALLDATALOAD PUSH1 0xE0 SHR DUP1 PUSH4 0x2E1A7D4D GT PUSH2 0x58 JUMPI DUP1 PUSH4 0x2E1A7D4D EQ PUSH2 0x13F JUMPI DUP1 PUSH4 0x49342FCA EQ PUSH2 0x167 JUMPI DUP1 PUSH4 0x827923EC EQ PUSH2 0x1A3 JUMPI DUP1 PUSH4 0x8DA5CB5B EQ PUSH2 0x1DF JUMPI DUP1 PUSH4 0xD0E30DB0 EQ PUSH2 0x209 JUMPI PUSH2 0x85 JUMP JUMPDEST DUP1 PUSH4 0x177D2A74 EQ PUSH2 0x89 JUMPI DUP1 PUSH4 0x1828983A EQ PUSH2 0xB1 JUMPI DUP1 PUSH4 0x22968885 EQ PUSH2 0xED JUMPI DUP1 PUSH4 0x2CCB1B30 EQ PUSH2 0x117 JUMPI JUMPDEST PUSH0 DUP1 REVERT JUMPDEST CALLVALUE DUP1 ISZERO PUSH2 0x94 JUMPI PUSH0 DUP1 REVERT JUMPDEST POP PUSH2 0xAF PUSH1 0x4 DUP1 CALLDATASIZE SUB DUP2 ADD SWAP1 PUSH2 0xAA SWAP2 SWAP1 PUSH2 0x7E8 JUMP JUMPDEST PUSH2 0x213 JUMP JUMPDEST STOP JUMPDEST CALLVALUE DUP1 ISZERO PUSH2 0xBC JUMPI PUSH0 DUP1 REVERT JUMPDEST POP PUSH2 0xD7 PUSH1 0x4 DUP1 CALLDATASIZE SUB DUP2 ADD SWAP1 PUSH2 0xD2 SWAP2 SWAP1 PUSH2 0x7E8 JUMP JUMPDEST PUSH2 0x331 JUMP JUMPDEST PUSH1 0x40 MLOAD PUSH2 0xE4 SWAP2 SWAP1 PUSH2 0x82D JUMP JUMPDEST PUSH1 0x40 MLOAD DUP1 SWAP2 SUB SWAP1 RETURN JUMPDEST CALLVALUE DUP1 ISZERO PUSH2 0xF8 JUMPI PUSH0 DUP1 REVERT JUMPDEST POP PUSH2 0x101 PUSH2 0x34E JUMP JUMPDEST PUSH1 0x40 MLOAD PUSH2 0x10E SWAP2 SWAP1 PUSH2 0x85E JUMP JUMPDEST PUSH1 0x40 MLOAD DUP1 SWAP2 SUB SWAP1 RETURN JUMPDEST CALLVALUE DUP1 ISZERO PUSH2 0x122 JUMPI PUSH0 DUP1 REVERT JUMPDEST POP PUSH2 0x13D PUSH1 0x4 DUP1 CALLDATASIZE SUB DUP2 ADD SWAP1 PUSH2 0x138 SWAP2 SWAP1 PUSH2 0x8DC JUMP JUMPDEST PUSH2 0x355 JUMP JUMPDEST STOP JUMPDEST CALLVALUE DUP1 ISZERO PUSH2 0x14A JUMPI PUSH0 DUP1 REVERT JUMPDEST POP PUSH2 0x165 PUSH1 0x4 DUP1 CALLDATASIZE SUB DUP2 ADD SWAP1 PUSH2 0x160 SWAP2 SWAP1 PUSH2 0x91A JUMP JUMPDEST PUSH2 0x4C1 JUMP JUMPDEST STOP JUMPDEST CALLVALUE DUP1 ISZERO PUSH2 0x172 JUMPI PUSH0 DUP1 REVERT JUMPDEST POP PUSH2 0x18D PUSH1 0x4 DUP1 CALLDATASIZE SUB DUP2 ADD SWAP1 PUSH2 0x188 SWAP2 SWAP1 PUSH2 0x7E8 JUMP JUMPDEST PUSH2 0x615 JUMP JUMPDEST PUSH1 0x40 MLOAD PUSH2 0x19A SWAP2 SWAP1 PUSH2 0x85E JUMP JUMPDEST PUSH1 0x40 MLOAD DUP1 SWAP2 SUB SWAP1 RETURN JUMPDEST CALLVALUE DUP1 ISZERO PUSH2 0x1AE JUMPI PUSH0 DUP1 REVERT JUMPDEST POP PUSH2 0x1C9 PUSH1 0x4 DUP1 CALLDATASIZE SUB DUP2 ADD SWAP1 PUSH2 0x1C4 SWAP2 SWAP1 PUSH2 0x7E8 JUMP JUMPDEST PUSH2 0x65B JUMP JUMPDEST PUSH1 0x40 MLOAD PUSH2 0x1D6 SWAP2 SWAP1 PUSH2 0x85E JUMP JUMPDEST PUSH1 0x40 MLOAD DUP1 SWAP2 SUB SWAP1 RETURN JUMPDEST CALLVALUE DUP1 ISZERO PUSH2 0x1EA JUMPI PUSH0 DUP1 REVERT JUMPDEST POP PUSH2 0x1F3 PUSH2 0x670 JUMP JUMPDEST PUSH1 0x40 MLOAD PUSH2 0x200 SWAP2 SWAP1 PUSH2 0x954 JUMP JUMPDEST PUSH1 0x40 MLOAD DUP1 SWAP2 SUB SWAP1 RETURN JUMPDEST PUSH2 0x211 PUSH2 0x693 JUMP JUMPDEST STOP JUMPDEST PUSH0 DUP1 SLOAD SWAP1 PUSH2 0x100 EXP SWAP1 DIV PUSH20 0xFFFFFFFFFFFFFFFFFFFFFFFFFFFFFFFFFFFFFFFF AND PUSH20 0xFFFFFFFFFFFFFFFFFFFFFFFFFFFFFFFFFFFFFFFF AND CALLER PUSH20 0xFFFFFFFFFFFFFFFFFFFFFFFFFFFFFFFFFFFFFFFF AND EQ PUSH2 0x297 JUMPI PUSH1 0x40 MLOAD PUSH32 0x10B1D06900000000000000000000000000000000000000000000000000000000 DUP2 MSTORE PUSH1 0x4 ADD PUSH1 0x40 MLOAD DUP1 SWAP2 SUB SWAP1 REVERT JUMPDEST PUSH1 0x1 DUP1 PUSH0 DUP4 PUSH20 0xFFFFFFFFFFFFFFFFFFFFFFFFFFFFFFFFFFFFFFFF AND PUSH20 0xFFFFFFFFFFFFFFFFFFFFFFFFFFFFFFFFFFFFFFFF AND DUP2 MSTORE PUSH1 0x20 ADD SWAP1 DUP2 MSTORE PUSH1 0x20 ADD PUSH0 KECCAK256 PUSH0 PUSH2 0x100 EXP DUP2 SLOAD DUP2 PUSH1 0xFF MUL NOT AND SWAP1 DUP4 ISZERO ISZERO MUL OR SWAP1 SSTORE POP DUP1 PUSH20 0xFFFFFFFFFFFFFFFFFFFFFFFFFFFFFFFFFFFFFFFF AND PUSH32 0x7982B5ADC9651A82D249539A6F97B0DE6CC9BD2EE1DB3B2674DDC0F8066C662F PUSH1 0x40 MLOAD PUSH1 0x40 MLOAD DUP1 SWAP2 SUB SWAP1 LOG2 POP JUMP JUMPDEST PUSH1 0x1 PUSH1 0x20 MSTORE DUP1 PUSH0 MSTORE PUSH1 0x40 PUSH0 KECCAK256 PUSH0 SWAP2 POP SLOAD SWAP1 PUSH2 0x100 EXP SWAP1 DIV PUSH1 0xFF AND DUP2 JUMP JUMPDEST PUSH0 SELFBALANCE SWAP1 POP SWAP1 JUMP JUMPDEST PUSH1 0x1 PUSH0 CALLER PUSH20 0xFFFFFFFFFFFFFFFFFFFFFFFFFFFFFFFFFFFFFFFF AND PUSH20 0xFFFFFFFFFFFFFFFFFFFFFFFFFFFFFFFFFFFFFFFF AND DUP2 MSTORE PUSH1 0x20 ADD SWAP1 DUP2 MSTORE PUSH1 0x20 ADD PUSH0 KECCAK256 PUSH0 SWAP1 SLOAD SWAP1 PUSH2 0x100 EXP SWAP1 DIV PUSH1 0xFF AND PUSH2 0x3D5 JUMPI PUSH1 0x40 MLOAD PUSH32 0xCD56E1F200000000000000000000000000000000000000000000000000000000 DUP2 MSTORE PUSH1 0x4 ADD PUSH1 0x40 MLOAD DUP1 SWAP2 SUB SWAP1 REVERT JUMPDEST PUSH0 SELFBALANCE SWAP1 POP DUP2 DUP2 LT ISZERO PUSH2 0x413 JUMPI PUSH1 0x40 MLOAD PUSH32 0xBFD736500000000000000000000000000000000000000000000000000000000 DUP2 MSTORE PUSH1 0x4 ADD PUSH1 0x40 MLOAD DUP1 SWAP2 SUB SWAP1 REVERT JUMPDEST DUP3 PUSH20 0xFFFFFFFFFFFFFFFFFFFFFFFFFFFFFFFFFFFFFFFF AND PUSH2 0x8FC DUP4 SWAP1 DUP2 ISZERO MUL SWAP1 PUSH1 0x40 MLOAD PUSH0 PUSH1 0x40 MLOAD DUP1 DUP4 SUB DUP2 DUP6 DUP9 DUP9 CALL SWAP4 POP POP POP POP ISZERO DUP1 ISZERO PUSH2 0x456 JUMPI RETURNDATASIZE PUSH0 DUP1 RETURNDATACOPY RETURNDATASIZE PUSH0 REVERT JUMPDEST POP DUP3 PUSH20 0xFFFFFFFFFFFFFFFFFFFFFFFFFFFFFFFFFFFFFFFF AND CALLER PUSH20 0xFFFFFFFFFFFFFFFFFFFFFFFFFFFFFFFFFFFFFFFF AND PUSH32 0xDDF252AD1BE2C89B69C2B068FC378DAA952BA7F163C4A11628F55A4DF523B3EF DUP5 PUSH1 0x40 MLOAD PUSH2 0x4B4 SWAP2 SWAP1 PUSH2 0x85E JUMP JUMPDEST PUSH1 0x40 MLOAD DUP1 SWAP2 SUB SWAP1 LOG3 POP POP POP JUMP JUMPDEST PUSH1 0x1 PUSH0 CALLER PUSH20 0xFFFFFFFFFFFFFFFFFFFFFFFFFFFFFFFFFFFFFFFF AND PUSH20 0xFFFFFFFFFFFFFFFFFFFFFFFFFFFFFFFFFFFFFFFF AND DUP2 MSTORE PUSH1 0x20 ADD SWAP1 DUP2 MSTORE PUSH1 0x20 ADD PUSH0 KECCAK256 PUSH0 SWAP1 SLOAD SWAP1 PUSH2 0x100 EXP SWAP1 DIV PUSH1 0xFF AND PUSH2 0x541 JUMPI PUSH1 0x40 MLOAD PUSH32 0xCD56E1F200000000000000000000000000000000000000000000000000000000 DUP2 MSTORE PUSH1 0x4 ADD PUSH1 0x40 MLOAD DUP1 SWAP2 SUB SWAP1 REVERT JUMPDEST PUSH0 SELFBALANCE SWAP1 POP DUP2 DUP2 LT ISZERO PUSH2 0x57F JUMPI PUSH1 0x40 MLOAD PUSH32 0xBFD736500000000000000000000000000000000000000000000000000000000 DUP2 MSTORE PUSH1 0x4 ADD PUSH1 0x40 MLOAD DUP1 SWAP2 SUB SWAP1 REVERT JUMPDEST CALLER PUSH20 0xFFFFFFFFFFFFFFFFFFFFFFFFFFFFFFFFFFFFFFFF AND PUSH2 0x8FC DUP4 SWAP1 DUP2 ISZERO MUL SWAP1 PUSH1 0x40 MLOAD PUSH0 PUSH1 0x40 MLOAD DUP1 DUP4 SUB DUP2 DUP6 DUP9 DUP9 CALL SWAP4 POP POP POP POP ISZERO DUP1 ISZERO PUSH2 0x5C2 JUMPI RETURNDATASIZE PUSH0 DUP1 RETURNDATACOPY RETURNDATASIZE PUSH0 REVERT JUMPDEST POP CALLER PUSH20 0xFFFFFFFFFFFFFFFFFFFFFFFFFFFFFFFFFFFFFFFF AND PUSH32 0xB6E26E54BD578616699AB07EFB4C2E322B45A80673803BBB259443D9FECEE652 DUP4 PUSH1 0x40 MLOAD PUSH2 0x609 SWAP2 SWAP1 PUSH2 0x85E JUMP JUMPDEST PUSH1 0x40 MLOAD DUP1 SWAP2 SUB SWAP1 LOG2 POP POP JUMP JUMPDEST PUSH0 PUSH1 0x2 PUSH0 DUP4 PUSH20 0xFFFFFFFFFFFFFFFFFFFFFFFFFFFFFFFFFFFFFFFF AND PUSH20 0xFFFFFFFFFFFFFFFFFFFFFFFFFFFFFFFFFFFFFFFF AND DUP2 MSTORE PUSH1 0x20 ADD SWAP1 DUP2 MSTORE PUSH1 0x20 ADD PUSH0 KECCAK256 SLOAD SWAP1 POP SWAP2 SWAP1 POP JUMP JUMPDEST PUSH1 0x2 PUSH1 0x20 MSTORE DUP1 PUSH0 MSTORE PUSH1 0x40 PUSH0 KECCAK256 PUSH0 SWAP2 POP SWAP1 POP SLOAD DUP2 JUMP JUMPDEST PUSH0 DUP1 SLOAD SWAP1 PUSH2 0x100 EXP SWAP1 DIV PUSH20 0xFFFFFFFFFFFFFFFFFFFFFFFFFFFFFFFFFFFFFFFF AND DUP2 JUMP JUMPDEST PUSH1 0x1 DUP1 PUSH0 CALLER PUSH20 0xFFFFFFFFFFFFFFFFFFFFFFFFFFFFFFFFFFFFFFFF AND PUSH20 0xFFFFFFFFFFFFFFFFFFFFFFFFFFFFFFFFFFFFFFFF AND DUP2 MSTORE PUSH1 0x20 ADD SWAP1 DUP2 MSTORE PUSH1 0x20 ADD PUSH0 KECCAK256 PUSH0 PUSH2 0x100 EXP DUP2 SLOAD DUP2 PUSH1 0xFF MUL NOT AND SWAP1 DUP4 ISZERO ISZERO MUL OR SWAP1 SSTORE POP CALLVALUE PUSH1 0x2 PUSH0 CALLER PUSH20 0xFFFFFFFFFFFFFFFFFFFFFFFFFFFFFFFFFFFFFFFF AND PUSH20 0xFFFFFFFFFFFFFFFFFFFFFFFFFFFFFFFFFFFFFFFF AND DUP2 MSTORE PUSH1 0x20 ADD SWAP1 DUP2 MSTORE PUSH1 0x20 ADD PUSH0 KECCAK256 PUSH0 DUP3 DUP3 SLOAD PUSH2 0x733 SWAP2 SWAP1 PUSH2 0x99A JUMP JUMPDEST SWAP3 POP POP DUP2 SWAP1 SSTORE POP CALLER PUSH20 0xFFFFFFFFFFFFFFFFFFFFFFFFFFFFFFFFFFFFFFFF AND PUSH32 0xE1FFFCC4923D04B559F4D29A8BFC6CDA04EB5B0D3C460751C2402C5C5CC9109C CALLVALUE PUSH1 0x40 MLOAD PUSH2 0x780 SWAP2 SWAP1 PUSH2 0x85E JUMP JUMPDEST PUSH1 0x40 MLOAD DUP1 SWAP2 SUB SWAP1 LOG2 JUMP JUMPDEST PUSH0 DUP1 REVERT JUMPDEST PUSH0 PUSH20 0xFFFFFFFFFFFFFFFFFFFFFFFFFFFFFFFFFFFFFFFF DUP3 AND SWAP1 POP SWAP2 SWAP1 POP JUMP JUMPDEST PUSH0 PUSH2 0x7B7 DUP3 PUSH2 0x78E JUMP JUMPDEST SWAP1 POP SWAP2 SWAP1 POP JUMP JUMPDEST PUSH2 0x7C7 DUP2 PUSH2 0x7AD JUMP JUMPDEST DUP2 EQ PUSH2 0x7D1 JUMPI PUSH0 DUP1 REVERT JUMPDEST POP JUMP JUMPDEST PUSH0 DUP2 CALLDATALOAD SWAP1 POP PUSH2 0x7E2 DUP2 PUSH2 0x7BE JUMP JUMPDEST SWAP3 SWAP2 POP POP JUMP JUMPDEST PUSH0 PUSH1 0x20 DUP3 DUP5 SUB SLT ISZERO PUSH2 0x7FD JUMPI PUSH2 0x7FC PUSH2 0x78A JUMP JUMPDEST JUMPDEST PUSH0 PUSH2 0x80A DUP5 DUP3 DUP6 ADD PUSH2 0x7D4 JUMP JUMPDEST SWAP2 POP POP SWAP3 SWAP2 POP POP JUMP JUMPDEST PUSH0 DUP2 ISZERO ISZERO SWAP1 POP SWAP2 SWAP1 POP JUMP JUMPDEST PUSH2 0x827 DUP2 PUSH2 0x813 JUMP JUMPDEST DUP3 MSTORE POP POP JUMP JUMPDEST PUSH0 PUSH1 0x20 DUP3 ADD SWAP1 POP PUSH2 0x840 PUSH0 DUP4 ADD DUP5 PUSH2 0x81E JUMP JUMPDEST SWAP3 SWAP2 POP POP JUMP JUMPDEST PUSH0 DUP2 SWAP1 POP SWAP2 SWAP1 POP JUMP JUMPDEST PUSH2 0x858 DUP2 PUSH2 0x846 JUMP JUMPDEST DUP3 MSTORE POP POP JUMP JUMPDEST PUSH0 PUSH1 0x20 DUP3 ADD SWAP1 POP PUSH2 0x871 PUSH0 DUP4 ADD DUP5 PUSH2 0x84F JUMP JUMPDEST SWAP3 SWAP2 POP POP JUMP JUMPDEST PUSH0 PUSH2 0x881 DUP3 PUSH2 0x78E JUMP JUMPDEST SWAP1 POP SWAP2 SWAP1 POP JUMP JUMPDEST PUSH2 0x891 DUP2 PUSH2 0x877 JUMP JUMPDEST DUP2 EQ PUSH2 0x89B JUMPI PUSH0 DUP1 REVERT JUMPDEST POP JUMP JUMPDEST PUSH0 DUP2 CALLDATALOAD SWAP1 POP PUSH2 0x8AC DUP2 PUSH2 0x888 JUMP JUMPDEST SWAP3 SWAP2 POP POP JUMP JUMPDEST PUSH2 0x8BB DUP2 PUSH2 0x846 JUMP JUMPDEST DUP2 EQ PUSH2 0x8C5 JUMPI PUSH0 DUP1 REVERT JUMPDEST POP JUMP JUMPDEST PUSH0 DUP2 CALLDATALOAD SWAP1 POP PUSH2 0x8D6 DUP2 PUSH2 0x8B2 JUMP JUMPDEST SWAP3 SWAP2 POP POP JUMP JUMPDEST PUSH0 DUP1 PUSH1 0x40 DUP4 DUP6 SUB SLT ISZERO PUSH2 0x8F2 JUMPI PUSH2 0x8F1 PUSH2 0x78A JUMP JUMPDEST JUMPDEST PUSH0 PUSH2 0x8FF DUP6 DUP3 DUP7 ADD PUSH2 0x89E JUMP JUMPDEST SWAP3 POP POP PUSH1 0x20 PUSH2 0x910 DUP6 DUP3 DUP7 ADD PUSH2 0x8C8 JUMP JUMPDEST SWAP2 POP POP SWAP3 POP SWAP3 SWAP1 POP JUMP JUMPDEST PUSH0 PUSH1 0x20 DUP3 DUP5 SUB SLT ISZERO PUSH2 0x92F JUMPI PUSH2 0x92E PUSH2 0x78A JUMP JUMPDEST JUMPDEST PUSH0 PUSH2 0x93C DUP5 DUP3 DUP6 ADD PUSH2 0x8C8 JUMP JUMPDEST SWAP2 POP POP SWAP3 SWAP2 POP POP JUMP JUMPDEST PUSH2 0x94E DUP2 PUSH2 0x7AD JUMP JUMPDEST DUP3 MSTORE POP POP JUMP JUMPDEST PUSH0 PUSH1 0x20 DUP3 ADD SWAP1 POP PUSH2 0x967 PUSH0 DUP4 ADD DUP5 PUSH2 0x945 JUMP JUMPDEST SWAP3 SWAP2 POP POP JUMP JUMPDEST PUSH32 0x4E487B7100000000000000000000000000000000000000000000000000000000 PUSH0 MSTORE PUSH1 0x11 PUSH1 0x4 MSTORE PUSH1 0x24 PUSH0 REVERT JUMPDEST PUSH0 PUSH2 0x9A4 DUP3 PUSH2 0x846 JUMP JUMPDEST SWAP2 POP PUSH2 0x9AF DUP4 PUSH2 0x846 JUMP JUMPDEST SWAP3 POP DUP3 DUP3 ADD SWAP1 POP DUP1 DUP3 GT ISZERO PUSH2 0x9C7 JUMPI PUSH2 0x9C6 PUSH2 0x96D JUMP JUMPDEST JUMPDEST SWAP3 SWAP2 POP POP JUMP INVALID LOG2 PUSH5 0x6970667358 0x22 SLT KECCAK256 INVALID 0x2F 0xB6 SWAP15 DUP1 0xCF 0xB7 0xB0 0xBC SELFBALANCE CALLDATALOAD TLOAD 0xE3 0xD1 PUSH6 0xF84F64127759 CHAINID 0xE4 0x1E CHAINID 0xCB DUP8 0x26 0xDE CREATE SWAP10 LOG2 PUSH5 0x736F6C6343 STOP ADDMOD BYTE STOP CALLER "
				},
				"gasEstimates": {
					"creation": {
						"codeDepositCost": "512600",
						"executionCost": "24812",
						"totalCost": "537412"
					},
					"external": {
						"addAuthorizedUser(address)": "28131",
						"authorizedUsers(address)": "2856",
						"balanceOfAccounts(address)": "2846",
						"deposit()": "infinite",
						"getBalanceOfContract()": "379",
						"getBalanceOfMyWallet(address)": "2851",
						"owner()": "2571",
						"transferTo(address,uint256)": "infinite",
						"withdraw(uint256)": "infinite"
					}
				},
				"methodIdentifiers": {
					"addAuthorizedUser(address)": "177d2a74",
					"authorizedUsers(address)": "1828983a",
					"balanceOfAccounts(address)": "827923ec",
					"deposit()": "d0e30db0",
					"getBalanceOfContract()": "22968885",
					"getBalanceOfMyWallet(address)": "49342fca",
					"owner()": "8da5cb5b",
					"transferTo(address,uint256)": "2ccb1b30",
					"withdraw(uint256)": "2e1a7d4d"
				}
			},
			"storageLayout": {
				"storage": [
					{
						"astId": 11,
						"contract": "contracts/SimpleSmartWallet.sol:SimpleWalet",
						"label": "owner",
						"offset": 0,
						"slot": "0",
						"type": "t_address"
					},
					{
						"astId": 15,
						"contract": "contracts/SimpleSmartWallet.sol:SimpleWalet",
						"label": "authorizedUsers",
						"offset": 0,
						"slot": "1",
						"type": "t_mapping(t_address,t_bool)"
					},
					{
						"astId": 19,
						"contract": "contracts/SimpleSmartWallet.sol:SimpleWalet",
						"label": "balanceOfAccounts",
						"offset": 0,
						"slot": "2",
						"type": "t_mapping(t_address,t_uint256)"
					}
				],
				"types": {
					"t_address": {
						"encoding": "inplace",
						"label": "address",
						"numberOfBytes": "20"
					},
					"t_bool": {
						"encoding": "inplace",
						"label": "bool",
						"numberOfBytes": "1"
					},
					"t_mapping(t_address,t_bool)": {
						"encoding": "mapping",
						"key": "t_address",
						"label": "mapping(address => bool)",
						"numberOfBytes": "32",
						"value": "t_bool"
					},
					"t_mapping(t_address,t_uint256)": {
						"encoding": "mapping",
						"key": "t_address",
						"label": "mapping(address => uint256)",
						"numberOfBytes": "32",
						"value": "t_uint256"
					},
					"t_uint256": {
						"encoding": "inplace",
						"label": "uint256",
						"numberOfBytes": "32"
					}
				}
			},
			"userdoc": {
				"kind": "user",
				"methods": {},
				"version": 1
			}
		}
	}
}