{
	"contracts/SimpleSmartWalletSave.sol": {
		"SimpleWalletSave": {
			"abi": [
				{
					"inputs": [],
					"stateMutability": "nonpayable",
					"type": "constructor"
				},
				{
					"inputs": [],
					"name": "_InsufficientBalance",
					"type": "error"
				},
				{
					"inputs": [],
					"name": "_NotAuthorizedUser",
					"type": "error"
				},
				{
					"anonymous": false,
					"inputs": [
						{
							"indexed": true,
							"internalType": "address",
							"name": "user",
							"type": "address"
						}
					],
					"name": "AuthorizedUserAdded",
					"type": "event"
				},
				{
					"anonymous": false,
					"inputs": [
						{
							"indexed": true,
							"internalType": "address",
							"name": "sender",
							"type": "address"
						},
						{
							"indexed": false,
							"internalType": "uint256",
							"name": "amount",
							"type": "uint256"
						}
					],
					"name": "Deposit",
					"type": "event"
				},
				{
					"anonymous": false,
					"inputs": [
						{
							"indexed": true,
							"internalType": "address",
							"name": "from",
							"type": "address"
						},
						{
							"indexed": true,
							"internalType": "address",
							"name": "to",
							"type": "address"
						},
						{
							"indexed": false,
							"internalType": "uint256",
							"name": "amount",
							"type": "uint256"
						}
					],
					"name": "Transfer",
					"type": "event"
				},
				{
					"anonymous": false,
					"inputs": [
						{
							"indexed": true,
							"internalType": "address",
							"name": "receiver",
							"type": "address"
						},
						{
							"indexed": false,
							"internalType": "uint256",
							"name": "amount",
							"type": "uint256"
						}
					],
					"name": "WithDrawal",
					"type": "event"
				},
				{
					"inputs": [
						{
							"internalType": "address",
							"name": "",
							"type": "address"
						}
					],
					"name": "authorizedUsers",
					"outputs": [
						{
							"internalType": "bool",
							"name": "",
							"type": "bool"
						}
					],
					"stateMutability": "view",
					"type": "function"
				},
				{
					"inputs": [
						{
							"internalType": "address",
							"name": "",
							"type": "address"
						}
					],
					"name": "balanceOfUsers",
					"outputs": [
						{
							"internalType": "uint256",
							"name": "",
							"type": "uint256"
						}
					],
					"stateMutability": "view",
					"type": "function"
				},
				{
					"inputs": [],
					"name": "deposit",
					"outputs": [],
					"stateMutability": "payable",
					"type": "function"
				},
				{
					"inputs": [],
					"name": "owner",
					"outputs": [
						{
							"internalType": "address",
							"name": "",
							"type": "address"
						}
					],
					"stateMutability": "view",
					"type": "function"
				},
				{
					"inputs": [
						{
							"internalType": "address payable",
							"name": "_to",
							"type": "address"
						},
						{
							"internalType": "uint256",
							"name": "_amount",
							"type": "uint256"
						}
					],
					"name": "transferTo",
					"outputs": [],
					"stateMutability": "nonpayable",
					"type": "function"
				},
				{
					"inputs": [
						{
							"internalType": "uint256",
							"name": "_amount",
							"type": "uint256"
						}
					],
					"name": "withdraw",
					"outputs": [],
					"stateMutability": "nonpayable",
					"type": "function"
				}
			],
			"devdoc": {
				"kind": "dev",
				"methods": {},
				"version": 1
			},
			"evm": {
				"assembly": "    /* \"contracts/SimpleSmartWalletSave.sol\":117:1666  contract SimpleWalletSave{... */\n  mstore(0x40, 0x80)\n    /* \"contracts/SimpleSmartWalletSave.sol\":620:668  constructor(){... */\n  callvalue\n  dup1\n  iszero\n  tag_1\n  jumpi\n  0x00\n  dup1\n  revert\ntag_1:\n  pop\n    /* \"contracts/SimpleSmartWalletSave.sol\":651:661  msg.sender */\n  caller\n    /* \"contracts/SimpleSmartWalletSave.sol\":643:648  owner */\n  0x00\n  dup1\n    /* \"contracts/SimpleSmartWalletSave.sol\":643:661  owner = msg.sender */\n  0x0100\n  exp\n  dup2\n  sload\n  dup2\n  0xffffffffffffffffffffffffffffffffffffffff\n  mul\n  not\n  and\n  swap1\n  dup4\n  0xffffffffffffffffffffffffffffffffffffffff\n  and\n  mul\n  or\n  swap1\n  sstore\n  pop\n    /* \"contracts/SimpleSmartWalletSave.sol\":117:1666  contract SimpleWalletSave{... */\n  dataSize(sub_0)\n  dup1\n  dataOffset(sub_0)\n  0x00\n  codecopy\n  0x00\n  return\nstop\n\nsub_0: assembly {\n        /* \"contracts/SimpleSmartWalletSave.sol\":117:1666  contract SimpleWalletSave{... */\n      mstore(0x40, 0x80)\n      jumpi(tag_1, lt(calldatasize, 0x04))\n      shr(0xe0, calldataload(0x00))\n      dup1\n      0x1828983a\n      eq\n      tag_2\n      jumpi\n      dup1\n      0x2ccb1b30\n      eq\n      tag_3\n      jumpi\n      dup1\n      0x2e1a7d4d\n      eq\n      tag_4\n      jumpi\n      dup1\n      0x8da5cb5b\n      eq\n      tag_5\n      jumpi\n      dup1\n      0xa48d89cb\n      eq\n      tag_6\n      jumpi\n      dup1\n      0xd0e30db0\n      eq\n      tag_7\n      jumpi\n    tag_1:\n      0x00\n      dup1\n      revert\n        /* \"contracts/SimpleSmartWalletSave.sol\":234:279  mapping(address=>bool) public authorizedUsers */\n    tag_2:\n      callvalue\n      dup1\n      iszero\n      tag_8\n      jumpi\n      0x00\n      dup1\n      revert\n    tag_8:\n      pop\n      tag_9\n      0x04\n      dup1\n      calldatasize\n      sub\n      dup2\n      add\n      swap1\n      tag_10\n      swap2\n      swap1\n      tag_11\n      jump\t// in\n    tag_10:\n      tag_12\n      jump\t// in\n    tag_9:\n      mload(0x40)\n      tag_13\n      swap2\n      swap1\n      tag_14\n      jump\t// in\n    tag_13:\n      mload(0x40)\n      dup1\n      swap2\n      sub\n      swap1\n      return\n        /* \"contracts/SimpleSmartWalletSave.sol\":1421:1664  function transferTo(address payable _to,uint256 _amount) public OnlyAuthorizedUser OnlyBalanceEnough(_amount){... */\n    tag_3:\n      callvalue\n      dup1\n      iszero\n      tag_15\n      jumpi\n      0x00\n      dup1\n      revert\n    tag_15:\n      pop\n      tag_16\n      0x04\n      dup1\n      calldatasize\n      sub\n      dup2\n      add\n      swap1\n      tag_17\n      swap2\n      swap1\n      tag_18\n      jump\t// in\n    tag_17:\n      tag_19\n      jump\t// in\n    tag_16:\n      stop\n        /* \"contracts/SimpleSmartWalletSave.sol\":1176:1410  function withdraw(uint256 _amount) public OnlyAuthorizedUser OnlyBalanceEnough(_amount){... */\n    tag_4:\n      callvalue\n      dup1\n      iszero\n      tag_20\n      jumpi\n      0x00\n      dup1\n      revert\n    tag_20:\n      pop\n      tag_21\n      0x04\n      dup1\n      calldatasize\n      sub\n      dup2\n      add\n      swap1\n      tag_22\n      swap2\n      swap1\n      tag_23\n      jump\t// in\n    tag_22:\n      tag_24\n      jump\t// in\n    tag_21:\n      stop\n        /* \"contracts/SimpleSmartWalletSave.sol\":170:190  address public owner */\n    tag_5:\n      callvalue\n      dup1\n      iszero\n      tag_25\n      jumpi\n      0x00\n      dup1\n      revert\n    tag_25:\n      pop\n      tag_26\n      tag_27\n      jump\t// in\n    tag_26:\n      mload(0x40)\n      tag_28\n      swap2\n      swap1\n      tag_29\n      jump\t// in\n    tag_28:\n      mload(0x40)\n      dup1\n      swap2\n      sub\n      swap1\n      return\n        /* \"contracts/SimpleSmartWalletSave.sol\":285:332  mapping(address=>uint256) public balanceOfUsers */\n    tag_6:\n      callvalue\n      dup1\n      iszero\n      tag_30\n      jumpi\n      0x00\n      dup1\n      revert\n    tag_30:\n      pop\n      tag_31\n      0x04\n      dup1\n      calldatasize\n      sub\n      dup2\n      add\n      swap1\n      tag_32\n      swap2\n      swap1\n      tag_11\n      jump\t// in\n    tag_32:\n      tag_33\n      jump\t// in\n    tag_31:\n      mload(0x40)\n      tag_34\n      swap2\n      swap1\n      tag_35\n      jump\t// in\n    tag_34:\n      mload(0x40)\n      dup1\n      swap2\n      sub\n      swap1\n      return\n        /* \"contracts/SimpleSmartWalletSave.sol\":945:1170  function deposit() public payable {... */\n    tag_7:\n      tag_36\n      tag_37\n      jump\t// in\n    tag_36:\n      stop\n        /* \"contracts/SimpleSmartWalletSave.sol\":234:279  mapping(address=>bool) public authorizedUsers */\n    tag_12:\n      mstore(0x20, 0x01)\n      dup1\n      0x00\n      mstore\n      keccak256(0x00, 0x40)\n      0x00\n      swap2\n      pop\n      sload\n      swap1\n      0x0100\n      exp\n      swap1\n      div\n      0xff\n      and\n      dup2\n      jump\t// out\n        /* \"contracts/SimpleSmartWalletSave.sol\":1421:1664  function transferTo(address payable _to,uint256 _amount) public OnlyAuthorizedUser OnlyBalanceEnough(_amount){... */\n    tag_19:\n        /* \"contracts/SimpleSmartWalletSave.sol\":717:732  authorizedUsers */\n      0x01\n        /* \"contracts/SimpleSmartWalletSave.sol\":717:744  authorizedUsers[msg.sender] */\n      0x00\n        /* \"contracts/SimpleSmartWalletSave.sol\":733:743  msg.sender */\n      caller\n        /* \"contracts/SimpleSmartWalletSave.sol\":717:744  authorizedUsers[msg.sender] */\n      0xffffffffffffffffffffffffffffffffffffffff\n      and\n      0xffffffffffffffffffffffffffffffffffffffff\n      and\n      dup2\n      mstore\n      0x20\n      add\n      swap1\n      dup2\n      mstore\n      0x20\n      add\n      0x00\n      keccak256\n      0x00\n      swap1\n      sload\n      swap1\n      0x0100\n      exp\n      swap1\n      div\n      0xff\n      and\n        /* \"contracts/SimpleSmartWalletSave.sol\":713:773  if(!authorizedUsers[msg.sender]) revert _NotAuthorizedUser() */\n      tag_39\n      jumpi\n        /* \"contracts/SimpleSmartWalletSave.sol\":753:773  _NotAuthorizedUser() */\n      mload(0x40)\n      0x329a519d00000000000000000000000000000000000000000000000000000000\n      dup2\n      mstore\n      0x04\n      add\n      mload(0x40)\n      dup1\n      swap2\n      sub\n      swap1\n      revert\n        /* \"contracts/SimpleSmartWalletSave.sol\":713:773  if(!authorizedUsers[msg.sender]) revert _NotAuthorizedUser() */\n    tag_39:\n        /* \"contracts/SimpleSmartWalletSave.sol\":1522:1529  _amount */\n      dup1\n        /* \"contracts/SimpleSmartWalletSave.sol\":883:890  _amount */\n      dup1\n        /* \"contracts/SimpleSmartWalletSave.sol\":854:868  balanceOfUsers */\n      0x02\n        /* \"contracts/SimpleSmartWalletSave.sol\":854:880  balanceOfUsers[msg.sender] */\n      0x00\n        /* \"contracts/SimpleSmartWalletSave.sol\":869:879  msg.sender */\n      caller\n        /* \"contracts/SimpleSmartWalletSave.sol\":854:880  balanceOfUsers[msg.sender] */\n      0xffffffffffffffffffffffffffffffffffffffff\n      and\n      0xffffffffffffffffffffffffffffffffffffffff\n      and\n      dup2\n      mstore\n      0x20\n      add\n      swap1\n      dup2\n      mstore\n      0x20\n      add\n      0x00\n      keccak256\n      sload\n        /* \"contracts/SimpleSmartWalletSave.sol\":854:890  balanceOfUsers[msg.sender] < _amount */\n      lt\n        /* \"contracts/SimpleSmartWalletSave.sol\":850:921  if (balanceOfUsers[msg.sender] < _amount) revert _InsufficientBalance() */\n      iszero\n      tag_41\n      jumpi\n        /* \"contracts/SimpleSmartWalletSave.sol\":899:921  _InsufficientBalance() */\n      mload(0x40)\n      0x47826a1800000000000000000000000000000000000000000000000000000000\n      dup2\n      mstore\n      0x04\n      add\n      mload(0x40)\n      dup1\n      swap2\n      sub\n      swap1\n      revert\n        /* \"contracts/SimpleSmartWalletSave.sol\":850:921  if (balanceOfUsers[msg.sender] < _amount) revert _InsufficientBalance() */\n    tag_41:\n        /* \"contracts/SimpleSmartWalletSave.sol\":1570:1577  _amount */\n      dup2\n        /* \"contracts/SimpleSmartWalletSave.sol\":1540:1554  balanceOfUsers */\n      0x02\n        /* \"contracts/SimpleSmartWalletSave.sol\":1540:1566  balanceOfUsers[msg.sender] */\n      0x00\n        /* \"contracts/SimpleSmartWalletSave.sol\":1555:1565  msg.sender */\n      caller\n        /* \"contracts/SimpleSmartWalletSave.sol\":1540:1566  balanceOfUsers[msg.sender] */\n      0xffffffffffffffffffffffffffffffffffffffff\n      and\n      0xffffffffffffffffffffffffffffffffffffffff\n      and\n      dup2\n      mstore\n      0x20\n      add\n      swap1\n      dup2\n      mstore\n      0x20\n      add\n      0x00\n      keccak256\n      0x00\n        /* \"contracts/SimpleSmartWalletSave.sol\":1540:1577  balanceOfUsers[msg.sender] -= _amount */\n      dup3\n      dup3\n      sload\n      tag_43\n      swap2\n      swap1\n      tag_44\n      jump\t// in\n    tag_43:\n      swap3\n      pop\n      pop\n      dup2\n      swap1\n      sstore\n      pop\n        /* \"contracts/SimpleSmartWalletSave.sol\":1587:1590  _to */\n      dup3\n        /* \"contracts/SimpleSmartWalletSave.sol\":1587:1599  _to.transfer */\n      0xffffffffffffffffffffffffffffffffffffffff\n      and\n        /* \"contracts/SimpleSmartWalletSave.sol\":1587:1608  _to.transfer(_amount) */\n      0x08fc\n        /* \"contracts/SimpleSmartWalletSave.sol\":1600:1607  _amount */\n      dup4\n        /* \"contracts/SimpleSmartWalletSave.sol\":1587:1608  _to.transfer(_amount) */\n      swap1\n      dup2\n      iszero\n      mul\n      swap1\n      mload(0x40)\n      0x00\n      mload(0x40)\n      dup1\n      dup4\n      sub\n      dup2\n      dup6\n      dup9\n      dup9\n      call\n      swap4\n      pop\n      pop\n      pop\n      pop\n      iszero\n      dup1\n      iszero\n      tag_46\n      jumpi\n      returndatasize\n      0x00\n      dup1\n      returndatacopy\n      revert(0x00, returndatasize)\n    tag_46:\n      pop\n        /* \"contracts/SimpleSmartWalletSave.sol\":1644:1647  _to */\n      dup3\n        /* \"contracts/SimpleSmartWalletSave.sol\":1623:1657  Transfer(msg.sender, _to, _amount) */\n      0xffffffffffffffffffffffffffffffffffffffff\n      and\n        /* \"contracts/SimpleSmartWalletSave.sol\":1632:1642  msg.sender */\n      caller\n        /* \"contracts/SimpleSmartWalletSave.sol\":1623:1657  Transfer(msg.sender, _to, _amount) */\n      0xffffffffffffffffffffffffffffffffffffffff\n      and\n      0xddf252ad1be2c89b69c2b068fc378daa952ba7f163c4a11628f55a4df523b3ef\n        /* \"contracts/SimpleSmartWalletSave.sol\":1649:1656  _amount */\n      dup5\n        /* \"contracts/SimpleSmartWalletSave.sol\":1623:1657  Transfer(msg.sender, _to, _amount) */\n      mload(0x40)\n      tag_47\n      swap2\n      swap1\n      tag_35\n      jump\t// in\n    tag_47:\n      mload(0x40)\n      dup1\n      swap2\n      sub\n      swap1\n      log3\n        /* \"contracts/SimpleSmartWalletSave.sol\":783:784  _ */\n      pop\n        /* \"contracts/SimpleSmartWalletSave.sol\":1421:1664  function transferTo(address payable _to,uint256 _amount) public OnlyAuthorizedUser OnlyBalanceEnough(_amount){... */\n      pop\n      pop\n      jump\t// out\n        /* \"contracts/SimpleSmartWalletSave.sol\":1176:1410  function withdraw(uint256 _amount) public OnlyAuthorizedUser OnlyBalanceEnough(_amount){... */\n    tag_24:\n        /* \"contracts/SimpleSmartWalletSave.sol\":717:732  authorizedUsers */\n      0x01\n        /* \"contracts/SimpleSmartWalletSave.sol\":717:744  authorizedUsers[msg.sender] */\n      0x00\n        /* \"contracts/SimpleSmartWalletSave.sol\":733:743  msg.sender */\n      caller\n        /* \"contracts/SimpleSmartWalletSave.sol\":717:744  authorizedUsers[msg.sender] */\n      0xffffffffffffffffffffffffffffffffffffffff\n      and\n      0xffffffffffffffffffffffffffffffffffffffff\n      and\n      dup2\n      mstore\n      0x20\n      add\n      swap1\n      dup2\n      mstore\n      0x20\n      add\n      0x00\n      keccak256\n      0x00\n      swap1\n      sload\n      swap1\n      0x0100\n      exp\n      swap1\n      div\n      0xff\n      and\n        /* \"contracts/SimpleSmartWalletSave.sol\":713:773  if(!authorizedUsers[msg.sender]) revert _NotAuthorizedUser() */\n      tag_49\n      jumpi\n        /* \"contracts/SimpleSmartWalletSave.sol\":753:773  _NotAuthorizedUser() */\n      mload(0x40)\n      0x329a519d00000000000000000000000000000000000000000000000000000000\n      dup2\n      mstore\n      0x04\n      add\n      mload(0x40)\n      dup1\n      swap2\n      sub\n      swap1\n      revert\n        /* \"contracts/SimpleSmartWalletSave.sol\":713:773  if(!authorizedUsers[msg.sender]) revert _NotAuthorizedUser() */\n    tag_49:\n        /* \"contracts/SimpleSmartWalletSave.sol\":1255:1262  _amount */\n      dup1\n        /* \"contracts/SimpleSmartWalletSave.sol\":883:890  _amount */\n      dup1\n        /* \"contracts/SimpleSmartWalletSave.sol\":854:868  balanceOfUsers */\n      0x02\n        /* \"contracts/SimpleSmartWalletSave.sol\":854:880  balanceOfUsers[msg.sender] */\n      0x00\n        /* \"contracts/SimpleSmartWalletSave.sol\":869:879  msg.sender */\n      caller\n        /* \"contracts/SimpleSmartWalletSave.sol\":854:880  balanceOfUsers[msg.sender] */\n      0xffffffffffffffffffffffffffffffffffffffff\n      and\n      0xffffffffffffffffffffffffffffffffffffffff\n      and\n      dup2\n      mstore\n      0x20\n      add\n      swap1\n      dup2\n      mstore\n      0x20\n      add\n      0x00\n      keccak256\n      sload\n        /* \"contracts/SimpleSmartWalletSave.sol\":854:890  balanceOfUsers[msg.sender] < _amount */\n      lt\n        /* \"contracts/SimpleSmartWalletSave.sol\":850:921  if (balanceOfUsers[msg.sender] < _amount) revert _InsufficientBalance() */\n      iszero\n      tag_51\n      jumpi\n        /* \"contracts/SimpleSmartWalletSave.sol\":899:921  _InsufficientBalance() */\n      mload(0x40)\n      0x47826a1800000000000000000000000000000000000000000000000000000000\n      dup2\n      mstore\n      0x04\n      add\n      mload(0x40)\n      dup1\n      swap2\n      sub\n      swap1\n      revert\n        /* \"contracts/SimpleSmartWalletSave.sol\":850:921  if (balanceOfUsers[msg.sender] < _amount) revert _InsufficientBalance() */\n    tag_51:\n        /* \"contracts/SimpleSmartWalletSave.sol\":1303:1310  _amount */\n      dup2\n        /* \"contracts/SimpleSmartWalletSave.sol\":1273:1287  balanceOfUsers */\n      0x02\n        /* \"contracts/SimpleSmartWalletSave.sol\":1273:1299  balanceOfUsers[msg.sender] */\n      0x00\n        /* \"contracts/SimpleSmartWalletSave.sol\":1288:1298  msg.sender */\n      caller\n        /* \"contracts/SimpleSmartWalletSave.sol\":1273:1299  balanceOfUsers[msg.sender] */\n      0xffffffffffffffffffffffffffffffffffffffff\n      and\n      0xffffffffffffffffffffffffffffffffffffffff\n      and\n      dup2\n      mstore\n      0x20\n      add\n      swap1\n      dup2\n      mstore\n      0x20\n      add\n      0x00\n      keccak256\n      0x00\n        /* \"contracts/SimpleSmartWalletSave.sol\":1273:1310  balanceOfUsers[msg.sender] -= _amount */\n      dup3\n      dup3\n      sload\n      tag_53\n      swap2\n      swap1\n      tag_44\n      jump\t// in\n    tag_53:\n      swap3\n      pop\n      pop\n      dup2\n      swap1\n      sstore\n      pop\n        /* \"contracts/SimpleSmartWalletSave.sol\":1328:1338  msg.sender */\n      caller\n        /* \"contracts/SimpleSmartWalletSave.sol\":1320:1348  payable(msg.sender).transfer */\n      0xffffffffffffffffffffffffffffffffffffffff\n      and\n        /* \"contracts/SimpleSmartWalletSave.sol\":1320:1357  payable(msg.sender).transfer(_amount) */\n      0x08fc\n        /* \"contracts/SimpleSmartWalletSave.sol\":1349:1356  _amount */\n      dup4\n        /* \"contracts/SimpleSmartWalletSave.sol\":1320:1357  payable(msg.sender).transfer(_amount) */\n      swap1\n      dup2\n      iszero\n      mul\n      swap1\n      mload(0x40)\n      0x00\n      mload(0x40)\n      dup1\n      dup4\n      sub\n      dup2\n      dup6\n      dup9\n      dup9\n      call\n      swap4\n      pop\n      pop\n      pop\n      pop\n      iszero\n      dup1\n      iszero\n      tag_55\n      jumpi\n      returndatasize\n      0x00\n      dup1\n      returndatacopy\n      revert(0x00, returndatasize)\n    tag_55:\n      pop\n        /* \"contracts/SimpleSmartWalletSave.sol\":1383:1393  msg.sender */\n      caller\n        /* \"contracts/SimpleSmartWalletSave.sol\":1372:1403  WithDrawal(msg.sender, _amount) */\n      0xffffffffffffffffffffffffffffffffffffffff\n      and\n      0xb6e26e54bd578616699ab07efb4c2e322b45a80673803bbb259443d9fecee652\n        /* \"contracts/SimpleSmartWalletSave.sol\":1395:1402  _amount */\n      dup4\n        /* \"contracts/SimpleSmartWalletSave.sol\":1372:1403  WithDrawal(msg.sender, _amount) */\n      mload(0x40)\n      tag_56\n      swap2\n      swap1\n      tag_35\n      jump\t// in\n    tag_56:\n      mload(0x40)\n      dup1\n      swap2\n      sub\n      swap1\n      log2\n        /* \"contracts/SimpleSmartWalletSave.sol\":783:784  _ */\n      pop\n        /* \"contracts/SimpleSmartWalletSave.sol\":1176:1410  function withdraw(uint256 _amount) public OnlyAuthorizedUser OnlyBalanceEnough(_amount){... */\n      pop\n      jump\t// out\n        /* \"contracts/SimpleSmartWalletSave.sol\":170:190  address public owner */\n    tag_27:\n      0x00\n      dup1\n      sload\n      swap1\n      0x0100\n      exp\n      swap1\n      div\n      0xffffffffffffffffffffffffffffffffffffffff\n      and\n      dup2\n      jump\t// out\n        /* \"contracts/SimpleSmartWalletSave.sol\":285:332  mapping(address=>uint256) public balanceOfUsers */\n    tag_33:\n      mstore(0x20, 0x02)\n      dup1\n      0x00\n      mstore\n      keccak256(0x00, 0x40)\n      0x00\n      swap2\n      pop\n      swap1\n      pop\n      sload\n      dup2\n      jump\t// out\n        /* \"contracts/SimpleSmartWalletSave.sol\":945:1170  function deposit() public payable {... */\n    tag_37:\n        /* \"contracts/SimpleSmartWalletSave.sol\":1019:1023  true */\n      0x01\n        /* \"contracts/SimpleSmartWalletSave.sol\":989:1004  authorizedUsers */\n      dup1\n        /* \"contracts/SimpleSmartWalletSave.sol\":989:1016  authorizedUsers[msg.sender] */\n      0x00\n        /* \"contracts/SimpleSmartWalletSave.sol\":1005:1015  msg.sender */\n      caller\n        /* \"contracts/SimpleSmartWalletSave.sol\":989:1016  authorizedUsers[msg.sender] */\n      0xffffffffffffffffffffffffffffffffffffffff\n      and\n      0xffffffffffffffffffffffffffffffffffffffff\n      and\n      dup2\n      mstore\n      0x20\n      add\n      swap1\n      dup2\n      mstore\n      0x20\n      add\n      0x00\n      keccak256\n      0x00\n        /* \"contracts/SimpleSmartWalletSave.sol\":989:1023  authorizedUsers[msg.sender] = true */\n      0x0100\n      exp\n      dup2\n      sload\n      dup2\n      0xff\n      mul\n      not\n      and\n      swap1\n      dup4\n      iszero\n      iszero\n      mul\n      or\n      swap1\n      sstore\n      pop\n        /* \"contracts/SimpleSmartWalletSave.sol\":1063:1072  msg.value */\n      callvalue\n        /* \"contracts/SimpleSmartWalletSave.sol\":1033:1047  balanceOfUsers */\n      0x02\n        /* \"contracts/SimpleSmartWalletSave.sol\":1033:1059  balanceOfUsers[msg.sender] */\n      0x00\n        /* \"contracts/SimpleSmartWalletSave.sol\":1048:1058  msg.sender */\n      caller\n        /* \"contracts/SimpleSmartWalletSave.sol\":1033:1059  balanceOfUsers[msg.sender] */\n      0xffffffffffffffffffffffffffffffffffffffff\n      and\n      0xffffffffffffffffffffffffffffffffffffffff\n      and\n      dup2\n      mstore\n      0x20\n      add\n      swap1\n      dup2\n      mstore\n      0x20\n      add\n      0x00\n      keccak256\n      0x00\n        /* \"contracts/SimpleSmartWalletSave.sol\":1033:1072  balanceOfUsers[msg.sender] += msg.value */\n      dup3\n      dup3\n      sload\n      tag_58\n      swap2\n      swap1\n      tag_59\n      jump\t// in\n    tag_58:\n      swap3\n      pop\n      pop\n      dup2\n      swap1\n      sstore\n      pop\n        /* \"contracts/SimpleSmartWalletSave.sol\":1095:1105  msg.sender */\n      caller\n        /* \"contracts/SimpleSmartWalletSave.sol\":1087:1117  Deposit(msg.sender, msg.value) */\n      0xffffffffffffffffffffffffffffffffffffffff\n      and\n      0xe1fffcc4923d04b559f4d29a8bfc6cda04eb5b0d3c460751c2402c5c5cc9109c\n        /* \"contracts/SimpleSmartWalletSave.sol\":1107:1116  msg.value */\n      callvalue\n        /* \"contracts/SimpleSmartWalletSave.sol\":1087:1117  Deposit(msg.sender, msg.value) */\n      mload(0x40)\n      tag_60\n      swap2\n      swap1\n      tag_35\n      jump\t// in\n    tag_60:\n      mload(0x40)\n      dup1\n      swap2\n      sub\n      swap1\n      log2\n        /* \"contracts/SimpleSmartWalletSave.sol\":1152:1162  msg.sender */\n      caller\n        /* \"contracts/SimpleSmartWalletSave.sol\":1132:1163  AuthorizedUserAdded(msg.sender) */\n      0xffffffffffffffffffffffffffffffffffffffff\n      and\n      0x7e07c71a6d7714652e08d641a843dff01e823c8eeed08945be844015fe335393\n      mload(0x40)\n      mload(0x40)\n      dup1\n      swap2\n      sub\n      swap1\n      log2\n        /* \"contracts/SimpleSmartWalletSave.sol\":945:1170  function deposit() public payable {... */\n      jump\t// out\n        /* \"#utility.yul\":88:205   */\n    tag_62:\n        /* \"#utility.yul\":197:198   */\n      0x00\n        /* \"#utility.yul\":194:195   */\n      dup1\n        /* \"#utility.yul\":187:199   */\n      revert\n        /* \"#utility.yul\":334:460   */\n    tag_64:\n        /* \"#utility.yul\":371:378   */\n      0x00\n        /* \"#utility.yul\":411:453   */\n      0xffffffffffffffffffffffffffffffffffffffff\n        /* \"#utility.yul\":404:409   */\n      dup3\n        /* \"#utility.yul\":400:454   */\n      and\n        /* \"#utility.yul\":389:454   */\n      swap1\n      pop\n        /* \"#utility.yul\":334:460   */\n      swap2\n      swap1\n      pop\n      jump\t// out\n        /* \"#utility.yul\":466:562   */\n    tag_65:\n        /* \"#utility.yul\":503:510   */\n      0x00\n        /* \"#utility.yul\":532:556   */\n      tag_85\n        /* \"#utility.yul\":550:555   */\n      dup3\n        /* \"#utility.yul\":532:556   */\n      tag_64\n      jump\t// in\n    tag_85:\n        /* \"#utility.yul\":521:556   */\n      swap1\n      pop\n        /* \"#utility.yul\":466:562   */\n      swap2\n      swap1\n      pop\n      jump\t// out\n        /* \"#utility.yul\":568:690   */\n    tag_66:\n        /* \"#utility.yul\":641:665   */\n      tag_87\n        /* \"#utility.yul\":659:664   */\n      dup2\n        /* \"#utility.yul\":641:665   */\n      tag_65\n      jump\t// in\n    tag_87:\n        /* \"#utility.yul\":634:639   */\n      dup2\n        /* \"#utility.yul\":631:666   */\n      eq\n        /* \"#utility.yul\":621:684   */\n      tag_88\n      jumpi\n        /* \"#utility.yul\":680:681   */\n      0x00\n        /* \"#utility.yul\":677:678   */\n      dup1\n        /* \"#utility.yul\":670:682   */\n      revert\n        /* \"#utility.yul\":621:684   */\n    tag_88:\n        /* \"#utility.yul\":568:690   */\n      pop\n      jump\t// out\n        /* \"#utility.yul\":696:835   */\n    tag_67:\n        /* \"#utility.yul\":742:747   */\n      0x00\n        /* \"#utility.yul\":780:786   */\n      dup2\n        /* \"#utility.yul\":767:787   */\n      calldataload\n        /* \"#utility.yul\":758:787   */\n      swap1\n      pop\n        /* \"#utility.yul\":796:829   */\n      tag_90\n        /* \"#utility.yul\":823:828   */\n      dup2\n        /* \"#utility.yul\":796:829   */\n      tag_66\n      jump\t// in\n    tag_90:\n        /* \"#utility.yul\":696:835   */\n      swap3\n      swap2\n      pop\n      pop\n      jump\t// out\n        /* \"#utility.yul\":841:1170   */\n    tag_11:\n        /* \"#utility.yul\":900:906   */\n      0x00\n        /* \"#utility.yul\":949:951   */\n      0x20\n        /* \"#utility.yul\":937:946   */\n      dup3\n        /* \"#utility.yul\":928:935   */\n      dup5\n        /* \"#utility.yul\":924:947   */\n      sub\n        /* \"#utility.yul\":920:952   */\n      slt\n        /* \"#utility.yul\":917:1036   */\n      iszero\n      tag_92\n      jumpi\n        /* \"#utility.yul\":955:1034   */\n      tag_93\n      tag_62\n      jump\t// in\n    tag_93:\n        /* \"#utility.yul\":917:1036   */\n    tag_92:\n        /* \"#utility.yul\":1075:1076   */\n      0x00\n        /* \"#utility.yul\":1100:1153   */\n      tag_94\n        /* \"#utility.yul\":1145:1152   */\n      dup5\n        /* \"#utility.yul\":1136:1142   */\n      dup3\n        /* \"#utility.yul\":1125:1134   */\n      dup6\n        /* \"#utility.yul\":1121:1143   */\n      add\n        /* \"#utility.yul\":1100:1153   */\n      tag_67\n      jump\t// in\n    tag_94:\n        /* \"#utility.yul\":1090:1153   */\n      swap2\n      pop\n        /* \"#utility.yul\":1046:1163   */\n      pop\n        /* \"#utility.yul\":841:1170   */\n      swap3\n      swap2\n      pop\n      pop\n      jump\t// out\n        /* \"#utility.yul\":1176:1266   */\n    tag_68:\n        /* \"#utility.yul\":1210:1217   */\n      0x00\n        /* \"#utility.yul\":1253:1258   */\n      dup2\n        /* \"#utility.yul\":1246:1259   */\n      iszero\n        /* \"#utility.yul\":1239:1260   */\n      iszero\n        /* \"#utility.yul\":1228:1260   */\n      swap1\n      pop\n        /* \"#utility.yul\":1176:1266   */\n      swap2\n      swap1\n      pop\n      jump\t// out\n        /* \"#utility.yul\":1272:1381   */\n    tag_69:\n        /* \"#utility.yul\":1353:1374   */\n      tag_97\n        /* \"#utility.yul\":1368:1373   */\n      dup2\n        /* \"#utility.yul\":1353:1374   */\n      tag_68\n      jump\t// in\n    tag_97:\n        /* \"#utility.yul\":1348:1351   */\n      dup3\n        /* \"#utility.yul\":1341:1375   */\n      mstore\n        /* \"#utility.yul\":1272:1381   */\n      pop\n      pop\n      jump\t// out\n        /* \"#utility.yul\":1387:1597   */\n    tag_14:\n        /* \"#utility.yul\":1474:1478   */\n      0x00\n        /* \"#utility.yul\":1512:1514   */\n      0x20\n        /* \"#utility.yul\":1501:1510   */\n      dup3\n        /* \"#utility.yul\":1497:1515   */\n      add\n        /* \"#utility.yul\":1489:1515   */\n      swap1\n      pop\n        /* \"#utility.yul\":1525:1590   */\n      tag_99\n        /* \"#utility.yul\":1587:1588   */\n      0x00\n        /* \"#utility.yul\":1576:1585   */\n      dup4\n        /* \"#utility.yul\":1572:1589   */\n      add\n        /* \"#utility.yul\":1563:1569   */\n      dup5\n        /* \"#utility.yul\":1525:1590   */\n      tag_69\n      jump\t// in\n    tag_99:\n        /* \"#utility.yul\":1387:1597   */\n      swap3\n      swap2\n      pop\n      pop\n      jump\t// out\n        /* \"#utility.yul\":1603:1707   */\n    tag_70:\n        /* \"#utility.yul\":1648:1655   */\n      0x00\n        /* \"#utility.yul\":1677:1701   */\n      tag_101\n        /* \"#utility.yul\":1695:1700   */\n      dup3\n        /* \"#utility.yul\":1677:1701   */\n      tag_64\n      jump\t// in\n    tag_101:\n        /* \"#utility.yul\":1666:1701   */\n      swap1\n      pop\n        /* \"#utility.yul\":1603:1707   */\n      swap2\n      swap1\n      pop\n      jump\t// out\n        /* \"#utility.yul\":1713:1851   */\n    tag_71:\n        /* \"#utility.yul\":1794:1826   */\n      tag_103\n        /* \"#utility.yul\":1820:1825   */\n      dup2\n        /* \"#utility.yul\":1794:1826   */\n      tag_70\n      jump\t// in\n    tag_103:\n        /* \"#utility.yul\":1787:1792   */\n      dup2\n        /* \"#utility.yul\":1784:1827   */\n      eq\n        /* \"#utility.yul\":1774:1845   */\n      tag_104\n      jumpi\n        /* \"#utility.yul\":1841:1842   */\n      0x00\n        /* \"#utility.yul\":1838:1839   */\n      dup1\n        /* \"#utility.yul\":1831:1843   */\n      revert\n        /* \"#utility.yul\":1774:1845   */\n    tag_104:\n        /* \"#utility.yul\":1713:1851   */\n      pop\n      jump\t// out\n        /* \"#utility.yul\":1857:2012   */\n    tag_72:\n        /* \"#utility.yul\":1911:1916   */\n      0x00\n        /* \"#utility.yul\":1949:1955   */\n      dup2\n        /* \"#utility.yul\":1936:1956   */\n      calldataload\n        /* \"#utility.yul\":1927:1956   */\n      swap1\n      pop\n        /* \"#utility.yul\":1965:2006   */\n      tag_106\n        /* \"#utility.yul\":2000:2005   */\n      dup2\n        /* \"#utility.yul\":1965:2006   */\n      tag_71\n      jump\t// in\n    tag_106:\n        /* \"#utility.yul\":1857:2012   */\n      swap3\n      swap2\n      pop\n      pop\n      jump\t// out\n        /* \"#utility.yul\":2018:2095   */\n    tag_73:\n        /* \"#utility.yul\":2055:2062   */\n      0x00\n        /* \"#utility.yul\":2084:2089   */\n      dup2\n        /* \"#utility.yul\":2073:2089   */\n      swap1\n      pop\n        /* \"#utility.yul\":2018:2095   */\n      swap2\n      swap1\n      pop\n      jump\t// out\n        /* \"#utility.yul\":2101:2223   */\n    tag_74:\n        /* \"#utility.yul\":2174:2198   */\n      tag_109\n        /* \"#utility.yul\":2192:2197   */\n      dup2\n        /* \"#utility.yul\":2174:2198   */\n      tag_73\n      jump\t// in\n    tag_109:\n        /* \"#utility.yul\":2167:2172   */\n      dup2\n        /* \"#utility.yul\":2164:2199   */\n      eq\n        /* \"#utility.yul\":2154:2217   */\n      tag_110\n      jumpi\n        /* \"#utility.yul\":2213:2214   */\n      0x00\n        /* \"#utility.yul\":2210:2211   */\n      dup1\n        /* \"#utility.yul\":2203:2215   */\n      revert\n        /* \"#utility.yul\":2154:2217   */\n    tag_110:\n        /* \"#utility.yul\":2101:2223   */\n      pop\n      jump\t// out\n        /* \"#utility.yul\":2229:2368   */\n    tag_75:\n        /* \"#utility.yul\":2275:2280   */\n      0x00\n        /* \"#utility.yul\":2313:2319   */\n      dup2\n        /* \"#utility.yul\":2300:2320   */\n      calldataload\n        /* \"#utility.yul\":2291:2320   */\n      swap1\n      pop\n        /* \"#utility.yul\":2329:2362   */\n      tag_112\n        /* \"#utility.yul\":2356:2361   */\n      dup2\n        /* \"#utility.yul\":2329:2362   */\n      tag_74\n      jump\t// in\n    tag_112:\n        /* \"#utility.yul\":2229:2368   */\n      swap3\n      swap2\n      pop\n      pop\n      jump\t// out\n        /* \"#utility.yul\":2374:2864   */\n    tag_18:\n        /* \"#utility.yul\":2450:2456   */\n      0x00\n        /* \"#utility.yul\":2458:2464   */\n      dup1\n        /* \"#utility.yul\":2507:2509   */\n      0x40\n        /* \"#utility.yul\":2495:2504   */\n      dup4\n        /* \"#utility.yul\":2486:2493   */\n      dup6\n        /* \"#utility.yul\":2482:2505   */\n      sub\n        /* \"#utility.yul\":2478:2510   */\n      slt\n        /* \"#utility.yul\":2475:2594   */\n      iszero\n      tag_114\n      jumpi\n        /* \"#utility.yul\":2513:2592   */\n      tag_115\n      tag_62\n      jump\t// in\n    tag_115:\n        /* \"#utility.yul\":2475:2594   */\n    tag_114:\n        /* \"#utility.yul\":2633:2634   */\n      0x00\n        /* \"#utility.yul\":2658:2719   */\n      tag_116\n        /* \"#utility.yul\":2711:2718   */\n      dup6\n        /* \"#utility.yul\":2702:2708   */\n      dup3\n        /* \"#utility.yul\":2691:2700   */\n      dup7\n        /* \"#utility.yul\":2687:2709   */\n      add\n        /* \"#utility.yul\":2658:2719   */\n      tag_72\n      jump\t// in\n    tag_116:\n        /* \"#utility.yul\":2648:2719   */\n      swap3\n      pop\n        /* \"#utility.yul\":2604:2729   */\n      pop\n        /* \"#utility.yul\":2768:2770   */\n      0x20\n        /* \"#utility.yul\":2794:2847   */\n      tag_117\n        /* \"#utility.yul\":2839:2846   */\n      dup6\n        /* \"#utility.yul\":2830:2836   */\n      dup3\n        /* \"#utility.yul\":2819:2828   */\n      dup7\n        /* \"#utility.yul\":2815:2837   */\n      add\n        /* \"#utility.yul\":2794:2847   */\n      tag_75\n      jump\t// in\n    tag_117:\n        /* \"#utility.yul\":2784:2847   */\n      swap2\n      pop\n        /* \"#utility.yul\":2739:2857   */\n      pop\n        /* \"#utility.yul\":2374:2864   */\n      swap3\n      pop\n      swap3\n      swap1\n      pop\n      jump\t// out\n        /* \"#utility.yul\":2870:3199   */\n    tag_23:\n        /* \"#utility.yul\":2929:2935   */\n      0x00\n        /* \"#utility.yul\":2978:2980   */\n      0x20\n        /* \"#utility.yul\":2966:2975   */\n      dup3\n        /* \"#utility.yul\":2957:2964   */\n      dup5\n        /* \"#utility.yul\":2953:2976   */\n      sub\n        /* \"#utility.yul\":2949:2981   */\n      slt\n        /* \"#utility.yul\":2946:3065   */\n      iszero\n      tag_119\n      jumpi\n        /* \"#utility.yul\":2984:3063   */\n      tag_120\n      tag_62\n      jump\t// in\n    tag_120:\n        /* \"#utility.yul\":2946:3065   */\n    tag_119:\n        /* \"#utility.yul\":3104:3105   */\n      0x00\n        /* \"#utility.yul\":3129:3182   */\n      tag_121\n        /* \"#utility.yul\":3174:3181   */\n      dup5\n        /* \"#utility.yul\":3165:3171   */\n      dup3\n        /* \"#utility.yul\":3154:3163   */\n      dup6\n        /* \"#utility.yul\":3150:3172   */\n      add\n        /* \"#utility.yul\":3129:3182   */\n      tag_75\n      jump\t// in\n    tag_121:\n        /* \"#utility.yul\":3119:3182   */\n      swap2\n      pop\n        /* \"#utility.yul\":3075:3192   */\n      pop\n        /* \"#utility.yul\":2870:3199   */\n      swap3\n      swap2\n      pop\n      pop\n      jump\t// out\n        /* \"#utility.yul\":3205:3323   */\n    tag_76:\n        /* \"#utility.yul\":3292:3316   */\n      tag_123\n        /* \"#utility.yul\":3310:3315   */\n      dup2\n        /* \"#utility.yul\":3292:3316   */\n      tag_65\n      jump\t// in\n    tag_123:\n        /* \"#utility.yul\":3287:3290   */\n      dup3\n        /* \"#utility.yul\":3280:3317   */\n      mstore\n        /* \"#utility.yul\":3205:3323   */\n      pop\n      pop\n      jump\t// out\n        /* \"#utility.yul\":3329:3551   */\n    tag_29:\n        /* \"#utility.yul\":3422:3426   */\n      0x00\n        /* \"#utility.yul\":3460:3462   */\n      0x20\n        /* \"#utility.yul\":3449:3458   */\n      dup3\n        /* \"#utility.yul\":3445:3463   */\n      add\n        /* \"#utility.yul\":3437:3463   */\n      swap1\n      pop\n        /* \"#utility.yul\":3473:3544   */\n      tag_125\n        /* \"#utility.yul\":3541:3542   */\n      0x00\n        /* \"#utility.yul\":3530:3539   */\n      dup4\n        /* \"#utility.yul\":3526:3543   */\n      add\n        /* \"#utility.yul\":3517:3523   */\n      dup5\n        /* \"#utility.yul\":3473:3544   */\n      tag_76\n      jump\t// in\n    tag_125:\n        /* \"#utility.yul\":3329:3551   */\n      swap3\n      swap2\n      pop\n      pop\n      jump\t// out\n        /* \"#utility.yul\":3557:3675   */\n    tag_77:\n        /* \"#utility.yul\":3644:3668   */\n      tag_127\n        /* \"#utility.yul\":3662:3667   */\n      dup2\n        /* \"#utility.yul\":3644:3668   */\n      tag_73\n      jump\t// in\n    tag_127:\n        /* \"#utility.yul\":3639:3642   */\n      dup3\n        /* \"#utility.yul\":3632:3669   */\n      mstore\n        /* \"#utility.yul\":3557:3675   */\n      pop\n      pop\n      jump\t// out\n        /* \"#utility.yul\":3681:3903   */\n    tag_35:\n        /* \"#utility.yul\":3774:3778   */\n      0x00\n        /* \"#utility.yul\":3812:3814   */\n      0x20\n        /* \"#utility.yul\":3801:3810   */\n      dup3\n        /* \"#utility.yul\":3797:3815   */\n      add\n        /* \"#utility.yul\":3789:3815   */\n      swap1\n      pop\n        /* \"#utility.yul\":3825:3896   */\n      tag_129\n        /* \"#utility.yul\":3893:3894   */\n      0x00\n        /* \"#utility.yul\":3882:3891   */\n      dup4\n        /* \"#utility.yul\":3878:3895   */\n      add\n        /* \"#utility.yul\":3869:3875   */\n      dup5\n        /* \"#utility.yul\":3825:3896   */\n      tag_77\n      jump\t// in\n    tag_129:\n        /* \"#utility.yul\":3681:3903   */\n      swap3\n      swap2\n      pop\n      pop\n      jump\t// out\n        /* \"#utility.yul\":3909:4089   */\n    tag_78:\n        /* \"#utility.yul\":3957:4034   */\n      0x4e487b7100000000000000000000000000000000000000000000000000000000\n        /* \"#utility.yul\":3954:3955   */\n      0x00\n        /* \"#utility.yul\":3947:4035   */\n      mstore\n        /* \"#utility.yul\":4054:4058   */\n      0x11\n        /* \"#utility.yul\":4051:4052   */\n      0x04\n        /* \"#utility.yul\":4044:4059   */\n      mstore\n        /* \"#utility.yul\":4078:4082   */\n      0x24\n        /* \"#utility.yul\":4075:4076   */\n      0x00\n        /* \"#utility.yul\":4068:4083   */\n      revert\n        /* \"#utility.yul\":4095:4289   */\n    tag_44:\n        /* \"#utility.yul\":4135:4139   */\n      0x00\n        /* \"#utility.yul\":4155:4175   */\n      tag_132\n        /* \"#utility.yul\":4173:4174   */\n      dup3\n        /* \"#utility.yul\":4155:4175   */\n      tag_73\n      jump\t// in\n    tag_132:\n        /* \"#utility.yul\":4150:4175   */\n      swap2\n      pop\n        /* \"#utility.yul\":4189:4209   */\n      tag_133\n        /* \"#utility.yul\":4207:4208   */\n      dup4\n        /* \"#utility.yul\":4189:4209   */\n      tag_73\n      jump\t// in\n    tag_133:\n        /* \"#utility.yul\":4184:4209   */\n      swap3\n      pop\n        /* \"#utility.yul\":4233:4234   */\n      dup3\n        /* \"#utility.yul\":4230:4231   */\n      dup3\n        /* \"#utility.yul\":4226:4235   */\n      sub\n        /* \"#utility.yul\":4218:4235   */\n      swap1\n      pop\n        /* \"#utility.yul\":4257:4258   */\n      dup2\n        /* \"#utility.yul\":4251:4255   */\n      dup2\n        /* \"#utility.yul\":4248:4259   */\n      gt\n        /* \"#utility.yul\":4245:4282   */\n      iszero\n      tag_134\n      jumpi\n        /* \"#utility.yul\":4262:4280   */\n      tag_135\n      tag_78\n      jump\t// in\n    tag_135:\n        /* \"#utility.yul\":4245:4282   */\n    tag_134:\n        /* \"#utility.yul\":4095:4289   */\n      swap3\n      swap2\n      pop\n      pop\n      jump\t// out\n        /* \"#utility.yul\":4295:4486   */\n    tag_59:\n        /* \"#utility.yul\":4335:4338   */\n      0x00\n        /* \"#utility.yul\":4354:4374   */\n      tag_137\n        /* \"#utility.yul\":4372:4373   */\n      dup3\n        /* \"#utility.yul\":4354:4374   */\n      tag_73\n      jump\t// in\n    tag_137:\n        /* \"#utility.yul\":4349:4374   */\n      swap2\n      pop\n        /* \"#utility.yul\":4388:4408   */\n      tag_138\n        /* \"#utility.yul\":4406:4407   */\n      dup4\n        /* \"#utility.yul\":4388:4408   */\n      tag_73\n      jump\t// in\n    tag_138:\n        /* \"#utility.yul\":4383:4408   */\n      swap3\n      pop\n        /* \"#utility.yul\":4431:4432   */\n      dup3\n        /* \"#utility.yul\":4428:4429   */\n      dup3\n        /* \"#utility.yul\":4424:4433   */\n      add\n        /* \"#utility.yul\":4417:4433   */\n      swap1\n      pop\n        /* \"#utility.yul\":4452:4455   */\n      dup1\n        /* \"#utility.yul\":4449:4450   */\n      dup3\n        /* \"#utility.yul\":4446:4456   */\n      gt\n        /* \"#utility.yul\":4443:4479   */\n      iszero\n      tag_139\n      jumpi\n        /* \"#utility.yul\":4459:4477   */\n      tag_140\n      tag_78\n      jump\t// in\n    tag_140:\n        /* \"#utility.yul\":4443:4479   */\n    tag_139:\n        /* \"#utility.yul\":4295:4486   */\n      swap3\n      swap2\n      pop\n      pop\n      jump\t// out\n\n    auxdata: 0xa264697066735822122014523f59e4cc7ac916fb080daf64528d72a74d01d4578b1384e320dd69d3c89164736f6c634300081a0033\n}\n",
				"bytecode": {
					"linkReferences": {},
					"object": "6080604052348015600e575f80fd5b50335f806101000a81548173ffffffffffffffffffffffffffffffffffffffff021916908373ffffffffffffffffffffffffffffffffffffffff1602179055506109698061005b5f395ff3fe608060405260043610610054575f3560e01c80631828983a146100585780632ccb1b30146100945780632e1a7d4d146100bc5780638da5cb5b146100e4578063a48d89cb1461010e578063d0e30db01461014a575b5f80fd5b348015610063575f80fd5b5061007e6004803603810190610079919061071b565b610154565b60405161008b9190610760565b60405180910390f35b34801561009f575f80fd5b506100ba60048036038101906100b591906107e7565b610171565b005b3480156100c7575f80fd5b506100e260048036038101906100dd9190610825565b61036a565b005b3480156100ef575f80fd5b506100f861054b565b604051610105919061085f565b60405180910390f35b348015610119575f80fd5b50610134600480360381019061012f919061071b565b61056e565b6040516101419190610887565b60405180910390f35b610152610583565b005b6001602052805f5260405f205f915054906101000a900460ff1681565b60015f3373ffffffffffffffffffffffffffffffffffffffff1673ffffffffffffffffffffffffffffffffffffffff1681526020019081526020015f205f9054906101000a900460ff166101f1576040517f329a519d00000000000000000000000000000000000000000000000000000000815260040160405180910390fd5b808060025f3373ffffffffffffffffffffffffffffffffffffffff1673ffffffffffffffffffffffffffffffffffffffff1681526020019081526020015f20541015610269576040517f47826a1800000000000000000000000000000000000000000000000000000000815260040160405180910390fd5b8160025f3373ffffffffffffffffffffffffffffffffffffffff1673ffffffffffffffffffffffffffffffffffffffff1681526020019081526020015f205f8282546102b591906108cd565b925050819055508273ffffffffffffffffffffffffffffffffffffffff166108fc8390811502906040515f60405180830381858888f193505050501580156102ff573d5f803e3d5ffd5b508273ffffffffffffffffffffffffffffffffffffffff163373ffffffffffffffffffffffffffffffffffffffff167fddf252ad1be2c89b69c2b068fc378daa952ba7f163c4a11628f55a4df523b3ef8460405161035d9190610887565b60405180910390a3505050565b60015f3373ffffffffffffffffffffffffffffffffffffffff1673ffffffffffffffffffffffffffffffffffffffff1681526020019081526020015f205f9054906101000a900460ff166103ea576040517f329a519d00000000000000000000000000000000000000000000000000000000815260040160405180910390fd5b808060025f3373ffffffffffffffffffffffffffffffffffffffff1673ffffffffffffffffffffffffffffffffffffffff1681526020019081526020015f20541015610462576040517f47826a1800000000000000000000000000000000000000000000000000000000815260040160405180910390fd5b8160025f3373ffffffffffffffffffffffffffffffffffffffff1673ffffffffffffffffffffffffffffffffffffffff1681526020019081526020015f205f8282546104ae91906108cd565b925050819055503373ffffffffffffffffffffffffffffffffffffffff166108fc8390811502906040515f60405180830381858888f193505050501580156104f8573d5f803e3d5ffd5b503373ffffffffffffffffffffffffffffffffffffffff167fb6e26e54bd578616699ab07efb4c2e322b45a80673803bbb259443d9fecee6528360405161053f9190610887565b60405180910390a25050565b5f8054906101000a900473ffffffffffffffffffffffffffffffffffffffff1681565b6002602052805f5260405f205f915090505481565b6001805f3373ffffffffffffffffffffffffffffffffffffffff1673ffffffffffffffffffffffffffffffffffffffff1681526020019081526020015f205f6101000a81548160ff0219169083151502179055503460025f3373ffffffffffffffffffffffffffffffffffffffff1673ffffffffffffffffffffffffffffffffffffffff1681526020019081526020015f205f8282546106239190610900565b925050819055503373ffffffffffffffffffffffffffffffffffffffff167fe1fffcc4923d04b559f4d29a8bfc6cda04eb5b0d3c460751c2402c5c5cc9109c346040516106709190610887565b60405180910390a23373ffffffffffffffffffffffffffffffffffffffff167f7e07c71a6d7714652e08d641a843dff01e823c8eeed08945be844015fe33539360405160405180910390a2565b5f80fd5b5f73ffffffffffffffffffffffffffffffffffffffff82169050919050565b5f6106ea826106c1565b9050919050565b6106fa816106e0565b8114610704575f80fd5b50565b5f81359050610715816106f1565b92915050565b5f602082840312156107305761072f6106bd565b5b5f61073d84828501610707565b91505092915050565b5f8115159050919050565b61075a81610746565b82525050565b5f6020820190506107735f830184610751565b92915050565b5f610783826106c1565b9050919050565b61079381610779565b811461079d575f80fd5b50565b5f813590506107ae8161078a565b92915050565b5f819050919050565b6107c6816107b4565b81146107d0575f80fd5b50565b5f813590506107e1816107bd565b92915050565b5f80604083850312156107fd576107fc6106bd565b5b5f61080a858286016107a0565b925050602061081b858286016107d3565b9150509250929050565b5f6020828403121561083a576108396106bd565b5b5f610847848285016107d3565b91505092915050565b610859816106e0565b82525050565b5f6020820190506108725f830184610850565b92915050565b610881816107b4565b82525050565b5f60208201905061089a5f830184610878565b92915050565b7f4e487b71000000000000000000000000000000000000000000000000000000005f52601160045260245ffd5b5f6108d7826107b4565b91506108e2836107b4565b92508282039050818111156108fa576108f96108a0565b5b92915050565b5f61090a826107b4565b9150610915836107b4565b925082820190508082111561092d5761092c6108a0565b5b9291505056fea264697066735822122014523f59e4cc7ac916fb080daf64528d72a74d01d4578b1384e320dd69d3c89164736f6c634300081a0033",
					"opcodes": "PUSH1 0x80 PUSH1 0x40 MSTORE CALLVALUE DUP1 ISZERO PUSH1 0xE JUMPI PUSH0 DUP1 REVERT JUMPDEST POP CALLER PUSH0 DUP1 PUSH2 0x100 EXP DUP2 SLOAD DUP2 PUSH20 0xFFFFFFFFFFFFFFFFFFFFFFFFFFFFFFFFFFFFFFFF MUL NOT AND SWAP1 DUP4 PUSH20 0xFFFFFFFFFFFFFFFFFFFFFFFFFFFFFFFFFFFFFFFF AND MUL OR SWAP1 SSTORE POP PUSH2 0x969 DUP1 PUSH2 0x5B PUSH0 CODECOPY PUSH0 RETURN INVALID PUSH1 0x80 PUSH1 0x40 MSTORE PUSH1 0x4 CALLDATASIZE LT PUSH2 0x54 JUMPI PUSH0 CALLDATALOAD PUSH1 0xE0 SHR DUP1 PUSH4 0x1828983A EQ PUSH2 0x58 JUMPI DUP1 PUSH4 0x2CCB1B30 EQ PUSH2 0x94 JUMPI DUP1 PUSH4 0x2E1A7D4D EQ PUSH2 0xBC JUMPI DUP1 PUSH4 0x8DA5CB5B EQ PUSH2 0xE4 JUMPI DUP1 PUSH4 0xA48D89CB EQ PUSH2 0x10E JUMPI DUP1 PUSH4 0xD0E30DB0 EQ PUSH2 0x14A JUMPI JUMPDEST PUSH0 DUP1 REVERT JUMPDEST CALLVALUE DUP1 ISZERO PUSH2 0x63 JUMPI PUSH0 DUP1 REVERT JUMPDEST POP PUSH2 0x7E PUSH1 0x4 DUP1 CALLDATASIZE SUB DUP2 ADD SWAP1 PUSH2 0x79 SWAP2 SWAP1 PUSH2 0x71B JUMP JUMPDEST PUSH2 0x154 JUMP JUMPDEST PUSH1 0x40 MLOAD PUSH2 0x8B SWAP2 SWAP1 PUSH2 0x760 JUMP JUMPDEST PUSH1 0x40 MLOAD DUP1 SWAP2 SUB SWAP1 RETURN JUMPDEST CALLVALUE DUP1 ISZERO PUSH2 0x9F JUMPI PUSH0 DUP1 REVERT JUMPDEST POP PUSH2 0xBA PUSH1 0x4 DUP1 CALLDATASIZE SUB DUP2 ADD SWAP1 PUSH2 0xB5 SWAP2 SWAP1 PUSH2 0x7E7 JUMP JUMPDEST PUSH2 0x171 JUMP JUMPDEST STOP JUMPDEST CALLVALUE DUP1 ISZERO PUSH2 0xC7 JUMPI PUSH0 DUP1 REVERT JUMPDEST POP PUSH2 0xE2 PUSH1 0x4 DUP1 CALLDATASIZE SUB DUP2 ADD SWAP1 PUSH2 0xDD SWAP2 SWAP1 PUSH2 0x825 JUMP JUMPDEST PUSH2 0x36A JUMP JUMPDEST STOP JUMPDEST CALLVALUE DUP1 ISZERO PUSH2 0xEF JUMPI PUSH0 DUP1 REVERT JUMPDEST POP PUSH2 0xF8 PUSH2 0x54B JUMP JUMPDEST PUSH1 0x40 MLOAD PUSH2 0x105 SWAP2 SWAP1 PUSH2 0x85F JUMP JUMPDEST PUSH1 0x40 MLOAD DUP1 SWAP2 SUB SWAP1 RETURN JUMPDEST CALLVALUE DUP1 ISZERO PUSH2 0x119 JUMPI PUSH0 DUP1 REVERT JUMPDEST POP PUSH2 0x134 PUSH1 0x4 DUP1 CALLDATASIZE SUB DUP2 ADD SWAP1 PUSH2 0x12F SWAP2 SWAP1 PUSH2 0x71B JUMP JUMPDEST PUSH2 0x56E JUMP JUMPDEST PUSH1 0x40 MLOAD PUSH2 0x141 SWAP2 SWAP1 PUSH2 0x887 JUMP JUMPDEST PUSH1 0x40 MLOAD DUP1 SWAP2 SUB SWAP1 RETURN JUMPDEST PUSH2 0x152 PUSH2 0x583 JUMP JUMPDEST STOP JUMPDEST PUSH1 0x1 PUSH1 0x20 MSTORE DUP1 PUSH0 MSTORE PUSH1 0x40 PUSH0 KECCAK256 PUSH0 SWAP2 POP SLOAD SWAP1 PUSH2 0x100 EXP SWAP1 DIV PUSH1 0xFF AND DUP2 JUMP JUMPDEST PUSH1 0x1 PUSH0 CALLER PUSH20 0xFFFFFFFFFFFFFFFFFFFFFFFFFFFFFFFFFFFFFFFF AND PUSH20 0xFFFFFFFFFFFFFFFFFFFFFFFFFFFFFFFFFFFFFFFF AND DUP2 MSTORE PUSH1 0x20 ADD SWAP1 DUP2 MSTORE PUSH1 0x20 ADD PUSH0 KECCAK256 PUSH0 SWAP1 SLOAD SWAP1 PUSH2 0x100 EXP SWAP1 DIV PUSH1 0xFF AND PUSH2 0x1F1 JUMPI PUSH1 0x40 MLOAD PUSH32 0x329A519D00000000000000000000000000000000000000000000000000000000 DUP2 MSTORE PUSH1 0x4 ADD PUSH1 0x40 MLOAD DUP1 SWAP2 SUB SWAP1 REVERT JUMPDEST DUP1 DUP1 PUSH1 0x2 PUSH0 CALLER PUSH20 0xFFFFFFFFFFFFFFFFFFFFFFFFFFFFFFFFFFFFFFFF AND PUSH20 0xFFFFFFFFFFFFFFFFFFFFFFFFFFFFFFFFFFFFFFFF AND DUP2 MSTORE PUSH1 0x20 ADD SWAP1 DUP2 MSTORE PUSH1 0x20 ADD PUSH0 KECCAK256 SLOAD LT ISZERO PUSH2 0x269 JUMPI PUSH1 0x40 MLOAD PUSH32 0x47826A1800000000000000000000000000000000000000000000000000000000 DUP2 MSTORE PUSH1 0x4 ADD PUSH1 0x40 MLOAD DUP1 SWAP2 SUB SWAP1 REVERT JUMPDEST DUP2 PUSH1 0x2 PUSH0 CALLER PUSH20 0xFFFFFFFFFFFFFFFFFFFFFFFFFFFFFFFFFFFFFFFF AND PUSH20 0xFFFFFFFFFFFFFFFFFFFFFFFFFFFFFFFFFFFFFFFF AND DUP2 MSTORE PUSH1 0x20 ADD SWAP1 DUP2 MSTORE PUSH1 0x20 ADD PUSH0 KECCAK256 PUSH0 DUP3 DUP3 SLOAD PUSH2 0x2B5 SWAP2 SWAP1 PUSH2 0x8CD JUMP JUMPDEST SWAP3 POP POP DUP2 SWAP1 SSTORE POP DUP3 PUSH20 0xFFFFFFFFFFFFFFFFFFFFFFFFFFFFFFFFFFFFFFFF AND PUSH2 0x8FC DUP4 SWAP1 DUP2 ISZERO MUL SWAP1 PUSH1 0x40 MLOAD PUSH0 PUSH1 0x40 MLOAD DUP1 DUP4 SUB DUP2 DUP6 DUP9 DUP9 CALL SWAP4 POP POP POP POP ISZERO DUP1 ISZERO PUSH2 0x2FF JUMPI RETURNDATASIZE PUSH0 DUP1 RETURNDATACOPY RETURNDATASIZE PUSH0 REVERT JUMPDEST POP DUP3 PUSH20 0xFFFFFFFFFFFFFFFFFFFFFFFFFFFFFFFFFFFFFFFF AND CALLER PUSH20 0xFFFFFFFFFFFFFFFFFFFFFFFFFFFFFFFFFFFFFFFF AND PUSH32 0xDDF252AD1BE2C89B69C2B068FC378DAA952BA7F163C4A11628F55A4DF523B3EF DUP5 PUSH1 0x40 MLOAD PUSH2 0x35D SWAP2 SWAP1 PUSH2 0x887 JUMP JUMPDEST PUSH1 0x40 MLOAD DUP1 SWAP2 SUB SWAP1 LOG3 POP POP POP JUMP JUMPDEST PUSH1 0x1 PUSH0 CALLER PUSH20 0xFFFFFFFFFFFFFFFFFFFFFFFFFFFFFFFFFFFFFFFF AND PUSH20 0xFFFFFFFFFFFFFFFFFFFFFFFFFFFFFFFFFFFFFFFF AND DUP2 MSTORE PUSH1 0x20 ADD SWAP1 DUP2 MSTORE PUSH1 0x20 ADD PUSH0 KECCAK256 PUSH0 SWAP1 SLOAD SWAP1 PUSH2 0x100 EXP SWAP1 DIV PUSH1 0xFF AND PUSH2 0x3EA JUMPI PUSH1 0x40 MLOAD PUSH32 0x329A519D00000000000000000000000000000000000000000000000000000000 DUP2 MSTORE PUSH1 0x4 ADD PUSH1 0x40 MLOAD DUP1 SWAP2 SUB SWAP1 REVERT JUMPDEST DUP1 DUP1 PUSH1 0x2 PUSH0 CALLER PUSH20 0xFFFFFFFFFFFFFFFFFFFFFFFFFFFFFFFFFFFFFFFF AND PUSH20 0xFFFFFFFFFFFFFFFFFFFFFFFFFFFFFFFFFFFFFFFF AND DUP2 MSTORE PUSH1 0x20 ADD SWAP1 DUP2 MSTORE PUSH1 0x20 ADD PUSH0 KECCAK256 SLOAD LT ISZERO PUSH2 0x462 JUMPI PUSH1 0x40 MLOAD PUSH32 0x47826A1800000000000000000000000000000000000000000000000000000000 DUP2 MSTORE PUSH1 0x4 ADD PUSH1 0x40 MLOAD DUP1 SWAP2 SUB SWAP1 REVERT JUMPDEST DUP2 PUSH1 0x2 PUSH0 CALLER PUSH20 0xFFFFFFFFFFFFFFFFFFFFFFFFFFFFFFFFFFFFFFFF AND PUSH20 0xFFFFFFFFFFFFFFFFFFFFFFFFFFFFFFFFFFFFFFFF AND DUP2 MSTORE PUSH1 0x20 ADD SWAP1 DUP2 MSTORE PUSH1 0x20 ADD PUSH0 KECCAK256 PUSH0 DUP3 DUP3 SLOAD PUSH2 0x4AE SWAP2 SWAP1 PUSH2 0x8CD JUMP JUMPDEST SWAP3 POP POP DUP2 SWAP1 SSTORE POP CALLER PUSH20 0xFFFFFFFFFFFFFFFFFFFFFFFFFFFFFFFFFFFFFFFF AND PUSH2 0x8FC DUP4 SWAP1 DUP2 ISZERO MUL SWAP1 PUSH1 0x40 MLOAD PUSH0 PUSH1 0x40 MLOAD DUP1 DUP4 SUB DUP2 DUP6 DUP9 DUP9 CALL SWAP4 POP POP POP POP ISZERO DUP1 ISZERO PUSH2 0x4F8 JUMPI RETURNDATASIZE PUSH0 DUP1 RETURNDATACOPY RETURNDATASIZE PUSH0 REVERT JUMPDEST POP CALLER PUSH20 0xFFFFFFFFFFFFFFFFFFFFFFFFFFFFFFFFFFFFFFFF AND PUSH32 0xB6E26E54BD578616699AB07EFB4C2E322B45A80673803BBB259443D9FECEE652 DUP4 PUSH1 0x40 MLOAD PUSH2 0x53F SWAP2 SWAP1 PUSH2 0x887 JUMP JUMPDEST PUSH1 0x40 MLOAD DUP1 SWAP2 SUB SWAP1 LOG2 POP POP JUMP JUMPDEST PUSH0 DUP1 SLOAD SWAP1 PUSH2 0x100 EXP SWAP1 DIV PUSH20 0xFFFFFFFFFFFFFFFFFFFFFFFFFFFFFFFFFFFFFFFF AND DUP2 JUMP JUMPDEST PUSH1 0x2 PUSH1 0x20 MSTORE DUP1 PUSH0 MSTORE PUSH1 0x40 PUSH0 KECCAK256 PUSH0 SWAP2 POP SWAP1 POP SLOAD DUP2 JUMP JUMPDEST PUSH1 0x1 DUP1 PUSH0 CALLER PUSH20 0xFFFFFFFFFFFFFFFFFFFFFFFFFFFFFFFFFFFFFFFF AND PUSH20 0xFFFFFFFFFFFFFFFFFFFFFFFFFFFFFFFFFFFFFFFF AND DUP2 MSTORE PUSH1 0x20 ADD SWAP1 DUP2 MSTORE PUSH1 0x20 ADD PUSH0 KECCAK256 PUSH0 PUSH2 0x100 EXP DUP2 SLOAD DUP2 PUSH1 0xFF MUL NOT AND SWAP1 DUP4 ISZERO ISZERO MUL OR SWAP1 SSTORE POP CALLVALUE PUSH1 0x2 PUSH0 CALLER PUSH20 0xFFFFFFFFFFFFFFFFFFFFFFFFFFFFFFFFFFFFFFFF AND PUSH20 0xFFFFFFFFFFFFFFFFFFFFFFFFFFFFFFFFFFFFFFFF AND DUP2 MSTORE PUSH1 0x20 ADD SWAP1 DUP2 MSTORE PUSH1 0x20 ADD PUSH0 KECCAK256 PUSH0 DUP3 DUP3 SLOAD PUSH2 0x623 SWAP2 SWAP1 PUSH2 0x900 JUMP JUMPDEST SWAP3 POP POP DUP2 SWAP1 SSTORE POP CALLER PUSH20 0xFFFFFFFFFFFFFFFFFFFFFFFFFFFFFFFFFFFFFFFF AND PUSH32 0xE1FFFCC4923D04B559F4D29A8BFC6CDA04EB5B0D3C460751C2402C5C5CC9109C CALLVALUE PUSH1 0x40 MLOAD PUSH2 0x670 SWAP2 SWAP1 PUSH2 0x887 JUMP JUMPDEST PUSH1 0x40 MLOAD DUP1 SWAP2 SUB SWAP1 LOG2 CALLER PUSH20 0xFFFFFFFFFFFFFFFFFFFFFFFFFFFFFFFFFFFFFFFF AND PUSH32 0x7E07C71A6D7714652E08D641A843DFF01E823C8EEED08945BE844015FE335393 PUSH1 0x40 MLOAD PUSH1 0x40 MLOAD DUP1 SWAP2 SUB SWAP1 LOG2 JUMP JUMPDEST PUSH0 DUP1 REVERT JUMPDEST PUSH0 PUSH20 0xFFFFFFFFFFFFFFFFFFFFFFFFFFFFFFFFFFFFFFFF DUP3 AND SWAP1 POP SWAP2 SWAP1 POP JUMP JUMPDEST PUSH0 PUSH2 0x6EA DUP3 PUSH2 0x6C1 JUMP JUMPDEST SWAP1 POP SWAP2 SWAP1 POP JUMP JUMPDEST PUSH2 0x6FA DUP2 PUSH2 0x6E0 JUMP JUMPDEST DUP2 EQ PUSH2 0x704 JUMPI PUSH0 DUP1 REVERT JUMPDEST POP JUMP JUMPDEST PUSH0 DUP2 CALLDATALOAD SWAP1 POP PUSH2 0x715 DUP2 PUSH2 0x6F1 JUMP JUMPDEST SWAP3 SWAP2 POP POP JUMP JUMPDEST PUSH0 PUSH1 0x20 DUP3 DUP5 SUB SLT ISZERO PUSH2 0x730 JUMPI PUSH2 0x72F PUSH2 0x6BD JUMP JUMPDEST JUMPDEST PUSH0 PUSH2 0x73D DUP5 DUP3 DUP6 ADD PUSH2 0x707 JUMP JUMPDEST SWAP2 POP POP SWAP3 SWAP2 POP POP JUMP JUMPDEST PUSH0 DUP2 ISZERO ISZERO SWAP1 POP SWAP2 SWAP1 POP JUMP JUMPDEST PUSH2 0x75A DUP2 PUSH2 0x746 JUMP JUMPDEST DUP3 MSTORE POP POP JUMP JUMPDEST PUSH0 PUSH1 0x20 DUP3 ADD SWAP1 POP PUSH2 0x773 PUSH0 DUP4 ADD DUP5 PUSH2 0x751 JUMP JUMPDEST SWAP3 SWAP2 POP POP JUMP JUMPDEST PUSH0 PUSH2 0x783 DUP3 PUSH2 0x6C1 JUMP JUMPDEST SWAP1 POP SWAP2 SWAP1 POP JUMP JUMPDEST PUSH2 0x793 DUP2 PUSH2 0x779 JUMP JUMPDEST DUP2 EQ PUSH2 0x79D JUMPI PUSH0 DUP1 REVERT JUMPDEST POP JUMP JUMPDEST PUSH0 DUP2 CALLDATALOAD SWAP1 POP PUSH2 0x7AE DUP2 PUSH2 0x78A JUMP JUMPDEST SWAP3 SWAP2 POP POP JUMP JUMPDEST PUSH0 DUP2 SWAP1 POP SWAP2 SWAP1 POP JUMP JUMPDEST PUSH2 0x7C6 DUP2 PUSH2 0x7B4 JUMP JUMPDEST DUP2 EQ PUSH2 0x7D0 JUMPI PUSH0 DUP1 REVERT JUMPDEST POP JUMP JUMPDEST PUSH0 DUP2 CALLDATALOAD SWAP1 POP PUSH2 0x7E1 DUP2 PUSH2 0x7BD JUMP JUMPDEST SWAP3 SWAP2 POP POP JUMP JUMPDEST PUSH0 DUP1 PUSH1 0x40 DUP4 DUP6 SUB SLT ISZERO PUSH2 0x7FD JUMPI PUSH2 0x7FC PUSH2 0x6BD JUMP JUMPDEST JUMPDEST PUSH0 PUSH2 0x80A DUP6 DUP3 DUP7 ADD PUSH2 0x7A0 JUMP JUMPDEST SWAP3 POP POP PUSH1 0x20 PUSH2 0x81B DUP6 DUP3 DUP7 ADD PUSH2 0x7D3 JUMP JUMPDEST SWAP2 POP POP SWAP3 POP SWAP3 SWAP1 POP JUMP JUMPDEST PUSH0 PUSH1 0x20 DUP3 DUP5 SUB SLT ISZERO PUSH2 0x83A JUMPI PUSH2 0x839 PUSH2 0x6BD JUMP JUMPDEST JUMPDEST PUSH0 PUSH2 0x847 DUP5 DUP3 DUP6 ADD PUSH2 0x7D3 JUMP JUMPDEST SWAP2 POP POP SWAP3 SWAP2 POP POP JUMP JUMPDEST PUSH2 0x859 DUP2 PUSH2 0x6E0 JUMP JUMPDEST DUP3 MSTORE POP POP JUMP JUMPDEST PUSH0 PUSH1 0x20 DUP3 ADD SWAP1 POP PUSH2 0x872 PUSH0 DUP4 ADD DUP5 PUSH2 0x850 JUMP JUMPDEST SWAP3 SWAP2 POP POP JUMP JUMPDEST PUSH2 0x881 DUP2 PUSH2 0x7B4 JUMP JUMPDEST DUP3 MSTORE POP POP JUMP JUMPDEST PUSH0 PUSH1 0x20 DUP3 ADD SWAP1 POP PUSH2 0x89A PUSH0 DUP4 ADD DUP5 PUSH2 0x878 JUMP JUMPDEST SWAP3 SWAP2 POP POP JUMP JUMPDEST PUSH32 0x4E487B7100000000000000000000000000000000000000000000000000000000 PUSH0 MSTORE PUSH1 0x11 PUSH1 0x4 MSTORE PUSH1 0x24 PUSH0 REVERT JUMPDEST PUSH0 PUSH2 0x8D7 DUP3 PUSH2 0x7B4 JUMP JUMPDEST SWAP2 POP PUSH2 0x8E2 DUP4 PUSH2 0x7B4 JUMP JUMPDEST SWAP3 POP DUP3 DUP3 SUB SWAP1 POP DUP2 DUP2 GT ISZERO PUSH2 0x8FA JUMPI PUSH2 0x8F9 PUSH2 0x8A0 JUMP JUMPDEST JUMPDEST SWAP3 SWAP2 POP POP JUMP JUMPDEST PUSH0 PUSH2 0x90A DUP3 PUSH2 0x7B4 JUMP JUMPDEST SWAP2 POP PUSH2 0x915 DUP4 PUSH2 0x7B4 JUMP JUMPDEST SWAP3 POP DUP3 DUP3 ADD SWAP1 POP DUP1 DUP3 GT ISZERO PUSH2 0x92D JUMPI PUSH2 0x92C PUSH2 0x8A0 JUMP JUMPDEST JUMPDEST SWAP3 SWAP2 POP POP JUMP INVALID LOG2 PUSH5 0x6970667358 0x22 SLT KECCAK256 EQ MSTORE EXTCODEHASH MSIZE 0xE4 0xCC PUSH27 0xC916FB080DAF64528D72A74D01D4578B1384E320DD69D3C8916473 PUSH16 0x6C634300081A00330000000000000000 "
				},
				"gasEstimates": {
					"creation": {
						"codeDepositCost": "481800",
						"executionCost": "24781",
						"totalCost": "506581"
					},
					"external": {
						"authorizedUsers(address)": "2811",
						"balanceOfUsers(address)": "2868",
						"deposit()": "infinite",
						"owner()": "2549",
						"transferTo(address,uint256)": "infinite",
						"withdraw(uint256)": "infinite"
					}
				},
				"methodIdentifiers": {
					"authorizedUsers(address)": "1828983a",
					"balanceOfUsers(address)": "a48d89cb",
					"deposit()": "d0e30db0",
					"owner()": "8da5cb5b",
					"transferTo(address,uint256)": "2ccb1b30",
					"withdraw(uint256)": "2e1a7d4d"
				}
			},
			"storageLayout": {
				"storage": [
					{
						"astId": 7,
						"contract": "contracts/SimpleSmartWalletSave.sol:SimpleWalletSave",
						"label": "owner",
						"offset": 0,
						"slot": "0",
						"type": "t_address"
					},
					{
						"astId": 11,
						"contract": "contracts/SimpleSmartWalletSave.sol:SimpleWalletSave",
						"label": "authorizedUsers",
						"offset": 0,
						"slot": "1",
						"type": "t_mapping(t_address,t_bool)"
					},
					{
						"astId": 15,
						"contract": "contracts/SimpleSmartWalletSave.sol:SimpleWalletSave",
						"label": "balanceOfUsers",
						"offset": 0,
						"slot": "2",
						"type": "t_mapping(t_address,t_uint256)"
					}
				],
				"types": {
					"t_address": {
						"encoding": "inplace",
						"label": "address",
						"numberOfBytes": "20"
					},
					"t_bool": {
						"encoding": "inplace",
						"label": "bool",
						"numberOfBytes": "1"
					},
					"t_mapping(t_address,t_bool)": {
						"encoding": "mapping",
						"key": "t_address",
						"label": "mapping(address => bool)",
						"numberOfBytes": "32",
						"value": "t_bool"
					},
					"t_mapping(t_address,t_uint256)": {
						"encoding": "mapping",
						"key": "t_address",
						"label": "mapping(address => uint256)",
						"numberOfBytes": "32",
						"value": "t_uint256"
					},
					"t_uint256": {
						"encoding": "inplace",
						"label": "uint256",
						"numberOfBytes": "32"
					}
				}
			},
			"userdoc": {
				"kind": "user",
				"methods": {},
				"version": 1
			}
		}
	}
}